{"contracts/USVP.sol":{"USVP":{"abi":[{"inputs":[{"internalType":"address","name":"defaultAdmin","type":"address"},{"internalType":"address","name":"pauser","type":"address"},{"internalType":"address","name":"minter","type":"address"},{"internalType":"address","name":"limiter","type":"address"},{"internalType":"address","name":"custodian","type":"address"}],"stateMutability":"nonpayable","type":"constructor"},{"inputs":[],"name":"AccessControlBadConfirmation","type":"error"},{"inputs":[{"internalType":"address","name":"account","type":"address"},{"internalType":"bytes32","name":"neededRole","type":"bytes32"}],"name":"AccessControlUnauthorizedAccount","type":"error"},{"inputs":[],"name":"CheckpointUnorderedInsertion","type":"error"},{"inputs":[],"name":"ECDSAInvalidSignature","type":"error"},{"inputs":[{"internalType":"uint256","name":"length","type":"uint256"}],"name":"ECDSAInvalidSignatureLength","type":"error"},{"inputs":[{"internalType":"bytes32","name":"s","type":"bytes32"}],"name":"ECDSAInvalidSignatureS","type":"error"},{"inputs":[{"internalType":"address","name":"user","type":"address"}],"name":"ERC20Blocked","type":"error"},{"inputs":[{"internalType":"uint256","name":"increasedSupply","type":"uint256"},{"internalType":"uint256","name":"cap","type":"uint256"}],"name":"ERC20ExceededSafeSupply","type":"error"},{"inputs":[],"name":"ERC20FreezeAddressZero","type":"error"},{"inputs":[{"internalType":"address","name":"spender","type":"address"},{"internalType":"uint256","name":"allowance","type":"uint256"},{"internalType":"uint256","name":"needed","type":"uint256"}],"name":"ERC20InsufficientAllowance","type":"error"},{"inputs":[{"internalType":"address","name":"sender","type":"address"},{"internalType":"uint256","name":"balance","type":"uint256"},{"internalType":"uint256","name":"needed","type":"uint256"}],"name":"ERC20InsufficientBalance","type":"error"},{"inputs":[{"internalType":"address","name":"user","type":"address"}],"name":"ERC20InsufficientFrozenBalance","type":"error"},{"inputs":[{"internalType":"address","name":"user","type":"address"}],"name":"ERC20InsufficientUnfrozenBalance","type":"error"},{"inputs":[{"internalType":"address","name":"approver","type":"address"}],"name":"ERC20InvalidApprover","type":"error"},{"inputs":[{"internalType":"address","name":"receiver","type":"address"}],"name":"ERC20InvalidReceiver","type":"error"},{"inputs":[{"internalType":"address","name":"sender","type":"address"}],"name":"ERC20InvalidSender","type":"error"},{"inputs":[{"internalType":"address","name":"spender","type":"address"}],"name":"ERC20InvalidSpender","type":"error"},{"inputs":[],"name":"ERC20NotCustodian","type":"error"},{"inputs":[{"internalType":"uint256","name":"deadline","type":"uint256"}],"name":"ERC2612ExpiredSignature","type":"error"},{"inputs":[{"internalType":"address","name":"signer","type":"address"},{"internalType":"address","name":"owner","type":"address"}],"name":"ERC2612InvalidSigner","type":"error"},{"inputs":[{"internalType":"uint256","name":"timepoint","type":"uint256"},{"internalType":"uint48","name":"clock","type":"uint48"}],"name":"ERC5805FutureLookup","type":"error"},{"inputs":[],"name":"ERC6372InconsistentClock","type":"error"},{"inputs":[],"name":"EnforcedPause","type":"error"},{"inputs":[],"name":"ExpectedPause","type":"error"},{"inputs":[{"internalType":"address","name":"account","type":"address"},{"internalType":"uint256","name":"currentNonce","type":"uint256"}],"name":"InvalidAccountNonce","type":"error"},{"inputs":[],"name":"InvalidShortString","type":"error"},{"inputs":[{"internalType":"uint8","name":"bits","type":"uint8"},{"internalType":"uint256","name":"value","type":"uint256"}],"name":"SafeCastOverflowedUintDowncast","type":"error"},{"inputs":[{"internalType":"string","name":"str","type":"string"}],"name":"StringTooLong","type":"error"},{"inputs":[{"internalType":"uint256","name":"expiry","type":"uint256"}],"name":"VotesExpiredSignature","type":"error"},{"anonymous":false,"inputs":[{"indexed":true,"internalType":"address","name":"owner","type":"address"},{"indexed":true,"internalType":"address","name":"spender","type":"address"},{"indexed":false,"internalType":"uint256","name":"value","type":"uint256"}],"name":"Approval","type":"event"},{"anonymous":false,"inputs":[{"indexed":true,"internalType":"address","name":"delegator","type":"address"},{"indexed":true,"internalType":"address","name":"fromDelegate","type":"address"},{"indexed":true,"internalType":"address","name":"toDelegate","type":"address"}],"name":"DelegateChanged","type":"event"},{"anonymous":false,"inputs":[{"indexed":true,"internalType":"address","name":"delegate","type":"address"},{"indexed":false,"internalType":"uint256","name":"previousVotes","type":"uint256"},{"indexed":false,"internalType":"uint256","name":"newVotes","type":"uint256"}],"name":"DelegateVotesChanged","type":"event"},{"anonymous":false,"inputs":[],"name":"EIP712DomainChanged","type":"event"},{"anonymous":false,"inputs":[{"indexed":false,"internalType":"address","name":"account","type":"address"}],"name":"Paused","type":"event"},{"anonymous":false,"inputs":[{"indexed":true,"internalType":"bytes32","name":"role","type":"bytes32"},{"indexed":true,"internalType":"bytes32","name":"previousAdminRole","type":"bytes32"},{"indexed":true,"internalType":"bytes32","name":"newAdminRole","type":"bytes32"}],"name":"RoleAdminChanged","type":"event"},{"anonymous":false,"inputs":[{"indexed":true,"internalType":"bytes32","name":"role","type":"bytes32"},{"indexed":true,"internalType":"address","name":"account","type":"address"},{"indexed":true,"internalType":"address","name":"sender","type":"address"}],"name":"RoleGranted","type":"event"},{"anonymous":false,"inputs":[{"indexed":true,"internalType":"bytes32","name":"role","type":"bytes32"},{"indexed":true,"internalType":"address","name":"account","type":"address"},{"indexed":true,"internalType":"address","name":"sender","type":"address"}],"name":"RoleRevoked","type":"event"},{"anonymous":false,"inputs":[{"indexed":true,"internalType":"address","name":"user","type":"address"},{"indexed":false,"internalType":"uint256","name":"amount","type":"uint256"}],"name":"TokensFrozen","type":"event"},{"anonymous":false,"inputs":[{"indexed":true,"internalType":"address","name":"to","type":"address"},{"indexed":false,"internalType":"uint256","name":"amount","type":"uint256"},{"indexed":false,"internalType":"uint256","name":"totalSupply","type":"uint256"}],"name":"TokensMinted","type":"event"},{"anonymous":false,"inputs":[{"indexed":true,"internalType":"address","name":"user","type":"address"},{"indexed":false,"internalType":"uint256","name":"amount","type":"uint256"}],"name":"TokensUnfrozen","type":"event"},{"anonymous":false,"inputs":[{"indexed":true,"internalType":"address","name":"from","type":"address"},{"indexed":true,"internalType":"address","name":"to","type":"address"},{"indexed":false,"internalType":"uint256","name":"value","type":"uint256"}],"name":"Transfer","type":"event"},{"anonymous":false,"inputs":[{"indexed":false,"internalType":"address","name":"account","type":"address"}],"name":"Unpaused","type":"event"},{"anonymous":false,"inputs":[{"indexed":true,"internalType":"address","name":"user","type":"address"}],"name":"UserBlocked","type":"event"},{"anonymous":false,"inputs":[{"indexed":true,"internalType":"address","name":"user","type":"address"}],"name":"UserUnblocked","type":"event"},{"inputs":[],"name":"CLOCK_MODE","outputs":[{"internalType":"string","name":"","type":"string"}],"stateMutability":"view","type":"function"},{"inputs":[],"name":"CUSTODIAN_ROLE","outputs":[{"internalType":"bytes32","name":"","type":"bytes32"}],"stateMutability":"view","type":"function"},{"inputs":[],"name":"DEFAULT_ADMIN_ROLE","outputs":[{"internalType":"bytes32","name":"","type":"bytes32"}],"stateMutability":"view","type":"function"},{"inputs":[],"name":"DOMAIN_SEPARATOR","outputs":[{"internalType":"bytes32","name":"","type":"bytes32"}],"stateMutability":"view","type":"function"},{"inputs":[],"name":"LIMITER_ROLE","outputs":[{"internalType":"bytes32","name":"","type":"bytes32"}],"stateMutability":"view","type":"function"},{"inputs":[],"name":"MAX_SUPPLY","outputs":[{"internalType":"uint256","name":"","type":"uint256"}],"stateMutability":"view","type":"function"},{"inputs":[],"name":"MINTER_ROLE","outputs":[{"internalType":"bytes32","name":"","type":"bytes32"}],"stateMutability":"view","type":"function"},{"inputs":[],"name":"PAUSER_ROLE","outputs":[{"internalType":"bytes32","name":"","type":"bytes32"}],"stateMutability":"view","type":"function"},{"inputs":[{"internalType":"address","name":"owner","type":"address"},{"internalType":"address","name":"spender","type":"address"}],"name":"allowance","outputs":[{"internalType":"uint256","name":"","type":"uint256"}],"stateMutability":"view","type":"function"},{"inputs":[{"internalType":"address","name":"spender","type":"address"},{"internalType":"uint256","name":"value","type":"uint256"}],"name":"approve","outputs":[{"internalType":"bool","name":"","type":"bool"}],"stateMutability":"nonpayable","type":"function"},{"inputs":[{"internalType":"address","name":"account","type":"address"}],"name":"availableBalance","outputs":[{"internalType":"uint256","name":"available","type":"uint256"}],"stateMutability":"view","type":"function"},{"inputs":[{"internalType":"address","name":"account","type":"address"}],"name":"balanceOf","outputs":[{"internalType":"uint256","name":"","type":"uint256"}],"stateMutability":"view","type":"function"},{"inputs":[{"internalType":"address","name":"user","type":"address"}],"name":"blockUser","outputs":[],"stateMutability":"nonpayable","type":"function"},{"inputs":[{"internalType":"address","name":"account","type":"address"}],"name":"blocked","outputs":[{"internalType":"bool","name":"","type":"bool"}],"stateMutability":"nonpayable","type":"function"},{"inputs":[{"internalType":"uint256","name":"value","type":"uint256"}],"name":"burn","outputs":[],"stateMutability":"nonpayable","type":"function"},{"inputs":[{"internalType":"address","name":"account","type":"address"},{"internalType":"uint256","name":"value","type":"uint256"}],"name":"burnFrom","outputs":[],"stateMutability":"nonpayable","type":"function"},{"inputs":[{"internalType":"address","name":"account","type":"address"},{"internalType":"uint32","name":"pos","type":"uint32"}],"name":"checkpoints","outputs":[{"components":[{"internalType":"uint48","name":"_key","type":"uint48"},{"internalType":"uint208","name":"_value","type":"uint208"}],"internalType":"struct Checkpoints.Checkpoint208","name":"","type":"tuple"}],"stateMutability":"view","type":"function"},{"inputs":[],"name":"clock","outputs":[{"internalType":"uint48","name":"","type":"uint48"}],"stateMutability":"view","type":"function"},{"inputs":[],"name":"decimals","outputs":[{"internalType":"uint8","name":"","type":"uint8"}],"stateMutability":"view","type":"function"},{"inputs":[{"internalType":"address","name":"delegatee","type":"address"}],"name":"delegate","outputs":[],"stateMutability":"nonpayable","type":"function"},{"inputs":[{"internalType":"address","name":"delegatee","type":"address"},{"internalType":"uint256","name":"nonce","type":"uint256"},{"internalType":"uint256","name":"expiry","type":"uint256"},{"internalType":"uint8","name":"v","type":"uint8"},{"internalType":"bytes32","name":"r","type":"bytes32"},{"internalType":"bytes32","name":"s","type":"bytes32"}],"name":"delegateBySig","outputs":[],"stateMutability":"nonpayable","type":"function"},{"inputs":[{"internalType":"address","name":"account","type":"address"}],"name":"delegates","outputs":[{"internalType":"address","name":"","type":"address"}],"stateMutability":"view","type":"function"},{"inputs":[],"name":"eip712Domain","outputs":[{"internalType":"bytes1","name":"fields","type":"bytes1"},{"internalType":"string","name":"name","type":"string"},{"internalType":"string","name":"version","type":"string"},{"internalType":"uint256","name":"chainId","type":"uint256"},{"internalType":"address","name":"verifyingContract","type":"address"},{"internalType":"bytes32","name":"salt","type":"bytes32"},{"internalType":"uint256[]","name":"extensions","type":"uint256[]"}],"stateMutability":"view","type":"function"},{"inputs":[{"internalType":"address","name":"user","type":"address"},{"internalType":"uint256","name":"amount","type":"uint256"}],"name":"freeze","outputs":[],"stateMutability":"nonpayable","type":"function"},{"inputs":[{"internalType":"address","name":"user","type":"address"}],"name":"frozen","outputs":[{"internalType":"uint256","name":"","type":"uint256"}],"stateMutability":"view","type":"function"},{"inputs":[{"internalType":"uint256","name":"timepoint","type":"uint256"}],"name":"getPastTotalSupply","outputs":[{"internalType":"uint256","name":"","type":"uint256"}],"stateMutability":"view","type":"function"},{"inputs":[{"internalType":"address","name":"account","type":"address"},{"internalType":"uint256","name":"timepoint","type":"uint256"}],"name":"getPastVotes","outputs":[{"internalType":"uint256","name":"","type":"uint256"}],"stateMutability":"view","type":"function"},{"inputs":[{"internalType":"bytes32","name":"role","type":"bytes32"}],"name":"getRoleAdmin","outputs":[{"internalType":"bytes32","name":"","type":"bytes32"}],"stateMutability":"view","type":"function"},{"inputs":[{"internalType":"address","name":"account","type":"address"}],"name":"getVotes","outputs":[{"internalType":"uint256","name":"","type":"uint256"}],"stateMutability":"view","type":"function"},{"inputs":[{"internalType":"bytes32","name":"role","type":"bytes32"},{"internalType":"address","name":"account","type":"address"}],"name":"grantRole","outputs":[],"stateMutability":"nonpayable","type":"function"},{"inputs":[{"internalType":"bytes32","name":"role","type":"bytes32"},{"internalType":"address","name":"account","type":"address"}],"name":"hasRole","outputs":[{"internalType":"bool","name":"","type":"bool"}],"stateMutability":"view","type":"function"},{"inputs":[{"internalType":"address","name":"to","type":"address"},{"internalType":"uint256","name":"amount","type":"uint256"}],"name":"mint","outputs":[],"stateMutability":"nonpayable","type":"function"},{"inputs":[],"name":"name","outputs":[{"internalType":"string","name":"","type":"string"}],"stateMutability":"view","type":"function"},{"inputs":[{"internalType":"address","name":"owner","type":"address"}],"name":"nonces","outputs":[{"internalType":"uint256","name":"","type":"uint256"}],"stateMutability":"view","type":"function"},{"inputs":[{"internalType":"address","name":"account","type":"address"}],"name":"numCheckpoints","outputs":[{"internalType":"uint32","name":"","type":"uint32"}],"stateMutability":"view","type":"function"},{"inputs":[],"name":"pause","outputs":[],"stateMutability":"nonpayable","type":"function"},{"inputs":[],"name":"paused","outputs":[{"internalType":"bool","name":"","type":"bool"}],"stateMutability":"view","type":"function"},{"inputs":[{"internalType":"address","name":"owner","type":"address"},{"internalType":"address","name":"spender","type":"address"},{"internalType":"uint256","name":"value","type":"uint256"},{"internalType":"uint256","name":"deadline","type":"uint256"},{"internalType":"uint8","name":"v","type":"uint8"},{"internalType":"bytes32","name":"r","type":"bytes32"},{"internalType":"bytes32","name":"s","type":"bytes32"}],"name":"permit","outputs":[],"stateMutability":"nonpayable","type":"function"},{"inputs":[],"name":"remainingSupply","outputs":[{"internalType":"uint256","name":"","type":"uint256"}],"stateMutability":"view","type":"function"},{"inputs":[{"internalType":"bytes32","name":"role","type":"bytes32"},{"internalType":"address","name":"callerConfirmation","type":"address"}],"name":"renounceRole","outputs":[],"stateMutability":"nonpayable","type":"function"},{"inputs":[{"internalType":"bytes32","name":"role","type":"bytes32"},{"internalType":"address","name":"account","type":"address"}],"name":"revokeRole","outputs":[],"stateMutability":"nonpayable","type":"function"},{"inputs":[{"internalType":"bytes4","name":"interfaceId","type":"bytes4"}],"name":"supportsInterface","outputs":[{"internalType":"bool","name":"","type":"bool"}],"stateMutability":"view","type":"function"},{"inputs":[],"name":"symbol","outputs":[{"internalType":"string","name":"","type":"string"}],"stateMutability":"view","type":"function"},{"inputs":[],"name":"totalSupply","outputs":[{"internalType":"uint256","name":"","type":"uint256"}],"stateMutability":"view","type":"function"},{"inputs":[{"internalType":"address","name":"to","type":"address"},{"internalType":"uint256","name":"value","type":"uint256"}],"name":"transfer","outputs":[{"internalType":"bool","name":"","type":"bool"}],"stateMutability":"nonpayable","type":"function"},{"inputs":[{"internalType":"address","name":"from","type":"address"},{"internalType":"address","name":"to","type":"address"},{"internalType":"uint256","name":"value","type":"uint256"}],"name":"transferFrom","outputs":[{"internalType":"bool","name":"","type":"bool"}],"stateMutability":"nonpayable","type":"function"},{"inputs":[{"internalType":"address","name":"user","type":"address"}],"name":"unblockUser","outputs":[],"stateMutability":"nonpayable","type":"function"},{"inputs":[{"internalType":"address","name":"user","type":"address"},{"internalType":"uint256","name":"amount","type":"uint256"}],"name":"unfreeze","outputs":[],"stateMutability":"nonpayable","type":"function"},{"inputs":[],"name":"unpause","outputs":[],"stateMutability":"nonpayable","type":"function"}],"evm":{"bytecode":{"linkReferences":{},"object":"61016060405234620000775762000023620000196200015a565b9392909262000244565b60405161358e620016fa823960805181611d84015260a05181611db1015260c05181611d49015260e05181612491015261010051816124700152610120518161225701526101405181612284015261358e90f35b600080fd5b634e487b7160e01b600052604160045260246000fd5b90601f01601f191681019081106001600160401b03821117620000b457604052565b6200007c565b90620000d1620000c960405190565b928362000092565b565b6001600160a01b031690565b90565b6001600160a01b038116036200007757565b90505190620000d182620000e2565b919060a08382031262000077576200011c8184620000f4565b926200012c8260208301620000f4565b92620000df620001408460408501620000f4565b936080620001528260608701620000f4565b9401620000f4565b6200017d62004cc8803803806200017181620000ba565b92833981019062000103565b9091929394565b6001600160401b038111620000b457602090601f01601f19160190565b0190565b90620001bb620001b58362000184565b620000ba565b918252565b620001cc6004620001a5565b630555356560e41b602082015290565b620000df620001c0565b620000df620000df620000df9290565b620000df6000620001e6565b634e487b7160e01b600052601160045260246000fd5b60ff16604d81116200022a57600a0a90565b62000202565b818102929181159184041417156200022a57565b6200030e92620002be6200033696959362000296620002e694620002866200026b620001dc565b62000275620001dc565b6200027f620001dc565b916200036f565b62000290620001f6565b6200071d565b507f65d7a28e3265b37a6474929f336521b332c1681b933f6cb9f3376673440d862a6200071d565b507f9f2df0fed2c77648de5860a4cc508cd0818c85b8b8a1ab4ceeef8d981c8956a66200071d565b507ff7b34cf87af24ce01c1aff9f518b133989851466d994e0016fc14651fa02826c6200071d565b507fe28434228950b641dbbc0178de89daa359a87c6ee0d8399aeace52a98fe902b96200071d565b50620000d162000368620003536200034d620007cf565b62000218565b62000362630bebc200620001e6565b62000230565b33620007fa565b620000d19283928392839283929091620003a7565b620003906001620001a5565b603160f81b602082015290565b620000df62000384565b90620000d19291620003b86200039d565b620000d1939291620003f1565b620000df90620000d3906001600160a01b031682565b620000df90620003c5565b620000df90620003db565b6200040662000446946200042b939462000479565b6200041360098262000872565b6101205262000424600a8462000872565b6101405290565b6200043f62000438825190565b9160200190565b2060e05290565b6200045362000438825190565b20610100524660a052620004666200090b565b6080526200047430620003e6565b60c052565b620000d1918291829182918291829182918291829190620004c3565b9060ff905b9181191691161790565b90620004b7620000df620004bf92151590565b825462000495565b9055565b90620004cf91620004dd565b620000d160006005620004a4565b90620000d191620006e7565b634e487b7160e01b600052600060045260246000fd5b634e487b7160e01b600052602260045260246000fd5b906001600283049216801562000538575b60208310146200053257565b620004ff565b91607f169162000526565b9160001960089290920291821b911b6200049a565b91906200056d620000df620004bf93620001e6565b90835462000543565b620000d19160009162000558565b81811062000590575050565b80620005a0600060019362000576565b0162000584565b9190601f8111620005b757505050565b620005cb620000d193600052602060002090565b906020601f840181900483019310620005ef575b6020601f90910104019062000584565b9091508190620005df565b9062000604815190565b906001600160401b038211620000b4576200062c8262000625855462000515565b85620005a7565b602090601f83116001146200066b57620004bf9291600091836200065f575b5050600019600883021c1916906002021790565b0151905038806200064b565b601f198316916200068185600052602060002090565b9260005b818110620006c257509160029391856001969410620006a8575b50505002019055565b01516000196008601f8516021c191690553880806200069f565b9193602060018192878701518155019501920162000685565b90620000d191620005fa565b90620006f9620000d1926003620006db565b6004620006db565b905b600052602052604060002090565b906200070390620003e6565b620007316200072d838362000997565b1590565b15620007b2576200075e6001620007588460006200075186600662000701565b0162000711565b620004a4565b6200077d620007766200076f339390565b93620003e6565b91620003e6565b917f2f8788117e7eff1d82e926ec794901d17c78024a50270940304540a733656f0d620007a960405190565b600090a4600190565b5050600090565b620007c9620000df620000df9290565b60ff1690565b620000df6012620007b9565b620000d3620000df620000df9290565b620000df90620007db565b9052565b9190620008086000620007eb565b926001600160a01b0384166001600160a01b038216146200082f57620000d19293620009bf565b62000862846200083e60405190565b63ec442f0560e01b8152918291600483016001600160a01b03909116815260200190565b0390fd5b620000df60ff620001e6565b805162000888620008846020620001e6565b9190565b10156200089b57620000df915062000a89565b6000620008a9620008b09390565b01620006db565b620000df620000df62000866565b90959492620000d194620008f5620008fc92620008ee608096620008e760a088019c6000890152565b6020870152565b6040850152565b6060830152565b01906001600160a01b03169052565b7f8b73c3c69bb8fe3d512ecc4cf759cc79239f7b179b0ffacaa9a75d522b39400f6200096f6200093a60e05190565b6101005190620009626200094e30620003e6565b6040519586946020860194469286620008be565b9081038252038262000092565b6200097c62000438825190565b2090565b620000df90620007c9565b620000df905462000980565b620000df91600062000751620009b993620009b0600090565b50600662000701565b6200098b565b90620000d1929162000b16565b60005b838110620009e05750506000910152565b8181015183820152602001620009cf565b62000a1662000a20602093620001a19362000a0a815190565b80835293849260200190565b95869101620009cc565b601f01601f191690565b6020808252620000df92910190620009f1565b62000a5962000a5562000a4e835190565b9260200190565b5190565b906020811062000a67575090565b62000a7a90600019906020036008021b90565b1690565b620000df90620001e6565b8062000a93825190565b62000aa362000884601f620001e6565b1162000ad85750620000df8162000ad162000acc62000ac6620000df9562000a3d565b62000a7e565b915190565b17620001e6565b620008629062000ae760405190565b63305a27a960e01b81529182916004830162000a2a565b908152604081019291620000d19160200152565b0152565b92919062000b2682828662000ba1565b62000b36620000d36000620007eb565b6001600160a01b0385161462000b53575b620000d1929362000c64565b62000b5d62000c33565b9362000b6862000c52565b9485811162000b7a5750935062000b47565b85906200086262000b8a60405190565b630e58ae9360e11b81529283926004840162000afe565b92919062000bb4620000d36000620007eb565b6001600160a01b03851614158062000c0b575b62000bd857620000d1929362000d49565b620008628462000be760405190565b6314884b4960e01b8152918291600483016001600160a01b03909116815260200190565b5062000c178462000d27565b821162000bc7565b620000df9081565b620000df905462000c1f565b620000df600262000c27565b620000df9081906001600160d01b031681565b620000df6001600160d01b0362000c3f565b9062000cc662000cbf620000d1949362000ca962000c836000620007eb565b6001600160a01b0381166001600160a01b0384161462000cf1576001600160a01b031690565b6001600160a01b0385161462000ccd5762000f0f565b9162000f0f565b9062000f30565b62000ce962000cdc8662000e3c565b600e5b60025b9062000e88565b505062000f0f565b62000d0b62000d008862000e3c565b600e5b600162000ce2565b50506001600160a01b031690565b919082039182116200022a57565b620000df9062000d4262000d3b826200107e565b916200109f565b9062000d19565b9291909262000d5881620010ba565b62000dad5762000d6884620010ba565b62000d7a5792620000d19293620010f3565b620008628462000d8960405190565b635ff1c9b960e11b8152918291600483016001600160a01b03909116815260200190565b620008629062000d8960405190565b62000dd8906001600160d01b03165b916001600160d01b031690565b01906001600160d01b0382116200022a57565b620000df919062000dbc565b620007f690620007b9565b916020620000d192949362000b126040820196600083019062000df7565b62000e30620000df620000df9290565b6001600160d01b031690565b62000e4e6001600160d01b0362000c3f565b811162000e6057620000df9062000e20565b620008629062000e6f60405190565b6306dfcc6560e41b815291829160d06004840162000e02565b9062000eb962000ec09362000e9b600090565b5062000ea662001100565b9262000eb28562001124565b90620016ce565b916200117d565b9091565b62000ed8906001600160d01b031662000dcb565b9003906001600160d01b0382116200022a57565b620000df919062000ec4565b620000df90620000d3565b620000df905462000ef8565b62000f2a620000df9162000f21600090565b50600c62000711565b62000f03565b9091906001600160a01b0383166001600160a01b03821614158062001069575b62000f5a57505050565b62000f949062000f6b6000620007eb565b906001600160a01b0382166001600160a01b0382160362001013575b506001600160a01b031690565b6001600160a01b0383160362000fa8575050565b8162000ff56200077662000fe660008051602062004ca88339815191529462000d036200088462000fdf62000fee99600d62000711565b9262000e3c565b959062000c3f565b9462000c3f565b926200100e6200100460405190565b9283928362000afe565b0390a2565b60008051602062004ca883398151915281620010506200077662000fe66200104162000fee96600d62000711565b62000cdf620008848b62000e3c565b926200105f6200100460405190565b0390a23862000f87565b50620010766000620001e6565b821162000f50565b62001099620000df9162001090600090565b50600062000711565b62000c27565b62001099620000df91620010b1600090565b50600862000711565b620009b9620000df91620010cc600090565b50600762000711565b90620000d19291620010e66200119e565b90620000d192916200121f565b90620000d19291620010d5565b620000df62001389565b620000df9060301c62000e30565b620000df90546200110a565b8054906000906200113582620001e6565b8303620011495750620000df915062000e20565b620000df926200116a62000884846200117694019262000d426001620001e6565b60005260206000200190565b0162001118565b9062001198600062000ec0949362001193600090565b500190565b62001514565b620011a862001639565b620011af57565b60405163d93c066560e01b8152600490fd5b6001600160a01b039091168152606081019392620000d192909160409162000b12906020830152565b90600019906200049a565b9062001209620000df620004bf92620001e6565b8254620011ea565b919082018092116200022a57565b8160006200122d81620007eb565b6001600160a01b0381166001600160a01b03851603620013035760008051602062004c8883398151915293620012d793620012bf936200128e6200076f94620000d3620012868c62001280600262000c27565b62001211565b6002620011f5565b6001600160a01b03831603620012dc575050620012b96200128688620012b5600262000c27565b0390565b620003e6565b93620012ca60405190565b9182918290815260200190565b0390a3565b620012b991620012ec9162000711565b620012fc89620001a18362000c27565b90620011f5565b9091506200131662001099848462000711565b858110620013625760008051602062004c888339815191529385620012d7946200128e620012bf95620000d3620013508c6200076f980390565b6200135c878662000711565b620011f5565b8362000862876200137260405190565b63391434e360e21b815293849360048501620011c1565b620000df436200166d565b620000df6040620000ba565b634e487b7160e01b600052603260045260246000fd5b8054821015620013db57620013d2600191600052602060002090565b91020190600090565b620013a0565b9065ffffffffffff906200049a565b62001408620000df620000df9265ffffffffffff1690565b65ffffffffffff1690565b9062001427620000df620004bf92620013f0565b8254620013e1565b9065ffffffffffff199060301b6200049a565b620000df9062000e30906001600160d01b031682565b906200146c620000df620004bf9262001442565b82546200142f565b620000d191620014ab906020906200149d62001496825165ffffffffffff1690565b8562001413565b01516001600160d01b031690565b9062001458565b9190620014c457620000d19162001474565b620004e9565b9081549168010000000000000000831015620000b45782620014f6916001620000d195018155620013b6565b90620014b2565b620000df9062001408565b620000df9054620014fd565b9192919081546000906200152882620001e6565b811115620015f4576200155362001546839262000d426001620001e6565b8560005260206000200190565b016200155f8162001508565b916200156b8262001118565b9465ffffffffffff851665ffffffffffff851611620015e257879365ffffffffffff868116911603620015a657505062000884925062001458565b91509150620015cd6200088493620015bd62001394565b9384019065ffffffffffff169052565b6001600160d01b0386166020830152620014ca565b604051632520601d60e01b8152600490fd5b5090620016339062000884936200161e6200160e62001394565b65ffffffffffff90931685840152565b6001600160d01b0387166020830152620014ca565b62000e20565b620000df60056200098b565b620000df620000df620000df9265ffffffffffff1690565b62001408620000df620000df9290565b6200167e65ffffffffffff62001645565b81116200169057620000df906200165d565b62000862906200169f60405190565b6306dfcc6560e41b815291829160306004840162000e02565b634e487b7160e01b600052605160045260246000fd5b91909180600114620016ed57600203620016b857620000df9162000eec565b50620000df9162000deb56fe6080604052600436101561001257600080fd5b60003560e01c806301ffc9a71461032257806306fdde031461031d578063095ea7b31461031857806318160ddd1461031357806323b872dd1461030e578063248a9ca31461030957806324bce60c146103045780632f2ff15d146102ff578063313ce567146102fa57806332cb6b0c146102f55780633644e515146102f057806336568abe146102eb57806339d319e5146102e65780633a46b1a8146102e15780633da01325146102dc5780633f4ba83a146102d757806340c10f19146102d257806342966c68146102cd5780634bf5d7e9146102c8578063587cde1e146102c35780635c19a95c146102be5780635c975abb146102b95780636fcfff45146102b457806370a08231146102af57806379cc6790146102aa5780637b46b80b146102a55780637ecebe00146102a05780638456cb591461029b57806384b0196e146102965780638e539e8c1461029157806391d148541461028c57806391ddadf41461028757806395d89b41146102825780639ab24eb01461027d578063a0821be314610278578063a217fddf14610273578063a9059cbb1461026e578063b3de421414610269578063c3cda52014610264578063c79445d01461025f578063d05166501461025a578063d505accf14610255578063d539139314610250578063d547741f1461024b578063da0239a614610246578063dd62ed3e14610241578063e59621951461023c578063e63ab1e9146102375763f1127ed80361032757610d30565b610c90565b610c75565b610c59565b610c22565b610c09565b610bd0565b610bb1565b610b37565b610afe565b610adf565b610a3d565b610a21565b610a06565b6109d9565b6109be565b6109a3565b61096f565b610953565b610938565b610904565b61081a565b6107ff565b6107e6565b6107cd565b6107b2565b610780565b610765565b61074d565b610718565b6106fd565b6106e5565b6106cc565b6106b4565b61069c565b610680565b610668565b61063b565b610620565b610605565b6105ac565b610593565b610552565b610537565b610507565b6104b2565b610496565b610411565b610369565b600080fd5b6001600160e01b031981165b0361032757565b9050359061034c8261032c565b565b90602082820312610327576103629161033f565b90565b9052565b346103275761039661038461037f36600461034e565b610dd9565b60405191829182901515815260200190565b0390f35b600091031261032757565b60005b8381106103b85750506000910152565b81810151838201526020016103a8565b6103e96103f26020936103fc936103dd815190565b80835293849260200190565b958691016103a5565b601f01601f191690565b0190565b6020808252610362929101906103c8565b346103275761042136600461039a565b61039661042c610f48565b60405191829182610400565b6001600160a01b031690565b6001600160a01b038116610338565b9050359061034c82610444565b80610338565b9050359061034c82610460565b91906040838203126103275761036290602061048f8286610453565b9401610466565b34610327576103966103846104ac366004610473565b90610f52565b34610327576104c236600461039a565b6103966104cd610f73565b6040515b9182918290815260200190565b9091606082840312610327576103626104f78484610453565b93604061048f8260208701610453565b346103275761039661038461051d3660046104de565b91610f7d565b906020828203126103275761036291610466565b34610327576103966104cd61054d366004610523565b610fa4565b346103275761056b610565366004610473565b90611130565b604051005b91906040838203126103275761036290602061058c8286610466565b9401610453565b346103275761056b6105a6366004610570565b9061115d565b34610327576105bc36600461039a565b6103966105c761117a565b6040519182918260ff909116815260200190565b6103626103626103629290565b6103626b033b2e3c9fd0803ce80000006105db565b6103626105e8565b346103275761061536600461039a565b6103966104cd6105fd565b346103275761063036600461039a565b6103966104cd611184565b346103275761056b61064e366004610570565b9061118c565b906020828203126103275761036291610453565b346103275761056b61067b366004610654565b6111f6565b34610327576103966104cd610696366004610473565b90611226565b346103275761056b6106af366004610654565b6112d4565b34610327576106c436600461039a565b61056b611311565b346103275761056b6106df366004610473565b90611438565b346103275761056b6106f8366004610523565b611442565b346103275761070d36600461039a565b61039661042c6114d4565b346103275761039661073361072e366004610654565b611533565b604051918291826001600160a01b03909116815260200190565b346103275761056b610760366004610654565b61154f565b346103275761077536600461039a565b610396610384611571565b346103275761039661079b610796366004610654565b61157b565b6040519182918263ffffffff909116815260200190565b34610327576103966104cd6107c8366004610654565b611584565b346103275761056b6107e0366004610473565b906115a0565b346103275761056b6107f9366004610473565b90611673565b34610327576103966104cd610815366004610654565b61167d565b346103275761082a36600461039a565b61056b6116ba565b9061085261084b610841845190565b8084529260200190565b9260200190565b9060005b8181106108635750505090565b9091926108806108796001928651815260200190565b9460200190565b929101610856565b939591946108e06108d86108f7956108ca6108f0956103629c9a6108bd60e08c019260008d01906001600160f81b0319169052565b8a820360208c01526103c8565b9088820360408a01526103c8565b976060870152565b6001600160a01b03166080850152565b60a0830152565b60c0818403910152610832565b346103275761091436600461039a565b61039661091f61170f565b9361092f97959793919360405190565b97889788610888565b34610327576103966104cd61094e366004610523565b611755565b3461032757610396610384610969366004610570565b9061178d565b346103275761097f36600461039a565b61039661098a6117ad565b6040519182918265ffffffffffff909116815260200190565b34610327576109b336600461039a565b61039661042c6117b5565b34610327576103966104cd6109d4366004610654565b6117bf565b34610327576103966104cd6109ef366004610654565b6117e1565b61036260006105db565b6103626109f4565b3461032757610a1636600461039a565b6103966104cd6109fe565b3461032757610396610384610a37366004610473565b906117fd565b3461032757610a4d36600461039a565b6103967ff7b34cf87af24ce01c1aff9f518b133989851466d994e0016fc14651fa02826c6104cd565b60ff8116610338565b9050359061034c82610a76565b909160c08284031261032757610aa28383610453565b92610ab08160208501610466565b92610abe8260408301610466565b92610362610acf8460608501610a7f565b9360a061048f8260808701610466565b346103275761056b610af2366004610a8c565b9493909392919261183e565b3461032757610b0e36600461039a565b6103967fe28434228950b641dbbc0178de89daa359a87c6ee0d8399aeace52a98fe902b96104cd565b34610327576103966104cd610b4d366004610654565b6118fb565b60e08183031261032757610b668282610453565b92610b748360208401610453565b92610b828160408501610466565b92610b908260608301610466565b92610362610ba18460808501610a7f565b9360c061048f8260a08701610466565b346103275761056b610bc4366004610b52565b95949094939193611992565b3461032757610be036600461039a565b6103967f9f2df0fed2c77648de5860a4cc508cd0818c85b8b8a1ab4ceeef8d981c8956a66104cd565b346103275761056b610c1c366004610570565b90611a8d565b3461032757610c3236600461039a565b6103966104cd611a97565b91906040838203126103275761036290602061058c8286610453565b34610327576103966104cd610c6f366004610c3d565b90611aaa565b3461032757610396610384610c8b366004610654565b611aca565b3461032757610ca036600461039a565b6103967f65d7a28e3265b37a6474929f336521b332c1681b933f6cb9f3376673440d862a6104cd565b63ffffffff8116610338565b9050359061034c82610cc9565b919060408382031261032757610362906020610cfe8286610453565b9401610cd5565b60408101929161034c9190805165ffffffffffff1682526020908101516001600160d01b0316910152565b3461032757610396610d4c610d46366004610ce2565b90611b09565b60405191829182610d05565b634e487b7160e01b600052601160045260246000fd5b610d89906001600160d01b03165b916001600160d01b031690565b01906001600160d01b038211610d9b57565b610d58565b6103629190610d6e565b610dbc906001600160d01b0316610d7c565b9003906001600160d01b038211610d9b57565b6103629190610daa565b637965db0b60e01b6001600160e01b0319821614908115610df8575090565b61036291506001600160e01b0319166301ffc9a760e01b1490565b634e487b7160e01b600052602260045260246000fd5b9060016002830492168015610e49575b6020831014610e4457565b610e13565b91607f1691610e39565b80546000939291610e70610e6683610e29565b8085529360200190565b9160018116908115610ec25750600114610e8957505050565b610e9c9192939450600052602060002090565b916000925b818410610eae5750500190565b805484840152602090930192600101610ea1565b92949550505060ff1916825215156020020190565b9061036291610e53565b634e487b7160e01b600052604160045260246000fd5b90601f01601f1916810190811067ffffffffffffffff821117610f1957604052565b610ee1565b9061034c610f3892610f2f60405190565b93848092610ed7565b0383610ef7565b61036290610f1e565b6103626003610f3f565b610f5d919033611b1c565b600190565b6103629081565b6103629054610f62565b6103626002610f69565b610f5d929190610f8f83335b83611b50565b611bb5565b905b600052602052604060002090565b6001610fbd61036292610fb5600090565b506006610f94565b01610f69565b90610fd4610fd033611c62565b1590565b610fe15761034c91611068565b60405163bb4be5f360e01b8152600490fd5b0390fd5b6104386103626103629290565b61036290610ff7565b61036290610438906001600160a01b031682565b6103629061100d565b61036290611021565b90610f969061102a565b90600019905b9181191691161790565b9061105d610362611064926105db565b825461103d565b9055565b6110756104386000611004565b6001600160a01b0382161461111e5761108d816117e1565b8290611098565b9190565b106110ed576110e86110de826110d9856110d47fa065e63c631c86f1b9f66a4a2f63f2093bf1c2168d23290259dbd969e0222a45966008611033565b61104d565b61102a565b926104d160405190565b0390a2565b610ff3906110fa60405190565b6314884b4960e01b8152918291600483016001600160a01b03909116815260200190565b60405163959d408b60e01b8152600490fd5b9061034c91610fc3565b9061034c9161115061114b82610fa4565b611c8c565b9061115a91611cb7565b50565b9061034c9161113a565b6111746103626103629290565b60ff1690565b6103626012611167565b610362611d33565b9061119633610438565b6001600160a01b038216036111ae5761115a91611dd7565b60405163334bd91960e11b8152600490fd5b61034c906111ed7ff7b34cf87af24ce01c1aff9f518b133989851466d994e0016fc14651fa02826c611c8c565b61115a90611e34565b61034c906111c0565b6103626103626103629265ffffffffffff1690565b6103629081906001600160d01b031681565b61122e6117ad565b611237816111ff565b83101561126857506103629161125d61125761036261126394600d611033565b91611ebd565b90611f3e565b611214565b82610ff361127560405190565b637669fc0f60e11b81529283926004840190815265ffffffffffff909116602082015260400190565b61034c906112cb7ff7b34cf87af24ce01c1aff9f518b133989851466d994e0016fc14651fa02826c611c8c565b61115a9061201d565b61034c9061129e565b6113067f65d7a28e3265b37a6474929f336521b332c1681b933f6cb9f3376673440d862a611c8c565b61034c61034c6120b5565b61034c6112dd565b61034c91906113477f9f2df0fed2c77648de5860a4cc508cd0818c85b8b8a1ab4ceeef8d981c8956a6611c8c565b6113bc565b91908201809211610d9b57565b1561136057565b60405162461bcd60e51b815260206004820152601960248201527f555356503a204d617820737570706c79206578636565646564000000000000006044820152606490fd5b90815260408101929161034c9160200152565b0152565b7f2e8ac5177a616f2aec08c3048f5021e4e9743ece034e8d83ba5caf76688bb475906114076113f2846113ed610f73565b61134c565b6114006110946103626105e8565b1115611359565b61141183826120bd565b61142261141c610f73565b9161102a565b926110e861142f60405190565b928392836113a5565b9061034c91611319565b61034c90336120fa565b6120fa565b9061034c61145e60405190565b9283610ef7565b67ffffffffffffffff8111610f1957602090601f01601f19160190565b9061149461148f83611465565b611451565b918252565b6114a3601d611482565b7f6d6f64653d626c6f636b6e756d6265722666726f6d3d64656661756c74000000602082015290565b610362611499565b6114dc6117ad565b6115016114f56114ea612138565b65ffffffffffff1690565b9165ffffffffffff1690565b0361150e576103626114cc565b6040516301bfc1c560e61b8152600490fd5b61036290610438565b6103629054611520565b61154a61036291611542600090565b50600c611033565b611529565b61034c9033612167565b612167565b61036290611174565b610362905461155e565b6103626005611567565b610362906121e1565b61159b61036291611593600090565b506000611033565b610f69565b61034c919061144c8233610f89565b906115bc610fd033611c62565b610fe15761034c916115d6565b91908203918211610d9b57565b6115e36104386000611004565b6001600160a01b0382161461111e576115fb816118fb565b828110611642576110de7f9bed35cb62ad0dba04f9d5bfee4b5bc91443e77da8a65c4c84834c51bb08b0d6926110d9611637866110e8956115c9565b6110d4836008611033565b610ff38261164f60405190565b63168ecf9160e31b8152918291600483016001600160a01b03909116815260200190565b9061034c916115af565b61036290612200565b6116af7f65d7a28e3265b37a6474929f336521b332c1681b933f6cb9f3376673440d862a611c8c565b61034c61034c61224a565b61034c611686565b67ffffffffffffffff8111610f195760208091020190565b9061149461148f836116c2565b369037565b9061034c6117026116fc846116da565b936116c2565b601f1901602084016116e7565b611717612252565b9061172061227f565b9061172a3061102a565b61173460006105db565b61174661174160006105db565b6116ec565b600f60f81b9594934693929190565b61175d6117ad565b611766816111ff565b82101561178057506112636103629161125d611257600e90565b90610ff361127560405190565b6103629160006117a26117a893610fb5600090565b01611033565b611567565b610362612138565b6103626004610f3f565b6112636117dc610362610362936117d4600090565b50600d611033565b6122aa565b610362906117f76117f182611584565b916118fb565b906115c9565b610f5d919033611bb5565b6113b861034c94611837606094989795611827608086019a6000870152565b6001600160a01b03166020850152565b6040830152565b919594919390928642116118d457916118cd91611559936118c8866118b08961034c9b9c6118a461188c7fe48329057bfd03d55e49b547132e39cffd9c1820ad7b9d4c5307691425d15adf90565b9161189660405190565b958694602086019485611808565b90810382520382610ef7565b6118c26118bb825190565b9160200190565b206122e5565b61230e565b918261234c565b610ff3876118e160405190565b632341d78760e11b81529182916004830190815260200190565b61159b6103629161190a600090565b506008611033565b91946119616113b89298979561195a60a09661194a61034c9a61193a60c08a019e60008b0152565b6001600160a01b03166020890152565b6001600160a01b03166040870152565b6060850152565b6080830152565b6001600160a01b03909116815260408101929161034c916020905b01906001600160a01b03169052565b9695929491949390936119a28190565b4211611a4b57906118c8856118b08a611a039796956118a46119e17f6e71edae12b1b97f4d1f60370fef10105fa2faae0126114a169c64845d6126c990565b916119eb84612383565b8d6119f560405190565b978896602088019687611912565b6001600160a01b0385166001600160a01b03821603611a27575061034c9293611b1c565b8490610ff3611a3560405190565b6325c0072360e11b815292839260048401611968565b610ff390611a5860405190565b63313c898160e11b81529182916004830190815260200190565b9061034c91611a8361114b82610fa4565b9061115a91611dd7565b9061034c91611a72565b610362611aa26105e8565b6117f7610f73565b61036291611ac561159b92611abd600090565b506001611033565b611033565b6117a861036291611ad9600090565b506007611033565b6103626040611451565b611af3611ae1565b906000825260006020830152565b610362611aeb565b9061036291611b16611b01565b506123aa565b9160019161034c936123c2565b6001600160a01b03909116815260608101939261034c9290916040916113b8906020830152565b91611b5b8284611aaa565b6000198103611b6b575b50505050565b818110611b915791611b82611b8894926000940390565b916123c2565b38808080611b65565b82610ff383611b9f60405190565b637dc7a0d960e11b815293849360048501611b29565b929190611bc26000611004565b936001600160a01b0385166001600160a01b03821614611c31576001600160a01b0385166001600160a01b03831614611c005761034c9394506123ce565b610ff385611c0d60405190565b63ec442f0560e01b8152918291600483016001600160a01b03909116815260200190565b610ff385611c3e60405190565b634b637e8f60e11b8152918291600483016001600160a01b03909116815260200190565b610362907fe28434228950b641dbbc0178de89daa359a87c6ee0d8399aeace52a98fe902b961178d565b61034c9033906123d9565b9060ff90611043565b90611cb061036261106492151590565b8254611c97565b611cc4610fd0838361178d565b15611d2c57611ce46001611cdf8460006117a2866006610f94565b611ca0565b611cf861141c611cf2339390565b9361102a565b917f2f8788117e7eff1d82e926ec794901d17c78024a50270940304540a733656f0d611d2360405190565b600090a4600190565b5050600090565b611d3c3061102a565b611d766001600160a01b037f000000000000000000000000000000000000000000000000000000000000000016916001600160a01b031690565b1480611dae575b15611da6577f000000000000000000000000000000000000000000000000000000000000000090565b61036261244a565b507f00000000000000000000000000000000000000000000000000000000000000004614611d7d565b611de1828261178d565b15611d2c57611dfb6000611cdf84826117a2866006610f94565b611e0961141c611cf2339390565b917ff6391f5c32d9c69d2a47ea670b442974b53935d1edc7fd64eb21e047a839171b611d2360405190565b611e3d81611aca565b9081611e47575090565b806110d96000611cdf611e5b946007611033565b7f798117ec059ab8d319461ef2502b1f9d8a47cd966bfd1f3e23b6f26c30bebb77611e8560405190565b600090a290565b61036590611167565b91602061034c9294936113b860408201966000830190611e8c565b6114ea6103626103629290565b611ecc65ffffffffffff6111ff565b8111611edb5761036290611eb0565b610ff390611ee860405190565b6306dfcc6560e41b8152918291603060048401611e95565b610362906114ea565b6103629054611f00565b6103629060301c5b6001600160d01b031690565b6103629054611f13565b611f1b6103626103629290565b8054611f6f90600092611f50846105db565b8483611f5c60056105db565b8111611fb1575b509091015b9485612786565b611f78826105db565b8103611f8957506103629150611f31565b61036292611f9e611fab926117f760016105db565b9060005260206000200190565b01611f27565b806117f7611fbe92612535565b611fdf6114ea83611fd9848883015b60005260206000200190565b01611f09565b65ffffffffffff89161015611ffe57611f6892939450935b9291611f63565b611f6892506120179061201160016105db565b9061134c565b92611ff7565b61202681611aca565b908115612031575090565b806110d96001611cdf612045946007611033565b7fca86d8c91ca6d00afd863578cc633a0901fad724592f89649629fe65f61410d2611e8560405190565b6120776127fc565b61034c61208660006005611ca0565b7f5db9ee0a495bf2e6ff9c91a7834c1ba4fdd244a5e8aa4e537bd38aeae4b073aa6120b033610733565b0390a1565b61034c61206f565b91906120c96000611004565b926001600160a01b0384166001600160a01b038216146120ed5761034c92936123ce565b610ff384611c0d60405190565b91906121066000611004565b926001600160a01b0384166001600160a01b0382161461212b579261034c92936123ce565b610ff384611c3e60405190565b61036243611ebd565b906001600160a01b0390611043565b906121606103626110649261102a565b8254612141565b61034c916121db61217783611533565b9261218c8361218783600c611033565b612150565b6121958161102a565b61219e8561102a565b6121a78561102a565b917f3134e8a2e6d97e929a7e54011ea5485d7d196dd5f0ba4d4ef95803e8e3fc257f6121d260405190565b600090a461281f565b91612828565b6121fb6121f6610362610362936117d4600090565b612969565b6129a6565b610362906129e7565b6122116129f6565b61034c61222060016005611ca0565b7f62e78cea01bee320cd4e420270b5ea74000d11b0c9f74754ebdbfc544b05a2586120b033610733565b61034c612209565b6103627f000000000000000000000000000000000000000000000000000000000000000060095b90612ab2565b6103627f0000000000000000000000000000000000000000000000000000000000000000600a612279565b8054906000906122b9826105db565b83036122ca57506103629150611f31565b61036292611fcd61109484611fab9401926117f760016105db565b610362906122f1611d33565b6042916040519161190160f01b8352600283015260228201522090565b91610362939161232693612320600090565b50612b19565b90929192612c14565b6001600160a01b03909116815260408101929161034c9160200152565b61235581612383565b91829003612361575050565b610ff361236d60405190565b6301d4b62360e61b81529283926004840161232f565b6123929060005b50600b611033565b61036261239e82610f69565b91600183015b9061104d565b906123bd610362610362936117d4611b01565b612d62565b9061034c939291612d81565b9061034c9291612dcd565b906123e7610fd0828461178d565b6123ef575050565b610ff36123fb60405190565b63e2517d3f60e01b81529283926004840161232f565b9095949261034c946124436119839261243c60809661243560a088019c6000890152565b6020870152565b6040850152565b6060830152565b7f8b73c3c69bb8fe3d512ecc4cf759cc79239f7b179b0ffacaa9a75d522b39400f6124cf7f00000000000000000000000000000000000000000000000000000000000000007f00000000000000000000000000000000000000000000000000000000000000006118a46124bc3061102a565b6040519586946020860194469286612411565b6124da6118bb825190565b2090565b610362906124f26110946103629460ff1690565b901c90565b6103629061250b6110946103629460ff1690565b901b90565b634e487b7160e01b600052601260045260246000fd5b8115612530570490565b612510565b6001612540816105db565b821115612782579061268d61268861036261268161264d61264d61267761265261264d61266d61264d61264d8c6103fc6103629f61264361264d61265c6126669361263361262d88612591846105db565b9061259f600160801b6105db565b8b101561275a575b6125b4600160401b6105db565b811015612738575b6125ca6401000000006105db565b811015612716575b6125de620100006105db565b8110156126f4575b6125f16101006105db565b8110156126d2575b61260360106105db565b8110156126aa575b61261861109460046105db565b1015612692575b61262960036105db565b0290565b91611167565b9e8f9c8d809b81978280966124de565b6103fc818d612526565b6124de565b6103fc818a612526565b6103fc8187612526565b8092612526565b6103fc818c612526565b6103fc8189612526565b8094612526565b821190565b900390565b6126a59061269f85611167565b906124f7565b61261f565b6126c16126cc916126bb6004611167565b906124de565b9161269f6002611167565b9061260b565b6126e36126ee916126bb6008611167565b9161269f6004611167565b906125f9565b612705612710916126bb6010611167565b9161269f6008611167565b906125e6565b612727612732916126bb6020611167565b9161269f6010611167565b906125d2565b612749612754916126bb6040611167565b9161269f6020611167565b906125bc565b5061277c61277161276b6080611167565b8c6124de565b9161269f6040611167565b906125a7565b5090565b93919092612792600090565b505b808210156127f4576127a68183612e47565b906127bd6000611fd9848960005260206000200190565b6127ce65ffffffffffff87166114f5565b11156127dd5750915b91612794565b9291506127ee9061201160016105db565b906127d7565b925050915090565b612807610fd0611571565b61280d57565b604051638dfc202b60e01b8152600490fd5b61036290611584565b9091906001600160a01b0383166001600160a01b038216141580612957575b61285057505050565b6128869061285e6000611004565b906001600160a01b0382166001600160a01b038216036128f5575b506001600160a01b031690565b6001600160a01b03831603612899575050565b8161142261141c6128e87fdec2bacdd2f05b59de34da9b523dff8be42e5e38e818c82fdb0bae774387a724946128df6110946128d96128ef99600d611033565b92612e6c565b60015b90612eb0565b9590611214565b94611214565b7fdec2bacdd2f05b59de34da9b523dff8be42e5e38e818c82fdb0bae774387a7248161294161141c6128e861292e6128ef96600d611033565b61293a6110948b612e6c565b60026128e2565b9261294e61142f60405190565b0390a238612879565b5061296260006105db565b8211612847565b600061036291612977600090565b50015490565b6103626103626103629263ffffffff1690565b61299d6103626103629290565b63ffffffff1690565b6129b363ffffffff61297d565b81116129c25761036290612990565b610ff3906129cf60405190565b6306dfcc6560e41b8152918291602060048401611e95565b61159b6103629161238a600090565b6129fe611571565b612a0457565b60405163d93c066560e01b8152600490fd5b61036260ff6105db565b80546000939291612a33610e6683610e29565b9160018116908115610ec25750600114612a4c57505050565b612a5f9192939450600052602060002090565b916000925b818410612a715750500190565b805484840152602090930192600101612a64565b9061036291612a20565b9061034c610f3892612aa060405190565b93848092612a85565b61036290612a8f565b9081612ac2611094610362612a16565b14612ad1575061036290612ef9565b6103629150612aa9565b610362906105db565b6113b861034c94611837606094989795612b03608086019a6000870152565b60ff166020850152565b6040513d6000823e3d90fd5b9091612b2484612adb565b612b506110947f7fffffffffffffffffffffffffffffff5d576e7357a4501ddfe92f46681b20a06105db565b11612bd15790612b7260209460009493612b6960405190565b94859485612ae4565b838052039060015afa15612bcc57600051600091612b8f83611004565b6001600160a01b0381166001600160a01b03841614612bb85750612bb2836105db565b91929190565b915091612bc4906105db565b909160019190565b612b0d565b505050612bde6000611004565b9160039190565b634e487b7160e01b600052602160045260246000fd5b60041115612c0557565b612be5565b9061034c82612bfb565b612c1e6000612c0a565b612c2782612c0a565b03612c30575050565b612c3a6001612c0a565b612c4382612c0a565b03612c5a5760405163f645eedf60e01b8152600490fd5b612c646002612c0a565b612c6d82612c0a565b03612c9b57610ff3612c7e83612adb565b60405163fce698f760e01b81529182916004830190815260200190565b612cae612ca86003612c0a565b91612c0a565b14612cb65750565b610ff390612cc360405190565b6335e2f38360e21b81529182916004830190815260200190565b634e487b7160e01b600052603260045260246000fd5b8054821015612d1657612d0d600191600052602060002090565b91020190600090565b612cdd565b9061034c612d496000612d2c611ae1565b94611fab612d3b838301611f09565b65ffffffffffff1687840152565b6001600160d01b03166020840152565b61036290612d1b565b610362916000612d7b92612d74611b01565b5001612cf3565b50612d59565b93929190612d8e85611aca565b612d9c5761034c9394612f20565b610ff385612da960405190565b635ff1c9b960e11b8152918291600483016001600160a01b03909116815260200190565b929190612ddb82828661301d565b612de86104386000611004565b6001600160a01b03851614612e02575b61034c929361307b565b612e0a610f73565b93612e1361306b565b94858111612e2357509350612df8565b8590610ff3612e3160405190565b630e58ae9360e11b8152928392600484016113a5565b61201161036292612e56600090565b508083169218612e6660026105db565b90612526565b612e7c6001600160d01b03611214565b8111612e8b5761036290611f31565b610ff390612e9860405190565b6306dfcc6560e41b815291829160d060048401611e95565b90612ed9612edf93612ec0600090565b50612ec96117ad565b92612ed3856122aa565b90613533565b91613114565b9091565b9061034c611702612ef384611482565b93611465565b612f0281613131565b90612f15612f1060206105db565b612ee3565b918252602082015290565b909192612f2d6000611004565b6001600160a01b0381166001600160a01b03841614612fec576001600160a01b0381166001600160a01b03851614612fbb5750612f73846110d485611ac5866001611033565b612f7c57505050565b612fb6612fac611cf27f8c5be1e5ebec7d5bd14f71427d1e84f3dd0314c0f7b2291e5b200ac8c7c3b9259361102a565b936104d160405190565b0390a3565b610ff390612fc860405190565b634a1406b160e11b8152918291600483016001600160a01b03909116815260200190565b610ff390612ff960405190565b63e602df0560e01b8152918291600483016001600160a01b03909116815260200190565b92919061302d6104386000611004565b6001600160a01b03851614158061305a575b61304d5761034c9293613175565b610ff3846110fa60405190565b50613064846117e1565b821161303f565b6103626001600160d01b03611214565b906130d36130cd61034c94936130b96130946000611004565b6001600160a01b0381166001600160a01b038416146130f3576001600160a01b031690565b6001600160a01b038516146130d957611533565b91611533565b90612828565b6130ec6130e586612e6c565b600e61293a565b5050611533565b6131066130ff88612e6c565b600e6128df565b50506001600160a01b031690565b9061312c6000612edf9493613127600090565b500190565b6132ba565b61314061314591612782600090565b612adb565b61314f60ff6105db565b1661315a601f6105db565b81116131635790565b604051632cd44ac360e21b8152600490fd5b9291909261318281611aca565b6131ab5761318f84611aca565b61319e579261034c92936133e2565b610ff384612da960405190565b610ff390612da960405190565b634e487b7160e01b600052600060045260246000fd5b9065ffffffffffff90611043565b6114ea6103626103629265ffffffffffff1690565b90613201610362611064926131dc565b82546131ce565b9065ffffffffffff199060301b611043565b61036290611f1b906001600160d01b031682565b9061323e6103626110649261321a565b8254613208565b61034c9161327790602090613269613263825165ffffffffffff1690565b856131f1565b01516001600160d01b031690565b9061322e565b919061328c5761034c91613245565b6131b8565b90815491600160401b831015610f1957826132b491600161034c95018155612cf3565b9061327d565b9192919081546000906132cc826105db565b81111561338b576132f26132e583926117f760016105db565b8560005260206000200190565b016132fc81611f09565b9161330682611f27565b9465ffffffffffff851665ffffffffffff85161161337957879361333165ffffffffffff87166114f5565b03613342575050611094925061322e565b9150915061336561109493613355611ae1565b9384019065ffffffffffff169052565b6001600160d01b0386166020830152613291565b604051632520601d60e01b8152600490fd5b50906133c490611094936133b06133a0611ae1565b65ffffffffffff90931685840152565b6001600160d01b0387166020830152613291565b611f31565b9061034c92916133d76129f6565b9061034c92916133ed565b9061034c92916133c9565b8160006133f981611004565b6001600160a01b0381166001600160a01b0385160361349b577fddf252ad1be2c89b69c2b068fc378daa952ba7f163c4a11628f55a4df523b3ef93612fb693612fac9361345b611cf2946104386134548c6113ed6002610f69565b600261104d565b6001600160a01b038316036134815750506110d96134548861347d6002610f69565b0390565b6110d99161348e91611033565b6123a4896103fc83610f69565b9091506134ab61159b8484611033565b8581106134f9577fddf252ad1be2c89b69c2b068fc378daa952ba7f163c4a11628f55a4df523b3ef9385612fb69461345b612fac956104386134ef8c611cf2980390565b6110d48786611033565b83610ff38761350760405190565b63391434e360e21b815293849360048501611b29565b634e487b7160e01b600052605160045260246000fd5b9190918060011461354e5760020361351d5761036291610dcf565b5061036291610da056fea26469706673582212208386d9ed9adf30e66bcdfc5bf711cbd409e21b8c87768b3abb1f2e5f07a7e65464736f6c63430008160033ddf252ad1be2c89b69c2b068fc378daa952ba7f163c4a11628f55a4df523b3efdec2bacdd2f05b59de34da9b523dff8be42e5e38e818c82fdb0bae774387a724","opcodes":"PUSH2 0x160 PUSH1 0x40 MSTORE CALLVALUE PUSH3 0x77 JUMPI PUSH3 0x23 PUSH3 0x19 PUSH3 0x15A JUMP JUMPDEST SWAP4 SWAP3 SWAP1 SWAP3 PUSH3 0x244 JUMP JUMPDEST PUSH1 0x40 MLOAD PUSH2 0x358E PUSH3 0x16FA DUP3 CODECOPY PUSH1 0x80 MLOAD DUP2 PUSH2 0x1D84 ADD MSTORE PUSH1 0xA0 MLOAD DUP2 PUSH2 0x1DB1 ADD MSTORE PUSH1 0xC0 MLOAD DUP2 PUSH2 0x1D49 ADD MSTORE PUSH1 0xE0 MLOAD DUP2 PUSH2 0x2491 ADD MSTORE PUSH2 0x100 MLOAD DUP2 PUSH2 0x2470 ADD MSTORE PUSH2 0x120 MLOAD DUP2 PUSH2 0x2257 ADD MSTORE PUSH2 0x140 MLOAD DUP2 PUSH2 0x2284 ADD MSTORE PUSH2 0x358E SWAP1 RETURN JUMPDEST PUSH1 0x0 DUP1 REVERT JUMPDEST PUSH4 0x4E487B71 PUSH1 0xE0 SHL PUSH1 0x0 MSTORE PUSH1 0x41 PUSH1 0x4 MSTORE PUSH1 0x24 PUSH1 0x0 REVERT JUMPDEST SWAP1 PUSH1 0x1F ADD PUSH1 0x1F NOT AND DUP2 ADD SWAP1 DUP2 LT PUSH1 0x1 PUSH1 0x1 PUSH1 0x40 SHL SUB DUP3 GT OR PUSH3 0xB4 JUMPI PUSH1 0x40 MSTORE JUMP JUMPDEST PUSH3 0x7C JUMP JUMPDEST SWAP1 PUSH3 0xD1 PUSH3 0xC9 PUSH1 0x40 MLOAD SWAP1 JUMP JUMPDEST SWAP3 DUP4 PUSH3 0x92 JUMP JUMPDEST JUMP JUMPDEST PUSH1 0x1 PUSH1 0x1 PUSH1 0xA0 SHL SUB AND SWAP1 JUMP JUMPDEST SWAP1 JUMP JUMPDEST PUSH1 0x1 PUSH1 0x1 PUSH1 0xA0 SHL SUB DUP2 AND SUB PUSH3 0x77 JUMPI JUMP JUMPDEST SWAP1 POP MLOAD SWAP1 PUSH3 0xD1 DUP3 PUSH3 0xE2 JUMP JUMPDEST SWAP2 SWAP1 PUSH1 0xA0 DUP4 DUP3 SUB SLT PUSH3 0x77 JUMPI PUSH3 0x11C DUP2 DUP5 PUSH3 0xF4 JUMP JUMPDEST SWAP3 PUSH3 0x12C DUP3 PUSH1 0x20 DUP4 ADD PUSH3 0xF4 JUMP JUMPDEST SWAP3 PUSH3 0xDF PUSH3 0x140 DUP5 PUSH1 0x40 DUP6 ADD PUSH3 0xF4 JUMP JUMPDEST SWAP4 PUSH1 0x80 PUSH3 0x152 DUP3 PUSH1 0x60 DUP8 ADD PUSH3 0xF4 JUMP JUMPDEST SWAP5 ADD PUSH3 0xF4 JUMP JUMPDEST PUSH3 0x17D PUSH3 0x4CC8 DUP1 CODESIZE SUB DUP1 PUSH3 0x171 DUP2 PUSH3 0xBA JUMP JUMPDEST SWAP3 DUP4 CODECOPY DUP2 ADD SWAP1 PUSH3 0x103 JUMP JUMPDEST SWAP1 SWAP2 SWAP3 SWAP4 SWAP5 JUMP JUMPDEST PUSH1 0x1 PUSH1 0x1 PUSH1 0x40 SHL SUB DUP2 GT PUSH3 0xB4 JUMPI PUSH1 0x20 SWAP1 PUSH1 0x1F ADD PUSH1 0x1F NOT AND ADD SWAP1 JUMP JUMPDEST ADD SWAP1 JUMP JUMPDEST SWAP1 PUSH3 0x1BB PUSH3 0x1B5 DUP4 PUSH3 0x184 JUMP JUMPDEST PUSH3 0xBA JUMP JUMPDEST SWAP2 DUP3 MSTORE JUMP JUMPDEST PUSH3 0x1CC PUSH1 0x4 PUSH3 0x1A5 JUMP JUMPDEST PUSH4 0x5553565 PUSH1 0xE4 SHL PUSH1 0x20 DUP3 ADD MSTORE SWAP1 JUMP JUMPDEST PUSH3 0xDF PUSH3 0x1C0 JUMP JUMPDEST PUSH3 0xDF PUSH3 0xDF PUSH3 0xDF SWAP3 SWAP1 JUMP JUMPDEST PUSH3 0xDF PUSH1 0x0 PUSH3 0x1E6 JUMP JUMPDEST PUSH4 0x4E487B71 PUSH1 0xE0 SHL PUSH1 0x0 MSTORE PUSH1 0x11 PUSH1 0x4 MSTORE PUSH1 0x24 PUSH1 0x0 REVERT JUMPDEST PUSH1 0xFF AND PUSH1 0x4D DUP2 GT PUSH3 0x22A JUMPI PUSH1 0xA EXP SWAP1 JUMP JUMPDEST PUSH3 0x202 JUMP JUMPDEST DUP2 DUP2 MUL SWAP3 SWAP2 DUP2 ISZERO SWAP2 DUP5 DIV EQ OR ISZERO PUSH3 0x22A JUMPI JUMP JUMPDEST PUSH3 0x30E SWAP3 PUSH3 0x2BE PUSH3 0x336 SWAP7 SWAP6 SWAP4 PUSH3 0x296 PUSH3 0x2E6 SWAP5 PUSH3 0x286 PUSH3 0x26B PUSH3 0x1DC JUMP JUMPDEST PUSH3 0x275 PUSH3 0x1DC JUMP JUMPDEST PUSH3 0x27F PUSH3 0x1DC JUMP JUMPDEST SWAP2 PUSH3 0x36F JUMP JUMPDEST PUSH3 0x290 PUSH3 0x1F6 JUMP JUMPDEST PUSH3 0x71D JUMP JUMPDEST POP PUSH32 0x65D7A28E3265B37A6474929F336521B332C1681B933F6CB9F3376673440D862A PUSH3 0x71D JUMP JUMPDEST POP PUSH32 0x9F2DF0FED2C77648DE5860A4CC508CD0818C85B8B8A1AB4CEEEF8D981C8956A6 PUSH3 0x71D JUMP JUMPDEST POP PUSH32 0xF7B34CF87AF24CE01C1AFF9F518B133989851466D994E0016FC14651FA02826C PUSH3 0x71D JUMP JUMPDEST POP PUSH32 0xE28434228950B641DBBC0178DE89DAA359A87C6EE0D8399AEACE52A98FE902B9 PUSH3 0x71D JUMP JUMPDEST POP PUSH3 0xD1 PUSH3 0x368 PUSH3 0x353 PUSH3 0x34D PUSH3 0x7CF JUMP JUMPDEST PUSH3 0x218 JUMP JUMPDEST PUSH3 0x362 PUSH4 0xBEBC200 PUSH3 0x1E6 JUMP JUMPDEST PUSH3 0x230 JUMP JUMPDEST CALLER PUSH3 0x7FA JUMP JUMPDEST PUSH3 0xD1 SWAP3 DUP4 SWAP3 DUP4 SWAP3 DUP4 SWAP3 DUP4 SWAP3 SWAP1 SWAP2 PUSH3 0x3A7 JUMP JUMPDEST PUSH3 0x390 PUSH1 0x1 PUSH3 0x1A5 JUMP JUMPDEST PUSH1 0x31 PUSH1 0xF8 SHL PUSH1 0x20 DUP3 ADD MSTORE SWAP1 JUMP JUMPDEST PUSH3 0xDF PUSH3 0x384 JUMP JUMPDEST SWAP1 PUSH3 0xD1 SWAP3 SWAP2 PUSH3 0x3B8 PUSH3 0x39D JUMP JUMPDEST PUSH3 0xD1 SWAP4 SWAP3 SWAP2 PUSH3 0x3F1 JUMP JUMPDEST PUSH3 0xDF SWAP1 PUSH3 0xD3 SWAP1 PUSH1 0x1 PUSH1 0x1 PUSH1 0xA0 SHL SUB AND DUP3 JUMP JUMPDEST PUSH3 0xDF SWAP1 PUSH3 0x3C5 JUMP JUMPDEST PUSH3 0xDF SWAP1 PUSH3 0x3DB JUMP JUMPDEST PUSH3 0x406 PUSH3 0x446 SWAP5 PUSH3 0x42B SWAP4 SWAP5 PUSH3 0x479 JUMP JUMPDEST PUSH3 0x413 PUSH1 0x9 DUP3 PUSH3 0x872 JUMP JUMPDEST PUSH2 0x120 MSTORE PUSH3 0x424 PUSH1 0xA DUP5 PUSH3 0x872 JUMP JUMPDEST PUSH2 0x140 MSTORE SWAP1 JUMP JUMPDEST PUSH3 0x43F PUSH3 0x438 DUP3 MLOAD SWAP1 JUMP JUMPDEST SWAP2 PUSH1 0x20 ADD SWAP1 JUMP JUMPDEST KECCAK256 PUSH1 0xE0 MSTORE SWAP1 JUMP JUMPDEST PUSH3 0x453 PUSH3 0x438 DUP3 MLOAD SWAP1 JUMP JUMPDEST KECCAK256 PUSH2 0x100 MSTORE CHAINID PUSH1 0xA0 MSTORE PUSH3 0x466 PUSH3 0x90B JUMP JUMPDEST PUSH1 0x80 MSTORE PUSH3 0x474 ADDRESS PUSH3 0x3E6 JUMP JUMPDEST PUSH1 0xC0 MSTORE JUMP JUMPDEST PUSH3 0xD1 SWAP2 DUP3 SWAP2 DUP3 SWAP2 DUP3 SWAP2 DUP3 SWAP2 DUP3 SWAP2 DUP3 SWAP2 DUP3 SWAP2 DUP3 SWAP2 SWAP1 PUSH3 0x4C3 JUMP JUMPDEST SWAP1 PUSH1 0xFF SWAP1 JUMPDEST SWAP2 DUP2 NOT AND SWAP2 AND OR SWAP1 JUMP JUMPDEST SWAP1 PUSH3 0x4B7 PUSH3 0xDF PUSH3 0x4BF SWAP3 ISZERO ISZERO SWAP1 JUMP JUMPDEST DUP3 SLOAD PUSH3 0x495 JUMP JUMPDEST SWAP1 SSTORE JUMP JUMPDEST SWAP1 PUSH3 0x4CF SWAP2 PUSH3 0x4DD JUMP JUMPDEST PUSH3 0xD1 PUSH1 0x0 PUSH1 0x5 PUSH3 0x4A4 JUMP JUMPDEST SWAP1 PUSH3 0xD1 SWAP2 PUSH3 0x6E7 JUMP JUMPDEST PUSH4 0x4E487B71 PUSH1 0xE0 SHL PUSH1 0x0 MSTORE PUSH1 0x0 PUSH1 0x4 MSTORE PUSH1 0x24 PUSH1 0x0 REVERT JUMPDEST PUSH4 0x4E487B71 PUSH1 0xE0 SHL PUSH1 0x0 MSTORE PUSH1 0x22 PUSH1 0x4 MSTORE PUSH1 0x24 PUSH1 0x0 REVERT JUMPDEST SWAP1 PUSH1 0x1 PUSH1 0x2 DUP4 DIV SWAP3 AND DUP1 ISZERO PUSH3 0x538 JUMPI JUMPDEST PUSH1 0x20 DUP4 LT EQ PUSH3 0x532 JUMPI JUMP JUMPDEST PUSH3 0x4FF JUMP JUMPDEST SWAP2 PUSH1 0x7F AND SWAP2 PUSH3 0x526 JUMP JUMPDEST SWAP2 PUSH1 0x0 NOT PUSH1 0x8 SWAP3 SWAP1 SWAP3 MUL SWAP2 DUP3 SHL SWAP2 SHL PUSH3 0x49A JUMP JUMPDEST SWAP2 SWAP1 PUSH3 0x56D PUSH3 0xDF PUSH3 0x4BF SWAP4 PUSH3 0x1E6 JUMP JUMPDEST SWAP1 DUP4 SLOAD PUSH3 0x543 JUMP JUMPDEST PUSH3 0xD1 SWAP2 PUSH1 0x0 SWAP2 PUSH3 0x558 JUMP JUMPDEST DUP2 DUP2 LT PUSH3 0x590 JUMPI POP POP JUMP JUMPDEST DUP1 PUSH3 0x5A0 PUSH1 0x0 PUSH1 0x1 SWAP4 PUSH3 0x576 JUMP JUMPDEST ADD PUSH3 0x584 JUMP JUMPDEST SWAP2 SWAP1 PUSH1 0x1F DUP2 GT PUSH3 0x5B7 JUMPI POP POP POP JUMP JUMPDEST PUSH3 0x5CB PUSH3 0xD1 SWAP4 PUSH1 0x0 MSTORE PUSH1 0x20 PUSH1 0x0 KECCAK256 SWAP1 JUMP JUMPDEST SWAP1 PUSH1 0x20 PUSH1 0x1F DUP5 ADD DUP2 SWAP1 DIV DUP4 ADD SWAP4 LT PUSH3 0x5EF JUMPI JUMPDEST PUSH1 0x20 PUSH1 0x1F SWAP1 SWAP2 ADD DIV ADD SWAP1 PUSH3 0x584 JUMP JUMPDEST SWAP1 SWAP2 POP DUP2 SWAP1 PUSH3 0x5DF JUMP JUMPDEST SWAP1 PUSH3 0x604 DUP2 MLOAD SWAP1 JUMP JUMPDEST SWAP1 PUSH1 0x1 PUSH1 0x1 PUSH1 0x40 SHL SUB DUP3 GT PUSH3 0xB4 JUMPI PUSH3 0x62C DUP3 PUSH3 0x625 DUP6 SLOAD PUSH3 0x515 JUMP JUMPDEST DUP6 PUSH3 0x5A7 JUMP JUMPDEST PUSH1 0x20 SWAP1 PUSH1 0x1F DUP4 GT PUSH1 0x1 EQ PUSH3 0x66B JUMPI PUSH3 0x4BF SWAP3 SWAP2 PUSH1 0x0 SWAP2 DUP4 PUSH3 0x65F JUMPI JUMPDEST POP POP PUSH1 0x0 NOT PUSH1 0x8 DUP4 MUL SHR NOT AND SWAP1 PUSH1 0x2 MUL OR SWAP1 JUMP JUMPDEST ADD MLOAD SWAP1 POP CODESIZE DUP1 PUSH3 0x64B JUMP JUMPDEST PUSH1 0x1F NOT DUP4 AND SWAP2 PUSH3 0x681 DUP6 PUSH1 0x0 MSTORE PUSH1 0x20 PUSH1 0x0 KECCAK256 SWAP1 JUMP JUMPDEST SWAP3 PUSH1 0x0 JUMPDEST DUP2 DUP2 LT PUSH3 0x6C2 JUMPI POP SWAP2 PUSH1 0x2 SWAP4 SWAP2 DUP6 PUSH1 0x1 SWAP7 SWAP5 LT PUSH3 0x6A8 JUMPI JUMPDEST POP POP POP MUL ADD SWAP1 SSTORE JUMP JUMPDEST ADD MLOAD PUSH1 0x0 NOT PUSH1 0x8 PUSH1 0x1F DUP6 AND MUL SHR NOT AND SWAP1 SSTORE CODESIZE DUP1 DUP1 PUSH3 0x69F JUMP JUMPDEST SWAP2 SWAP4 PUSH1 0x20 PUSH1 0x1 DUP2 SWAP3 DUP8 DUP8 ADD MLOAD DUP2 SSTORE ADD SWAP6 ADD SWAP3 ADD PUSH3 0x685 JUMP JUMPDEST SWAP1 PUSH3 0xD1 SWAP2 PUSH3 0x5FA JUMP JUMPDEST SWAP1 PUSH3 0x6F9 PUSH3 0xD1 SWAP3 PUSH1 0x3 PUSH3 0x6DB JUMP JUMPDEST PUSH1 0x4 PUSH3 0x6DB JUMP JUMPDEST SWAP1 JUMPDEST PUSH1 0x0 MSTORE PUSH1 0x20 MSTORE PUSH1 0x40 PUSH1 0x0 KECCAK256 SWAP1 JUMP JUMPDEST SWAP1 PUSH3 0x703 SWAP1 PUSH3 0x3E6 JUMP JUMPDEST PUSH3 0x731 PUSH3 0x72D DUP4 DUP4 PUSH3 0x997 JUMP JUMPDEST ISZERO SWAP1 JUMP JUMPDEST ISZERO PUSH3 0x7B2 JUMPI PUSH3 0x75E PUSH1 0x1 PUSH3 0x758 DUP5 PUSH1 0x0 PUSH3 0x751 DUP7 PUSH1 0x6 PUSH3 0x701 JUMP JUMPDEST ADD PUSH3 0x711 JUMP JUMPDEST PUSH3 0x4A4 JUMP JUMPDEST PUSH3 0x77D PUSH3 0x776 PUSH3 0x76F CALLER SWAP4 SWAP1 JUMP JUMPDEST SWAP4 PUSH3 0x3E6 JUMP JUMPDEST SWAP2 PUSH3 0x3E6 JUMP JUMPDEST SWAP2 PUSH32 0x2F8788117E7EFF1D82E926EC794901D17C78024A50270940304540A733656F0D PUSH3 0x7A9 PUSH1 0x40 MLOAD SWAP1 JUMP JUMPDEST PUSH1 0x0 SWAP1 LOG4 PUSH1 0x1 SWAP1 JUMP JUMPDEST POP POP PUSH1 0x0 SWAP1 JUMP JUMPDEST PUSH3 0x7C9 PUSH3 0xDF PUSH3 0xDF SWAP3 SWAP1 JUMP JUMPDEST PUSH1 0xFF AND SWAP1 JUMP JUMPDEST PUSH3 0xDF PUSH1 0x12 PUSH3 0x7B9 JUMP JUMPDEST PUSH3 0xD3 PUSH3 0xDF PUSH3 0xDF SWAP3 SWAP1 JUMP JUMPDEST PUSH3 0xDF SWAP1 PUSH3 0x7DB JUMP JUMPDEST SWAP1 MSTORE JUMP JUMPDEST SWAP2 SWAP1 PUSH3 0x808 PUSH1 0x0 PUSH3 0x7EB JUMP JUMPDEST SWAP3 PUSH1 0x1 PUSH1 0x1 PUSH1 0xA0 SHL SUB DUP5 AND PUSH1 0x1 PUSH1 0x1 PUSH1 0xA0 SHL SUB DUP3 AND EQ PUSH3 0x82F JUMPI PUSH3 0xD1 SWAP3 SWAP4 PUSH3 0x9BF JUMP JUMPDEST PUSH3 0x862 DUP5 PUSH3 0x83E PUSH1 0x40 MLOAD SWAP1 JUMP JUMPDEST PUSH4 0xEC442F05 PUSH1 0xE0 SHL DUP2 MSTORE SWAP2 DUP3 SWAP2 PUSH1 0x4 DUP4 ADD PUSH1 0x1 PUSH1 0x1 PUSH1 0xA0 SHL SUB SWAP1 SWAP2 AND DUP2 MSTORE PUSH1 0x20 ADD SWAP1 JUMP JUMPDEST SUB SWAP1 REVERT JUMPDEST PUSH3 0xDF PUSH1 0xFF PUSH3 0x1E6 JUMP JUMPDEST DUP1 MLOAD PUSH3 0x888 PUSH3 0x884 PUSH1 0x20 PUSH3 0x1E6 JUMP JUMPDEST SWAP2 SWAP1 JUMP JUMPDEST LT ISZERO PUSH3 0x89B JUMPI PUSH3 0xDF SWAP2 POP PUSH3 0xA89 JUMP JUMPDEST PUSH1 0x0 PUSH3 0x8A9 PUSH3 0x8B0 SWAP4 SWAP1 JUMP JUMPDEST ADD PUSH3 0x6DB JUMP JUMPDEST PUSH3 0xDF PUSH3 0xDF PUSH3 0x866 JUMP JUMPDEST SWAP1 SWAP6 SWAP5 SWAP3 PUSH3 0xD1 SWAP5 PUSH3 0x8F5 PUSH3 0x8FC SWAP3 PUSH3 0x8EE PUSH1 0x80 SWAP7 PUSH3 0x8E7 PUSH1 0xA0 DUP9 ADD SWAP13 PUSH1 0x0 DUP10 ADD MSTORE JUMP JUMPDEST PUSH1 0x20 DUP8 ADD MSTORE JUMP JUMPDEST PUSH1 0x40 DUP6 ADD MSTORE JUMP JUMPDEST PUSH1 0x60 DUP4 ADD MSTORE JUMP JUMPDEST ADD SWAP1 PUSH1 0x1 PUSH1 0x1 PUSH1 0xA0 SHL SUB AND SWAP1 MSTORE JUMP JUMPDEST PUSH32 0x8B73C3C69BB8FE3D512ECC4CF759CC79239F7B179B0FFACAA9A75D522B39400F PUSH3 0x96F PUSH3 0x93A PUSH1 0xE0 MLOAD SWAP1 JUMP JUMPDEST PUSH2 0x100 MLOAD SWAP1 PUSH3 0x962 PUSH3 0x94E ADDRESS PUSH3 0x3E6 JUMP JUMPDEST PUSH1 0x40 MLOAD SWAP6 DUP7 SWAP5 PUSH1 0x20 DUP7 ADD SWAP5 CHAINID SWAP3 DUP7 PUSH3 0x8BE JUMP JUMPDEST SWAP1 DUP2 SUB DUP3 MSTORE SUB DUP3 PUSH3 0x92 JUMP JUMPDEST PUSH3 0x97C PUSH3 0x438 DUP3 MLOAD SWAP1 JUMP JUMPDEST KECCAK256 SWAP1 JUMP JUMPDEST PUSH3 0xDF SWAP1 PUSH3 0x7C9 JUMP JUMPDEST PUSH3 0xDF SWAP1 SLOAD PUSH3 0x980 JUMP JUMPDEST PUSH3 0xDF SWAP2 PUSH1 0x0 PUSH3 0x751 PUSH3 0x9B9 SWAP4 PUSH3 0x9B0 PUSH1 0x0 SWAP1 JUMP JUMPDEST POP PUSH1 0x6 PUSH3 0x701 JUMP JUMPDEST PUSH3 0x98B JUMP JUMPDEST SWAP1 PUSH3 0xD1 SWAP3 SWAP2 PUSH3 0xB16 JUMP JUMPDEST PUSH1 0x0 JUMPDEST DUP4 DUP2 LT PUSH3 0x9E0 JUMPI POP POP PUSH1 0x0 SWAP2 ADD MSTORE JUMP JUMPDEST DUP2 DUP2 ADD MLOAD DUP4 DUP3 ADD MSTORE PUSH1 0x20 ADD PUSH3 0x9CF JUMP JUMPDEST PUSH3 0xA16 PUSH3 0xA20 PUSH1 0x20 SWAP4 PUSH3 0x1A1 SWAP4 PUSH3 0xA0A DUP2 MLOAD SWAP1 JUMP JUMPDEST DUP1 DUP4 MSTORE SWAP4 DUP5 SWAP3 PUSH1 0x20 ADD SWAP1 JUMP JUMPDEST SWAP6 DUP7 SWAP2 ADD PUSH3 0x9CC JUMP JUMPDEST PUSH1 0x1F ADD PUSH1 0x1F NOT AND SWAP1 JUMP JUMPDEST PUSH1 0x20 DUP1 DUP3 MSTORE PUSH3 0xDF SWAP3 SWAP2 ADD SWAP1 PUSH3 0x9F1 JUMP JUMPDEST PUSH3 0xA59 PUSH3 0xA55 PUSH3 0xA4E DUP4 MLOAD SWAP1 JUMP JUMPDEST SWAP3 PUSH1 0x20 ADD SWAP1 JUMP JUMPDEST MLOAD SWAP1 JUMP JUMPDEST SWAP1 PUSH1 0x20 DUP2 LT PUSH3 0xA67 JUMPI POP SWAP1 JUMP JUMPDEST PUSH3 0xA7A SWAP1 PUSH1 0x0 NOT SWAP1 PUSH1 0x20 SUB PUSH1 0x8 MUL SHL SWAP1 JUMP JUMPDEST AND SWAP1 JUMP JUMPDEST PUSH3 0xDF SWAP1 PUSH3 0x1E6 JUMP JUMPDEST DUP1 PUSH3 0xA93 DUP3 MLOAD SWAP1 JUMP JUMPDEST PUSH3 0xAA3 PUSH3 0x884 PUSH1 0x1F PUSH3 0x1E6 JUMP JUMPDEST GT PUSH3 0xAD8 JUMPI POP PUSH3 0xDF DUP2 PUSH3 0xAD1 PUSH3 0xACC PUSH3 0xAC6 PUSH3 0xDF SWAP6 PUSH3 0xA3D JUMP JUMPDEST PUSH3 0xA7E JUMP JUMPDEST SWAP2 MLOAD SWAP1 JUMP JUMPDEST OR PUSH3 0x1E6 JUMP JUMPDEST PUSH3 0x862 SWAP1 PUSH3 0xAE7 PUSH1 0x40 MLOAD SWAP1 JUMP JUMPDEST PUSH4 0x305A27A9 PUSH1 0xE0 SHL DUP2 MSTORE SWAP2 DUP3 SWAP2 PUSH1 0x4 DUP4 ADD PUSH3 0xA2A JUMP JUMPDEST SWAP1 DUP2 MSTORE PUSH1 0x40 DUP2 ADD SWAP3 SWAP2 PUSH3 0xD1 SWAP2 PUSH1 0x20 ADD MSTORE JUMP JUMPDEST ADD MSTORE JUMP JUMPDEST SWAP3 SWAP2 SWAP1 PUSH3 0xB26 DUP3 DUP3 DUP7 PUSH3 0xBA1 JUMP JUMPDEST PUSH3 0xB36 PUSH3 0xD3 PUSH1 0x0 PUSH3 0x7EB JUMP JUMPDEST PUSH1 0x1 PUSH1 0x1 PUSH1 0xA0 SHL SUB DUP6 AND EQ PUSH3 0xB53 JUMPI JUMPDEST PUSH3 0xD1 SWAP3 SWAP4 PUSH3 0xC64 JUMP JUMPDEST PUSH3 0xB5D PUSH3 0xC33 JUMP JUMPDEST SWAP4 PUSH3 0xB68 PUSH3 0xC52 JUMP JUMPDEST SWAP5 DUP6 DUP2 GT PUSH3 0xB7A JUMPI POP SWAP4 POP PUSH3 0xB47 JUMP JUMPDEST DUP6 SWAP1 PUSH3 0x862 PUSH3 0xB8A PUSH1 0x40 MLOAD SWAP1 JUMP JUMPDEST PUSH4 0xE58AE93 PUSH1 0xE1 SHL DUP2 MSTORE SWAP3 DUP4 SWAP3 PUSH1 0x4 DUP5 ADD PUSH3 0xAFE JUMP JUMPDEST SWAP3 SWAP2 SWAP1 PUSH3 0xBB4 PUSH3 0xD3 PUSH1 0x0 PUSH3 0x7EB JUMP JUMPDEST PUSH1 0x1 PUSH1 0x1 PUSH1 0xA0 SHL SUB DUP6 AND EQ ISZERO DUP1 PUSH3 0xC0B JUMPI JUMPDEST PUSH3 0xBD8 JUMPI PUSH3 0xD1 SWAP3 SWAP4 PUSH3 0xD49 JUMP JUMPDEST PUSH3 0x862 DUP5 PUSH3 0xBE7 PUSH1 0x40 MLOAD SWAP1 JUMP JUMPDEST PUSH4 0x14884B49 PUSH1 0xE0 SHL DUP2 MSTORE SWAP2 DUP3 SWAP2 PUSH1 0x4 DUP4 ADD PUSH1 0x1 PUSH1 0x1 PUSH1 0xA0 SHL SUB SWAP1 SWAP2 AND DUP2 MSTORE PUSH1 0x20 ADD SWAP1 JUMP JUMPDEST POP PUSH3 0xC17 DUP5 PUSH3 0xD27 JUMP JUMPDEST DUP3 GT PUSH3 0xBC7 JUMP JUMPDEST PUSH3 0xDF SWAP1 DUP2 JUMP JUMPDEST PUSH3 0xDF SWAP1 SLOAD PUSH3 0xC1F JUMP JUMPDEST PUSH3 0xDF PUSH1 0x2 PUSH3 0xC27 JUMP JUMPDEST PUSH3 0xDF SWAP1 DUP2 SWAP1 PUSH1 0x1 PUSH1 0x1 PUSH1 0xD0 SHL SUB AND DUP2 JUMP JUMPDEST PUSH3 0xDF PUSH1 0x1 PUSH1 0x1 PUSH1 0xD0 SHL SUB PUSH3 0xC3F JUMP JUMPDEST SWAP1 PUSH3 0xCC6 PUSH3 0xCBF PUSH3 0xD1 SWAP5 SWAP4 PUSH3 0xCA9 PUSH3 0xC83 PUSH1 0x0 PUSH3 0x7EB JUMP JUMPDEST PUSH1 0x1 PUSH1 0x1 PUSH1 0xA0 SHL SUB DUP2 AND PUSH1 0x1 PUSH1 0x1 PUSH1 0xA0 SHL SUB DUP5 AND EQ PUSH3 0xCF1 JUMPI PUSH1 0x1 PUSH1 0x1 PUSH1 0xA0 SHL SUB AND SWAP1 JUMP JUMPDEST PUSH1 0x1 PUSH1 0x1 PUSH1 0xA0 SHL SUB DUP6 AND EQ PUSH3 0xCCD JUMPI PUSH3 0xF0F JUMP JUMPDEST SWAP2 PUSH3 0xF0F JUMP JUMPDEST SWAP1 PUSH3 0xF30 JUMP JUMPDEST PUSH3 0xCE9 PUSH3 0xCDC DUP7 PUSH3 0xE3C JUMP JUMPDEST PUSH1 0xE JUMPDEST PUSH1 0x2 JUMPDEST SWAP1 PUSH3 0xE88 JUMP JUMPDEST POP POP PUSH3 0xF0F JUMP JUMPDEST PUSH3 0xD0B PUSH3 0xD00 DUP9 PUSH3 0xE3C JUMP JUMPDEST PUSH1 0xE JUMPDEST PUSH1 0x1 PUSH3 0xCE2 JUMP JUMPDEST POP POP PUSH1 0x1 PUSH1 0x1 PUSH1 0xA0 SHL SUB AND SWAP1 JUMP JUMPDEST SWAP2 SWAP1 DUP3 SUB SWAP2 DUP3 GT PUSH3 0x22A JUMPI JUMP JUMPDEST PUSH3 0xDF SWAP1 PUSH3 0xD42 PUSH3 0xD3B DUP3 PUSH3 0x107E JUMP JUMPDEST SWAP2 PUSH3 0x109F JUMP JUMPDEST SWAP1 PUSH3 0xD19 JUMP JUMPDEST SWAP3 SWAP2 SWAP1 SWAP3 PUSH3 0xD58 DUP2 PUSH3 0x10BA JUMP JUMPDEST PUSH3 0xDAD JUMPI PUSH3 0xD68 DUP5 PUSH3 0x10BA JUMP JUMPDEST PUSH3 0xD7A JUMPI SWAP3 PUSH3 0xD1 SWAP3 SWAP4 PUSH3 0x10F3 JUMP JUMPDEST PUSH3 0x862 DUP5 PUSH3 0xD89 PUSH1 0x40 MLOAD SWAP1 JUMP JUMPDEST PUSH4 0x5FF1C9B9 PUSH1 0xE1 SHL DUP2 MSTORE SWAP2 DUP3 SWAP2 PUSH1 0x4 DUP4 ADD PUSH1 0x1 PUSH1 0x1 PUSH1 0xA0 SHL SUB SWAP1 SWAP2 AND DUP2 MSTORE PUSH1 0x20 ADD SWAP1 JUMP JUMPDEST PUSH3 0x862 SWAP1 PUSH3 0xD89 PUSH1 0x40 MLOAD SWAP1 JUMP JUMPDEST PUSH3 0xDD8 SWAP1 PUSH1 0x1 PUSH1 0x1 PUSH1 0xD0 SHL SUB AND JUMPDEST SWAP2 PUSH1 0x1 PUSH1 0x1 PUSH1 0xD0 SHL SUB AND SWAP1 JUMP JUMPDEST ADD SWAP1 PUSH1 0x1 PUSH1 0x1 PUSH1 0xD0 SHL SUB DUP3 GT PUSH3 0x22A JUMPI JUMP JUMPDEST PUSH3 0xDF SWAP2 SWAP1 PUSH3 0xDBC JUMP JUMPDEST PUSH3 0x7F6 SWAP1 PUSH3 0x7B9 JUMP JUMPDEST SWAP2 PUSH1 0x20 PUSH3 0xD1 SWAP3 SWAP5 SWAP4 PUSH3 0xB12 PUSH1 0x40 DUP3 ADD SWAP7 PUSH1 0x0 DUP4 ADD SWAP1 PUSH3 0xDF7 JUMP JUMPDEST PUSH3 0xE30 PUSH3 0xDF PUSH3 0xDF SWAP3 SWAP1 JUMP JUMPDEST PUSH1 0x1 PUSH1 0x1 PUSH1 0xD0 SHL SUB AND SWAP1 JUMP JUMPDEST PUSH3 0xE4E PUSH1 0x1 PUSH1 0x1 PUSH1 0xD0 SHL SUB PUSH3 0xC3F JUMP JUMPDEST DUP2 GT PUSH3 0xE60 JUMPI PUSH3 0xDF SWAP1 PUSH3 0xE20 JUMP JUMPDEST PUSH3 0x862 SWAP1 PUSH3 0xE6F PUSH1 0x40 MLOAD SWAP1 JUMP JUMPDEST PUSH4 0x6DFCC65 PUSH1 0xE4 SHL DUP2 MSTORE SWAP2 DUP3 SWAP2 PUSH1 0xD0 PUSH1 0x4 DUP5 ADD PUSH3 0xE02 JUMP JUMPDEST SWAP1 PUSH3 0xEB9 PUSH3 0xEC0 SWAP4 PUSH3 0xE9B PUSH1 0x0 SWAP1 JUMP JUMPDEST POP PUSH3 0xEA6 PUSH3 0x1100 JUMP JUMPDEST SWAP3 PUSH3 0xEB2 DUP6 PUSH3 0x1124 JUMP JUMPDEST SWAP1 PUSH3 0x16CE JUMP JUMPDEST SWAP2 PUSH3 0x117D JUMP JUMPDEST SWAP1 SWAP2 JUMP JUMPDEST PUSH3 0xED8 SWAP1 PUSH1 0x1 PUSH1 0x1 PUSH1 0xD0 SHL SUB AND PUSH3 0xDCB JUMP JUMPDEST SWAP1 SUB SWAP1 PUSH1 0x1 PUSH1 0x1 PUSH1 0xD0 SHL SUB DUP3 GT PUSH3 0x22A JUMPI JUMP JUMPDEST PUSH3 0xDF SWAP2 SWAP1 PUSH3 0xEC4 JUMP JUMPDEST PUSH3 0xDF SWAP1 PUSH3 0xD3 JUMP JUMPDEST PUSH3 0xDF SWAP1 SLOAD PUSH3 0xEF8 JUMP JUMPDEST PUSH3 0xF2A PUSH3 0xDF SWAP2 PUSH3 0xF21 PUSH1 0x0 SWAP1 JUMP JUMPDEST POP PUSH1 0xC PUSH3 0x711 JUMP JUMPDEST PUSH3 0xF03 JUMP JUMPDEST SWAP1 SWAP2 SWAP1 PUSH1 0x1 PUSH1 0x1 PUSH1 0xA0 SHL SUB DUP4 AND PUSH1 0x1 PUSH1 0x1 PUSH1 0xA0 SHL SUB DUP3 AND EQ ISZERO DUP1 PUSH3 0x1069 JUMPI JUMPDEST PUSH3 0xF5A JUMPI POP POP POP JUMP JUMPDEST PUSH3 0xF94 SWAP1 PUSH3 0xF6B PUSH1 0x0 PUSH3 0x7EB JUMP JUMPDEST SWAP1 PUSH1 0x1 PUSH1 0x1 PUSH1 0xA0 SHL SUB DUP3 AND PUSH1 0x1 PUSH1 0x1 PUSH1 0xA0 SHL SUB DUP3 AND SUB PUSH3 0x1013 JUMPI JUMPDEST POP PUSH1 0x1 PUSH1 0x1 PUSH1 0xA0 SHL SUB AND SWAP1 JUMP JUMPDEST PUSH1 0x1 PUSH1 0x1 PUSH1 0xA0 SHL SUB DUP4 AND SUB PUSH3 0xFA8 JUMPI POP POP JUMP JUMPDEST DUP2 PUSH3 0xFF5 PUSH3 0x776 PUSH3 0xFE6 PUSH1 0x0 DUP1 MLOAD PUSH1 0x20 PUSH3 0x4CA8 DUP4 CODECOPY DUP2 MLOAD SWAP2 MSTORE SWAP5 PUSH3 0xD03 PUSH3 0x884 PUSH3 0xFDF PUSH3 0xFEE SWAP10 PUSH1 0xD PUSH3 0x711 JUMP JUMPDEST SWAP3 PUSH3 0xE3C JUMP JUMPDEST SWAP6 SWAP1 PUSH3 0xC3F JUMP JUMPDEST SWAP5 PUSH3 0xC3F JUMP JUMPDEST SWAP3 PUSH3 0x100E PUSH3 0x1004 PUSH1 0x40 MLOAD SWAP1 JUMP JUMPDEST SWAP3 DUP4 SWAP3 DUP4 PUSH3 0xAFE JUMP JUMPDEST SUB SWAP1 LOG2 JUMP JUMPDEST PUSH1 0x0 DUP1 MLOAD PUSH1 0x20 PUSH3 0x4CA8 DUP4 CODECOPY DUP2 MLOAD SWAP2 MSTORE DUP2 PUSH3 0x1050 PUSH3 0x776 PUSH3 0xFE6 PUSH3 0x1041 PUSH3 0xFEE SWAP7 PUSH1 0xD PUSH3 0x711 JUMP JUMPDEST PUSH3 0xCDF PUSH3 0x884 DUP12 PUSH3 0xE3C JUMP JUMPDEST SWAP3 PUSH3 0x105F PUSH3 0x1004 PUSH1 0x40 MLOAD SWAP1 JUMP JUMPDEST SUB SWAP1 LOG2 CODESIZE PUSH3 0xF87 JUMP JUMPDEST POP PUSH3 0x1076 PUSH1 0x0 PUSH3 0x1E6 JUMP JUMPDEST DUP3 GT PUSH3 0xF50 JUMP JUMPDEST PUSH3 0x1099 PUSH3 0xDF SWAP2 PUSH3 0x1090 PUSH1 0x0 SWAP1 JUMP JUMPDEST POP PUSH1 0x0 PUSH3 0x711 JUMP JUMPDEST PUSH3 0xC27 JUMP JUMPDEST PUSH3 0x1099 PUSH3 0xDF SWAP2 PUSH3 0x10B1 PUSH1 0x0 SWAP1 JUMP JUMPDEST POP PUSH1 0x8 PUSH3 0x711 JUMP JUMPDEST PUSH3 0x9B9 PUSH3 0xDF SWAP2 PUSH3 0x10CC PUSH1 0x0 SWAP1 JUMP JUMPDEST POP PUSH1 0x7 PUSH3 0x711 JUMP JUMPDEST SWAP1 PUSH3 0xD1 SWAP3 SWAP2 PUSH3 0x10E6 PUSH3 0x119E JUMP JUMPDEST SWAP1 PUSH3 0xD1 SWAP3 SWAP2 PUSH3 0x121F JUMP JUMPDEST SWAP1 PUSH3 0xD1 SWAP3 SWAP2 PUSH3 0x10D5 JUMP JUMPDEST PUSH3 0xDF PUSH3 0x1389 JUMP JUMPDEST PUSH3 0xDF SWAP1 PUSH1 0x30 SHR PUSH3 0xE30 JUMP JUMPDEST PUSH3 0xDF SWAP1 SLOAD PUSH3 0x110A JUMP JUMPDEST DUP1 SLOAD SWAP1 PUSH1 0x0 SWAP1 PUSH3 0x1135 DUP3 PUSH3 0x1E6 JUMP JUMPDEST DUP4 SUB PUSH3 0x1149 JUMPI POP PUSH3 0xDF SWAP2 POP PUSH3 0xE20 JUMP JUMPDEST PUSH3 0xDF SWAP3 PUSH3 0x116A PUSH3 0x884 DUP5 PUSH3 0x1176 SWAP5 ADD SWAP3 PUSH3 0xD42 PUSH1 0x1 PUSH3 0x1E6 JUMP JUMPDEST PUSH1 0x0 MSTORE PUSH1 0x20 PUSH1 0x0 KECCAK256 ADD SWAP1 JUMP JUMPDEST ADD PUSH3 0x1118 JUMP JUMPDEST SWAP1 PUSH3 0x1198 PUSH1 0x0 PUSH3 0xEC0 SWAP5 SWAP4 PUSH3 0x1193 PUSH1 0x0 SWAP1 JUMP JUMPDEST POP ADD SWAP1 JUMP JUMPDEST PUSH3 0x1514 JUMP JUMPDEST PUSH3 0x11A8 PUSH3 0x1639 JUMP JUMPDEST PUSH3 0x11AF JUMPI JUMP JUMPDEST PUSH1 0x40 MLOAD PUSH4 0xD93C0665 PUSH1 0xE0 SHL DUP2 MSTORE PUSH1 0x4 SWAP1 REVERT JUMPDEST PUSH1 0x1 PUSH1 0x1 PUSH1 0xA0 SHL SUB SWAP1 SWAP2 AND DUP2 MSTORE PUSH1 0x60 DUP2 ADD SWAP4 SWAP3 PUSH3 0xD1 SWAP3 SWAP1 SWAP2 PUSH1 0x40 SWAP2 PUSH3 0xB12 SWAP1 PUSH1 0x20 DUP4 ADD MSTORE JUMP JUMPDEST SWAP1 PUSH1 0x0 NOT SWAP1 PUSH3 0x49A JUMP JUMPDEST SWAP1 PUSH3 0x1209 PUSH3 0xDF PUSH3 0x4BF SWAP3 PUSH3 0x1E6 JUMP JUMPDEST DUP3 SLOAD PUSH3 0x11EA JUMP JUMPDEST SWAP2 SWAP1 DUP3 ADD DUP1 SWAP3 GT PUSH3 0x22A JUMPI JUMP JUMPDEST DUP2 PUSH1 0x0 PUSH3 0x122D DUP2 PUSH3 0x7EB JUMP JUMPDEST PUSH1 0x1 PUSH1 0x1 PUSH1 0xA0 SHL SUB DUP2 AND PUSH1 0x1 PUSH1 0x1 PUSH1 0xA0 SHL SUB DUP6 AND SUB PUSH3 0x1303 JUMPI PUSH1 0x0 DUP1 MLOAD PUSH1 0x20 PUSH3 0x4C88 DUP4 CODECOPY DUP2 MLOAD SWAP2 MSTORE SWAP4 PUSH3 0x12D7 SWAP4 PUSH3 0x12BF SWAP4 PUSH3 0x128E PUSH3 0x76F SWAP5 PUSH3 0xD3 PUSH3 0x1286 DUP13 PUSH3 0x1280 PUSH1 0x2 PUSH3 0xC27 JUMP JUMPDEST PUSH3 0x1211 JUMP JUMPDEST PUSH1 0x2 PUSH3 0x11F5 JUMP JUMPDEST PUSH1 0x1 PUSH1 0x1 PUSH1 0xA0 SHL SUB DUP4 AND SUB PUSH3 0x12DC JUMPI POP POP PUSH3 0x12B9 PUSH3 0x1286 DUP9 PUSH3 0x12B5 PUSH1 0x2 PUSH3 0xC27 JUMP JUMPDEST SUB SWAP1 JUMP JUMPDEST PUSH3 0x3E6 JUMP JUMPDEST SWAP4 PUSH3 0x12CA PUSH1 0x40 MLOAD SWAP1 JUMP JUMPDEST SWAP2 DUP3 SWAP2 DUP3 SWAP1 DUP2 MSTORE PUSH1 0x20 ADD SWAP1 JUMP JUMPDEST SUB SWAP1 LOG3 JUMP JUMPDEST PUSH3 0x12B9 SWAP2 PUSH3 0x12EC SWAP2 PUSH3 0x711 JUMP JUMPDEST PUSH3 0x12FC DUP10 PUSH3 0x1A1 DUP4 PUSH3 0xC27 JUMP JUMPDEST SWAP1 PUSH3 0x11F5 JUMP JUMPDEST SWAP1 SWAP2 POP PUSH3 0x1316 PUSH3 0x1099 DUP5 DUP5 PUSH3 0x711 JUMP JUMPDEST DUP6 DUP2 LT PUSH3 0x1362 JUMPI PUSH1 0x0 DUP1 MLOAD PUSH1 0x20 PUSH3 0x4C88 DUP4 CODECOPY DUP2 MLOAD SWAP2 MSTORE SWAP4 DUP6 PUSH3 0x12D7 SWAP5 PUSH3 0x128E PUSH3 0x12BF SWAP6 PUSH3 0xD3 PUSH3 0x1350 DUP13 PUSH3 0x76F SWAP9 SUB SWAP1 JUMP JUMPDEST PUSH3 0x135C DUP8 DUP7 PUSH3 0x711 JUMP JUMPDEST PUSH3 0x11F5 JUMP JUMPDEST DUP4 PUSH3 0x862 DUP8 PUSH3 0x1372 PUSH1 0x40 MLOAD SWAP1 JUMP JUMPDEST PUSH4 0x391434E3 PUSH1 0xE2 SHL DUP2 MSTORE SWAP4 DUP5 SWAP4 PUSH1 0x4 DUP6 ADD PUSH3 0x11C1 JUMP JUMPDEST PUSH3 0xDF NUMBER PUSH3 0x166D JUMP JUMPDEST PUSH3 0xDF PUSH1 0x40 PUSH3 0xBA JUMP JUMPDEST PUSH4 0x4E487B71 PUSH1 0xE0 SHL PUSH1 0x0 MSTORE PUSH1 0x32 PUSH1 0x4 MSTORE PUSH1 0x24 PUSH1 0x0 REVERT JUMPDEST DUP1 SLOAD DUP3 LT ISZERO PUSH3 0x13DB JUMPI PUSH3 0x13D2 PUSH1 0x1 SWAP2 PUSH1 0x0 MSTORE PUSH1 0x20 PUSH1 0x0 KECCAK256 SWAP1 JUMP JUMPDEST SWAP2 MUL ADD SWAP1 PUSH1 0x0 SWAP1 JUMP JUMPDEST PUSH3 0x13A0 JUMP JUMPDEST SWAP1 PUSH6 0xFFFFFFFFFFFF SWAP1 PUSH3 0x49A JUMP JUMPDEST PUSH3 0x1408 PUSH3 0xDF PUSH3 0xDF SWAP3 PUSH6 0xFFFFFFFFFFFF AND SWAP1 JUMP JUMPDEST PUSH6 0xFFFFFFFFFFFF AND SWAP1 JUMP JUMPDEST SWAP1 PUSH3 0x1427 PUSH3 0xDF PUSH3 0x4BF SWAP3 PUSH3 0x13F0 JUMP JUMPDEST DUP3 SLOAD PUSH3 0x13E1 JUMP JUMPDEST SWAP1 PUSH6 0xFFFFFFFFFFFF NOT SWAP1 PUSH1 0x30 SHL PUSH3 0x49A JUMP JUMPDEST PUSH3 0xDF SWAP1 PUSH3 0xE30 SWAP1 PUSH1 0x1 PUSH1 0x1 PUSH1 0xD0 SHL SUB AND DUP3 JUMP JUMPDEST SWAP1 PUSH3 0x146C PUSH3 0xDF PUSH3 0x4BF SWAP3 PUSH3 0x1442 JUMP JUMPDEST DUP3 SLOAD PUSH3 0x142F JUMP JUMPDEST PUSH3 0xD1 SWAP2 PUSH3 0x14AB SWAP1 PUSH1 0x20 SWAP1 PUSH3 0x149D PUSH3 0x1496 DUP3 MLOAD PUSH6 0xFFFFFFFFFFFF AND SWAP1 JUMP JUMPDEST DUP6 PUSH3 0x1413 JUMP JUMPDEST ADD MLOAD PUSH1 0x1 PUSH1 0x1 PUSH1 0xD0 SHL SUB AND SWAP1 JUMP JUMPDEST SWAP1 PUSH3 0x1458 JUMP JUMPDEST SWAP2 SWAP1 PUSH3 0x14C4 JUMPI PUSH3 0xD1 SWAP2 PUSH3 0x1474 JUMP JUMPDEST PUSH3 0x4E9 JUMP JUMPDEST SWAP1 DUP2 SLOAD SWAP2 PUSH9 0x10000000000000000 DUP4 LT ISZERO PUSH3 0xB4 JUMPI DUP3 PUSH3 0x14F6 SWAP2 PUSH1 0x1 PUSH3 0xD1 SWAP6 ADD DUP2 SSTORE PUSH3 0x13B6 JUMP JUMPDEST SWAP1 PUSH3 0x14B2 JUMP JUMPDEST PUSH3 0xDF SWAP1 PUSH3 0x1408 JUMP JUMPDEST PUSH3 0xDF SWAP1 SLOAD PUSH3 0x14FD JUMP JUMPDEST SWAP2 SWAP3 SWAP2 SWAP1 DUP2 SLOAD PUSH1 0x0 SWAP1 PUSH3 0x1528 DUP3 PUSH3 0x1E6 JUMP JUMPDEST DUP2 GT ISZERO PUSH3 0x15F4 JUMPI PUSH3 0x1553 PUSH3 0x1546 DUP4 SWAP3 PUSH3 0xD42 PUSH1 0x1 PUSH3 0x1E6 JUMP JUMPDEST DUP6 PUSH1 0x0 MSTORE PUSH1 0x20 PUSH1 0x0 KECCAK256 ADD SWAP1 JUMP JUMPDEST ADD PUSH3 0x155F DUP2 PUSH3 0x1508 JUMP JUMPDEST SWAP2 PUSH3 0x156B DUP3 PUSH3 0x1118 JUMP JUMPDEST SWAP5 PUSH6 0xFFFFFFFFFFFF DUP6 AND PUSH6 0xFFFFFFFFFFFF DUP6 AND GT PUSH3 0x15E2 JUMPI DUP8 SWAP4 PUSH6 0xFFFFFFFFFFFF DUP7 DUP2 AND SWAP2 AND SUB PUSH3 0x15A6 JUMPI POP POP PUSH3 0x884 SWAP3 POP PUSH3 0x1458 JUMP JUMPDEST SWAP2 POP SWAP2 POP PUSH3 0x15CD PUSH3 0x884 SWAP4 PUSH3 0x15BD PUSH3 0x1394 JUMP JUMPDEST SWAP4 DUP5 ADD SWAP1 PUSH6 0xFFFFFFFFFFFF AND SWAP1 MSTORE JUMP JUMPDEST PUSH1 0x1 PUSH1 0x1 PUSH1 0xD0 SHL SUB DUP7 AND PUSH1 0x20 DUP4 ADD MSTORE PUSH3 0x14CA JUMP JUMPDEST PUSH1 0x40 MLOAD PUSH4 0x2520601D PUSH1 0xE0 SHL DUP2 MSTORE PUSH1 0x4 SWAP1 REVERT JUMPDEST POP SWAP1 PUSH3 0x1633 SWAP1 PUSH3 0x884 SWAP4 PUSH3 0x161E PUSH3 0x160E PUSH3 0x1394 JUMP JUMPDEST PUSH6 0xFFFFFFFFFFFF SWAP1 SWAP4 AND DUP6 DUP5 ADD MSTORE JUMP JUMPDEST PUSH1 0x1 PUSH1 0x1 PUSH1 0xD0 SHL SUB DUP8 AND PUSH1 0x20 DUP4 ADD MSTORE PUSH3 0x14CA JUMP JUMPDEST PUSH3 0xE20 JUMP JUMPDEST PUSH3 0xDF PUSH1 0x5 PUSH3 0x98B JUMP JUMPDEST PUSH3 0xDF PUSH3 0xDF PUSH3 0xDF SWAP3 PUSH6 0xFFFFFFFFFFFF AND SWAP1 JUMP JUMPDEST PUSH3 0x1408 PUSH3 0xDF PUSH3 0xDF SWAP3 SWAP1 JUMP JUMPDEST PUSH3 0x167E PUSH6 0xFFFFFFFFFFFF PUSH3 0x1645 JUMP JUMPDEST DUP2 GT PUSH3 0x1690 JUMPI PUSH3 0xDF SWAP1 PUSH3 0x165D JUMP JUMPDEST PUSH3 0x862 SWAP1 PUSH3 0x169F PUSH1 0x40 MLOAD SWAP1 JUMP JUMPDEST PUSH4 0x6DFCC65 PUSH1 0xE4 SHL DUP2 MSTORE SWAP2 DUP3 SWAP2 PUSH1 0x30 PUSH1 0x4 DUP5 ADD PUSH3 0xE02 JUMP JUMPDEST PUSH4 0x4E487B71 PUSH1 0xE0 SHL PUSH1 0x0 MSTORE PUSH1 0x51 PUSH1 0x4 MSTORE PUSH1 0x24 PUSH1 0x0 REVERT JUMPDEST SWAP2 SWAP1 SWAP2 DUP1 PUSH1 0x1 EQ PUSH3 0x16ED JUMPI PUSH1 0x2 SUB PUSH3 0x16B8 JUMPI PUSH3 0xDF SWAP2 PUSH3 0xEEC JUMP JUMPDEST POP PUSH3 0xDF SWAP2 PUSH3 0xDEB JUMP INVALID PUSH1 0x80 PUSH1 0x40 MSTORE PUSH1 0x4 CALLDATASIZE LT ISZERO PUSH2 0x12 JUMPI PUSH1 0x0 DUP1 REVERT JUMPDEST PUSH1 0x0 CALLDATALOAD PUSH1 0xE0 SHR DUP1 PUSH4 0x1FFC9A7 EQ PUSH2 0x322 JUMPI DUP1 PUSH4 0x6FDDE03 EQ PUSH2 0x31D JUMPI DUP1 PUSH4 0x95EA7B3 EQ PUSH2 0x318 JUMPI DUP1 PUSH4 0x18160DDD EQ PUSH2 0x313 JUMPI DUP1 PUSH4 0x23B872DD EQ PUSH2 0x30E JUMPI DUP1 PUSH4 0x248A9CA3 EQ PUSH2 0x309 JUMPI DUP1 PUSH4 0x24BCE60C EQ PUSH2 0x304 JUMPI DUP1 PUSH4 0x2F2FF15D EQ PUSH2 0x2FF JUMPI DUP1 PUSH4 0x313CE567 EQ PUSH2 0x2FA JUMPI DUP1 PUSH4 0x32CB6B0C EQ PUSH2 0x2F5 JUMPI DUP1 PUSH4 0x3644E515 EQ PUSH2 0x2F0 JUMPI DUP1 PUSH4 0x36568ABE EQ PUSH2 0x2EB JUMPI DUP1 PUSH4 0x39D319E5 EQ PUSH2 0x2E6 JUMPI DUP1 PUSH4 0x3A46B1A8 EQ PUSH2 0x2E1 JUMPI DUP1 PUSH4 0x3DA01325 EQ PUSH2 0x2DC JUMPI DUP1 PUSH4 0x3F4BA83A EQ PUSH2 0x2D7 JUMPI DUP1 PUSH4 0x40C10F19 EQ PUSH2 0x2D2 JUMPI DUP1 PUSH4 0x42966C68 EQ PUSH2 0x2CD JUMPI DUP1 PUSH4 0x4BF5D7E9 EQ PUSH2 0x2C8 JUMPI DUP1 PUSH4 0x587CDE1E EQ PUSH2 0x2C3 JUMPI DUP1 PUSH4 0x5C19A95C EQ PUSH2 0x2BE JUMPI DUP1 PUSH4 0x5C975ABB EQ PUSH2 0x2B9 JUMPI DUP1 PUSH4 0x6FCFFF45 EQ PUSH2 0x2B4 JUMPI DUP1 PUSH4 0x70A08231 EQ PUSH2 0x2AF JUMPI DUP1 PUSH4 0x79CC6790 EQ PUSH2 0x2AA JUMPI DUP1 PUSH4 0x7B46B80B EQ PUSH2 0x2A5 JUMPI DUP1 PUSH4 0x7ECEBE00 EQ PUSH2 0x2A0 JUMPI DUP1 PUSH4 0x8456CB59 EQ PUSH2 0x29B JUMPI DUP1 PUSH4 0x84B0196E EQ PUSH2 0x296 JUMPI DUP1 PUSH4 0x8E539E8C EQ PUSH2 0x291 JUMPI DUP1 PUSH4 0x91D14854 EQ PUSH2 0x28C JUMPI DUP1 PUSH4 0x91DDADF4 EQ PUSH2 0x287 JUMPI DUP1 PUSH4 0x95D89B41 EQ PUSH2 0x282 JUMPI DUP1 PUSH4 0x9AB24EB0 EQ PUSH2 0x27D JUMPI DUP1 PUSH4 0xA0821BE3 EQ PUSH2 0x278 JUMPI DUP1 PUSH4 0xA217FDDF EQ PUSH2 0x273 JUMPI DUP1 PUSH4 0xA9059CBB EQ PUSH2 0x26E JUMPI DUP1 PUSH4 0xB3DE4214 EQ PUSH2 0x269 JUMPI DUP1 PUSH4 0xC3CDA520 EQ PUSH2 0x264 JUMPI DUP1 PUSH4 0xC79445D0 EQ PUSH2 0x25F JUMPI DUP1 PUSH4 0xD0516650 EQ PUSH2 0x25A JUMPI DUP1 PUSH4 0xD505ACCF EQ PUSH2 0x255 JUMPI DUP1 PUSH4 0xD5391393 EQ PUSH2 0x250 JUMPI DUP1 PUSH4 0xD547741F EQ PUSH2 0x24B JUMPI DUP1 PUSH4 0xDA0239A6 EQ PUSH2 0x246 JUMPI DUP1 PUSH4 0xDD62ED3E EQ PUSH2 0x241 JUMPI DUP1 PUSH4 0xE5962195 EQ PUSH2 0x23C JUMPI DUP1 PUSH4 0xE63AB1E9 EQ PUSH2 0x237 JUMPI PUSH4 0xF1127ED8 SUB PUSH2 0x327 JUMPI PUSH2 0xD30 JUMP JUMPDEST PUSH2 0xC90 JUMP JUMPDEST PUSH2 0xC75 JUMP JUMPDEST PUSH2 0xC59 JUMP JUMPDEST PUSH2 0xC22 JUMP JUMPDEST PUSH2 0xC09 JUMP JUMPDEST PUSH2 0xBD0 JUMP JUMPDEST PUSH2 0xBB1 JUMP JUMPDEST PUSH2 0xB37 JUMP JUMPDEST PUSH2 0xAFE JUMP JUMPDEST PUSH2 0xADF JUMP JUMPDEST PUSH2 0xA3D JUMP JUMPDEST PUSH2 0xA21 JUMP JUMPDEST PUSH2 0xA06 JUMP JUMPDEST PUSH2 0x9D9 JUMP JUMPDEST PUSH2 0x9BE JUMP JUMPDEST PUSH2 0x9A3 JUMP JUMPDEST PUSH2 0x96F JUMP JUMPDEST PUSH2 0x953 JUMP JUMPDEST PUSH2 0x938 JUMP JUMPDEST PUSH2 0x904 JUMP JUMPDEST PUSH2 0x81A JUMP JUMPDEST PUSH2 0x7FF JUMP JUMPDEST PUSH2 0x7E6 JUMP JUMPDEST PUSH2 0x7CD JUMP JUMPDEST PUSH2 0x7B2 JUMP JUMPDEST PUSH2 0x780 JUMP JUMPDEST PUSH2 0x765 JUMP JUMPDEST PUSH2 0x74D JUMP JUMPDEST PUSH2 0x718 JUMP JUMPDEST PUSH2 0x6FD JUMP JUMPDEST PUSH2 0x6E5 JUMP JUMPDEST PUSH2 0x6CC JUMP JUMPDEST PUSH2 0x6B4 JUMP JUMPDEST PUSH2 0x69C JUMP JUMPDEST PUSH2 0x680 JUMP JUMPDEST PUSH2 0x668 JUMP JUMPDEST PUSH2 0x63B JUMP JUMPDEST PUSH2 0x620 JUMP JUMPDEST PUSH2 0x605 JUMP JUMPDEST PUSH2 0x5AC JUMP JUMPDEST PUSH2 0x593 JUMP JUMPDEST PUSH2 0x552 JUMP JUMPDEST PUSH2 0x537 JUMP JUMPDEST PUSH2 0x507 JUMP JUMPDEST PUSH2 0x4B2 JUMP JUMPDEST PUSH2 0x496 JUMP JUMPDEST PUSH2 0x411 JUMP JUMPDEST PUSH2 0x369 JUMP JUMPDEST PUSH1 0x0 DUP1 REVERT JUMPDEST PUSH1 0x1 PUSH1 0x1 PUSH1 0xE0 SHL SUB NOT DUP2 AND JUMPDEST SUB PUSH2 0x327 JUMPI JUMP JUMPDEST SWAP1 POP CALLDATALOAD SWAP1 PUSH2 0x34C DUP3 PUSH2 0x32C JUMP JUMPDEST JUMP JUMPDEST SWAP1 PUSH1 0x20 DUP3 DUP3 SUB SLT PUSH2 0x327 JUMPI PUSH2 0x362 SWAP2 PUSH2 0x33F JUMP JUMPDEST SWAP1 JUMP JUMPDEST SWAP1 MSTORE JUMP JUMPDEST CALLVALUE PUSH2 0x327 JUMPI PUSH2 0x396 PUSH2 0x384 PUSH2 0x37F CALLDATASIZE PUSH1 0x4 PUSH2 0x34E JUMP JUMPDEST PUSH2 0xDD9 JUMP JUMPDEST PUSH1 0x40 MLOAD SWAP2 DUP3 SWAP2 DUP3 SWAP1 ISZERO ISZERO DUP2 MSTORE PUSH1 0x20 ADD SWAP1 JUMP JUMPDEST SUB SWAP1 RETURN JUMPDEST PUSH1 0x0 SWAP2 SUB SLT PUSH2 0x327 JUMPI JUMP JUMPDEST PUSH1 0x0 JUMPDEST DUP4 DUP2 LT PUSH2 0x3B8 JUMPI POP POP PUSH1 0x0 SWAP2 ADD MSTORE JUMP JUMPDEST DUP2 DUP2 ADD MLOAD DUP4 DUP3 ADD MSTORE PUSH1 0x20 ADD PUSH2 0x3A8 JUMP JUMPDEST PUSH2 0x3E9 PUSH2 0x3F2 PUSH1 0x20 SWAP4 PUSH2 0x3FC SWAP4 PUSH2 0x3DD DUP2 MLOAD SWAP1 JUMP JUMPDEST DUP1 DUP4 MSTORE SWAP4 DUP5 SWAP3 PUSH1 0x20 ADD SWAP1 JUMP JUMPDEST SWAP6 DUP7 SWAP2 ADD PUSH2 0x3A5 JUMP JUMPDEST PUSH1 0x1F ADD PUSH1 0x1F NOT AND SWAP1 JUMP JUMPDEST ADD SWAP1 JUMP JUMPDEST PUSH1 0x20 DUP1 DUP3 MSTORE PUSH2 0x362 SWAP3 SWAP2 ADD SWAP1 PUSH2 0x3C8 JUMP JUMPDEST CALLVALUE PUSH2 0x327 JUMPI PUSH2 0x421 CALLDATASIZE PUSH1 0x4 PUSH2 0x39A JUMP JUMPDEST PUSH2 0x396 PUSH2 0x42C PUSH2 0xF48 JUMP JUMPDEST PUSH1 0x40 MLOAD SWAP2 DUP3 SWAP2 DUP3 PUSH2 0x400 JUMP JUMPDEST PUSH1 0x1 PUSH1 0x1 PUSH1 0xA0 SHL SUB AND SWAP1 JUMP JUMPDEST PUSH1 0x1 PUSH1 0x1 PUSH1 0xA0 SHL SUB DUP2 AND PUSH2 0x338 JUMP JUMPDEST SWAP1 POP CALLDATALOAD SWAP1 PUSH2 0x34C DUP3 PUSH2 0x444 JUMP JUMPDEST DUP1 PUSH2 0x338 JUMP JUMPDEST SWAP1 POP CALLDATALOAD SWAP1 PUSH2 0x34C DUP3 PUSH2 0x460 JUMP JUMPDEST SWAP2 SWAP1 PUSH1 0x40 DUP4 DUP3 SUB SLT PUSH2 0x327 JUMPI PUSH2 0x362 SWAP1 PUSH1 0x20 PUSH2 0x48F DUP3 DUP7 PUSH2 0x453 JUMP JUMPDEST SWAP5 ADD PUSH2 0x466 JUMP JUMPDEST CALLVALUE PUSH2 0x327 JUMPI PUSH2 0x396 PUSH2 0x384 PUSH2 0x4AC CALLDATASIZE PUSH1 0x4 PUSH2 0x473 JUMP JUMPDEST SWAP1 PUSH2 0xF52 JUMP JUMPDEST CALLVALUE PUSH2 0x327 JUMPI PUSH2 0x4C2 CALLDATASIZE PUSH1 0x4 PUSH2 0x39A JUMP JUMPDEST PUSH2 0x396 PUSH2 0x4CD PUSH2 0xF73 JUMP JUMPDEST PUSH1 0x40 MLOAD JUMPDEST SWAP2 DUP3 SWAP2 DUP3 SWAP1 DUP2 MSTORE PUSH1 0x20 ADD SWAP1 JUMP JUMPDEST SWAP1 SWAP2 PUSH1 0x60 DUP3 DUP5 SUB SLT PUSH2 0x327 JUMPI PUSH2 0x362 PUSH2 0x4F7 DUP5 DUP5 PUSH2 0x453 JUMP JUMPDEST SWAP4 PUSH1 0x40 PUSH2 0x48F DUP3 PUSH1 0x20 DUP8 ADD PUSH2 0x453 JUMP JUMPDEST CALLVALUE PUSH2 0x327 JUMPI PUSH2 0x396 PUSH2 0x384 PUSH2 0x51D CALLDATASIZE PUSH1 0x4 PUSH2 0x4DE JUMP JUMPDEST SWAP2 PUSH2 0xF7D JUMP JUMPDEST SWAP1 PUSH1 0x20 DUP3 DUP3 SUB SLT PUSH2 0x327 JUMPI PUSH2 0x362 SWAP2 PUSH2 0x466 JUMP JUMPDEST CALLVALUE PUSH2 0x327 JUMPI PUSH2 0x396 PUSH2 0x4CD PUSH2 0x54D CALLDATASIZE PUSH1 0x4 PUSH2 0x523 JUMP JUMPDEST PUSH2 0xFA4 JUMP JUMPDEST CALLVALUE PUSH2 0x327 JUMPI PUSH2 0x56B PUSH2 0x565 CALLDATASIZE PUSH1 0x4 PUSH2 0x473 JUMP JUMPDEST SWAP1 PUSH2 0x1130 JUMP JUMPDEST PUSH1 0x40 MLOAD STOP JUMPDEST SWAP2 SWAP1 PUSH1 0x40 DUP4 DUP3 SUB SLT PUSH2 0x327 JUMPI PUSH2 0x362 SWAP1 PUSH1 0x20 PUSH2 0x58C DUP3 DUP7 PUSH2 0x466 JUMP JUMPDEST SWAP5 ADD PUSH2 0x453 JUMP JUMPDEST CALLVALUE PUSH2 0x327 JUMPI PUSH2 0x56B PUSH2 0x5A6 CALLDATASIZE PUSH1 0x4 PUSH2 0x570 JUMP JUMPDEST SWAP1 PUSH2 0x115D JUMP JUMPDEST CALLVALUE PUSH2 0x327 JUMPI PUSH2 0x5BC CALLDATASIZE PUSH1 0x4 PUSH2 0x39A JUMP JUMPDEST PUSH2 0x396 PUSH2 0x5C7 PUSH2 0x117A JUMP JUMPDEST PUSH1 0x40 MLOAD SWAP2 DUP3 SWAP2 DUP3 PUSH1 0xFF SWAP1 SWAP2 AND DUP2 MSTORE PUSH1 0x20 ADD SWAP1 JUMP JUMPDEST PUSH2 0x362 PUSH2 0x362 PUSH2 0x362 SWAP3 SWAP1 JUMP JUMPDEST PUSH2 0x362 PUSH12 0x33B2E3C9FD0803CE8000000 PUSH2 0x5DB JUMP JUMPDEST PUSH2 0x362 PUSH2 0x5E8 JUMP JUMPDEST CALLVALUE PUSH2 0x327 JUMPI PUSH2 0x615 CALLDATASIZE PUSH1 0x4 PUSH2 0x39A JUMP JUMPDEST PUSH2 0x396 PUSH2 0x4CD PUSH2 0x5FD JUMP JUMPDEST CALLVALUE PUSH2 0x327 JUMPI PUSH2 0x630 CALLDATASIZE PUSH1 0x4 PUSH2 0x39A JUMP JUMPDEST PUSH2 0x396 PUSH2 0x4CD PUSH2 0x1184 JUMP JUMPDEST CALLVALUE PUSH2 0x327 JUMPI PUSH2 0x56B PUSH2 0x64E CALLDATASIZE PUSH1 0x4 PUSH2 0x570 JUMP JUMPDEST SWAP1 PUSH2 0x118C JUMP JUMPDEST SWAP1 PUSH1 0x20 DUP3 DUP3 SUB SLT PUSH2 0x327 JUMPI PUSH2 0x362 SWAP2 PUSH2 0x453 JUMP JUMPDEST CALLVALUE PUSH2 0x327 JUMPI PUSH2 0x56B PUSH2 0x67B CALLDATASIZE PUSH1 0x4 PUSH2 0x654 JUMP JUMPDEST PUSH2 0x11F6 JUMP JUMPDEST CALLVALUE PUSH2 0x327 JUMPI PUSH2 0x396 PUSH2 0x4CD PUSH2 0x696 CALLDATASIZE PUSH1 0x4 PUSH2 0x473 JUMP JUMPDEST SWAP1 PUSH2 0x1226 JUMP JUMPDEST CALLVALUE PUSH2 0x327 JUMPI PUSH2 0x56B PUSH2 0x6AF CALLDATASIZE PUSH1 0x4 PUSH2 0x654 JUMP JUMPDEST PUSH2 0x12D4 JUMP JUMPDEST CALLVALUE PUSH2 0x327 JUMPI PUSH2 0x6C4 CALLDATASIZE PUSH1 0x4 PUSH2 0x39A JUMP JUMPDEST PUSH2 0x56B PUSH2 0x1311 JUMP JUMPDEST CALLVALUE PUSH2 0x327 JUMPI PUSH2 0x56B PUSH2 0x6DF CALLDATASIZE PUSH1 0x4 PUSH2 0x473 JUMP JUMPDEST SWAP1 PUSH2 0x1438 JUMP JUMPDEST CALLVALUE PUSH2 0x327 JUMPI PUSH2 0x56B PUSH2 0x6F8 CALLDATASIZE PUSH1 0x4 PUSH2 0x523 JUMP JUMPDEST PUSH2 0x1442 JUMP JUMPDEST CALLVALUE PUSH2 0x327 JUMPI PUSH2 0x70D CALLDATASIZE PUSH1 0x4 PUSH2 0x39A JUMP JUMPDEST PUSH2 0x396 PUSH2 0x42C PUSH2 0x14D4 JUMP JUMPDEST CALLVALUE PUSH2 0x327 JUMPI PUSH2 0x396 PUSH2 0x733 PUSH2 0x72E CALLDATASIZE PUSH1 0x4 PUSH2 0x654 JUMP JUMPDEST PUSH2 0x1533 JUMP JUMPDEST PUSH1 0x40 MLOAD SWAP2 DUP3 SWAP2 DUP3 PUSH1 0x1 PUSH1 0x1 PUSH1 0xA0 SHL SUB SWAP1 SWAP2 AND DUP2 MSTORE PUSH1 0x20 ADD SWAP1 JUMP JUMPDEST CALLVALUE PUSH2 0x327 JUMPI PUSH2 0x56B PUSH2 0x760 CALLDATASIZE PUSH1 0x4 PUSH2 0x654 JUMP JUMPDEST PUSH2 0x154F JUMP JUMPDEST CALLVALUE PUSH2 0x327 JUMPI PUSH2 0x775 CALLDATASIZE PUSH1 0x4 PUSH2 0x39A JUMP JUMPDEST PUSH2 0x396 PUSH2 0x384 PUSH2 0x1571 JUMP JUMPDEST CALLVALUE PUSH2 0x327 JUMPI PUSH2 0x396 PUSH2 0x79B PUSH2 0x796 CALLDATASIZE PUSH1 0x4 PUSH2 0x654 JUMP JUMPDEST PUSH2 0x157B JUMP JUMPDEST PUSH1 0x40 MLOAD SWAP2 DUP3 SWAP2 DUP3 PUSH4 0xFFFFFFFF SWAP1 SWAP2 AND DUP2 MSTORE PUSH1 0x20 ADD SWAP1 JUMP JUMPDEST CALLVALUE PUSH2 0x327 JUMPI PUSH2 0x396 PUSH2 0x4CD PUSH2 0x7C8 CALLDATASIZE PUSH1 0x4 PUSH2 0x654 JUMP JUMPDEST PUSH2 0x1584 JUMP JUMPDEST CALLVALUE PUSH2 0x327 JUMPI PUSH2 0x56B PUSH2 0x7E0 CALLDATASIZE PUSH1 0x4 PUSH2 0x473 JUMP JUMPDEST SWAP1 PUSH2 0x15A0 JUMP JUMPDEST CALLVALUE PUSH2 0x327 JUMPI PUSH2 0x56B PUSH2 0x7F9 CALLDATASIZE PUSH1 0x4 PUSH2 0x473 JUMP JUMPDEST SWAP1 PUSH2 0x1673 JUMP JUMPDEST CALLVALUE PUSH2 0x327 JUMPI PUSH2 0x396 PUSH2 0x4CD PUSH2 0x815 CALLDATASIZE PUSH1 0x4 PUSH2 0x654 JUMP JUMPDEST PUSH2 0x167D JUMP JUMPDEST CALLVALUE PUSH2 0x327 JUMPI PUSH2 0x82A CALLDATASIZE PUSH1 0x4 PUSH2 0x39A JUMP JUMPDEST PUSH2 0x56B PUSH2 0x16BA JUMP JUMPDEST SWAP1 PUSH2 0x852 PUSH2 0x84B PUSH2 0x841 DUP5 MLOAD SWAP1 JUMP JUMPDEST DUP1 DUP5 MSTORE SWAP3 PUSH1 0x20 ADD SWAP1 JUMP JUMPDEST SWAP3 PUSH1 0x20 ADD SWAP1 JUMP JUMPDEST SWAP1 PUSH1 0x0 JUMPDEST DUP2 DUP2 LT PUSH2 0x863 JUMPI POP POP POP SWAP1 JUMP JUMPDEST SWAP1 SWAP2 SWAP3 PUSH2 0x880 PUSH2 0x879 PUSH1 0x1 SWAP3 DUP7 MLOAD DUP2 MSTORE PUSH1 0x20 ADD SWAP1 JUMP JUMPDEST SWAP5 PUSH1 0x20 ADD SWAP1 JUMP JUMPDEST SWAP3 SWAP2 ADD PUSH2 0x856 JUMP JUMPDEST SWAP4 SWAP6 SWAP2 SWAP5 PUSH2 0x8E0 PUSH2 0x8D8 PUSH2 0x8F7 SWAP6 PUSH2 0x8CA PUSH2 0x8F0 SWAP6 PUSH2 0x362 SWAP13 SWAP11 PUSH2 0x8BD PUSH1 0xE0 DUP13 ADD SWAP3 PUSH1 0x0 DUP14 ADD SWAP1 PUSH1 0x1 PUSH1 0x1 PUSH1 0xF8 SHL SUB NOT AND SWAP1 MSTORE JUMP JUMPDEST DUP11 DUP3 SUB PUSH1 0x20 DUP13 ADD MSTORE PUSH2 0x3C8 JUMP JUMPDEST SWAP1 DUP9 DUP3 SUB PUSH1 0x40 DUP11 ADD MSTORE PUSH2 0x3C8 JUMP JUMPDEST SWAP8 PUSH1 0x60 DUP8 ADD MSTORE JUMP JUMPDEST PUSH1 0x1 PUSH1 0x1 PUSH1 0xA0 SHL SUB AND PUSH1 0x80 DUP6 ADD MSTORE JUMP JUMPDEST PUSH1 0xA0 DUP4 ADD MSTORE JUMP JUMPDEST PUSH1 0xC0 DUP2 DUP5 SUB SWAP2 ADD MSTORE PUSH2 0x832 JUMP JUMPDEST CALLVALUE PUSH2 0x327 JUMPI PUSH2 0x914 CALLDATASIZE PUSH1 0x4 PUSH2 0x39A JUMP JUMPDEST PUSH2 0x396 PUSH2 0x91F PUSH2 0x170F JUMP JUMPDEST SWAP4 PUSH2 0x92F SWAP8 SWAP6 SWAP8 SWAP4 SWAP2 SWAP4 PUSH1 0x40 MLOAD SWAP1 JUMP JUMPDEST SWAP8 DUP9 SWAP8 DUP9 PUSH2 0x888 JUMP JUMPDEST CALLVALUE PUSH2 0x327 JUMPI PUSH2 0x396 PUSH2 0x4CD PUSH2 0x94E CALLDATASIZE PUSH1 0x4 PUSH2 0x523 JUMP JUMPDEST PUSH2 0x1755 JUMP JUMPDEST CALLVALUE PUSH2 0x327 JUMPI PUSH2 0x396 PUSH2 0x384 PUSH2 0x969 CALLDATASIZE PUSH1 0x4 PUSH2 0x570 JUMP JUMPDEST SWAP1 PUSH2 0x178D JUMP JUMPDEST CALLVALUE PUSH2 0x327 JUMPI PUSH2 0x97F CALLDATASIZE PUSH1 0x4 PUSH2 0x39A JUMP JUMPDEST PUSH2 0x396 PUSH2 0x98A PUSH2 0x17AD JUMP JUMPDEST PUSH1 0x40 MLOAD SWAP2 DUP3 SWAP2 DUP3 PUSH6 0xFFFFFFFFFFFF SWAP1 SWAP2 AND DUP2 MSTORE PUSH1 0x20 ADD SWAP1 JUMP JUMPDEST CALLVALUE PUSH2 0x327 JUMPI PUSH2 0x9B3 CALLDATASIZE PUSH1 0x4 PUSH2 0x39A JUMP JUMPDEST PUSH2 0x396 PUSH2 0x42C PUSH2 0x17B5 JUMP JUMPDEST CALLVALUE PUSH2 0x327 JUMPI PUSH2 0x396 PUSH2 0x4CD PUSH2 0x9D4 CALLDATASIZE PUSH1 0x4 PUSH2 0x654 JUMP JUMPDEST PUSH2 0x17BF JUMP JUMPDEST CALLVALUE PUSH2 0x327 JUMPI PUSH2 0x396 PUSH2 0x4CD PUSH2 0x9EF CALLDATASIZE PUSH1 0x4 PUSH2 0x654 JUMP JUMPDEST PUSH2 0x17E1 JUMP JUMPDEST PUSH2 0x362 PUSH1 0x0 PUSH2 0x5DB JUMP JUMPDEST PUSH2 0x362 PUSH2 0x9F4 JUMP JUMPDEST CALLVALUE PUSH2 0x327 JUMPI PUSH2 0xA16 CALLDATASIZE PUSH1 0x4 PUSH2 0x39A JUMP JUMPDEST PUSH2 0x396 PUSH2 0x4CD PUSH2 0x9FE JUMP JUMPDEST CALLVALUE PUSH2 0x327 JUMPI PUSH2 0x396 PUSH2 0x384 PUSH2 0xA37 CALLDATASIZE PUSH1 0x4 PUSH2 0x473 JUMP JUMPDEST SWAP1 PUSH2 0x17FD JUMP JUMPDEST CALLVALUE PUSH2 0x327 JUMPI PUSH2 0xA4D CALLDATASIZE PUSH1 0x4 PUSH2 0x39A JUMP JUMPDEST PUSH2 0x396 PUSH32 0xF7B34CF87AF24CE01C1AFF9F518B133989851466D994E0016FC14651FA02826C PUSH2 0x4CD JUMP JUMPDEST PUSH1 0xFF DUP2 AND PUSH2 0x338 JUMP JUMPDEST SWAP1 POP CALLDATALOAD SWAP1 PUSH2 0x34C DUP3 PUSH2 0xA76 JUMP JUMPDEST SWAP1 SWAP2 PUSH1 0xC0 DUP3 DUP5 SUB SLT PUSH2 0x327 JUMPI PUSH2 0xAA2 DUP4 DUP4 PUSH2 0x453 JUMP JUMPDEST SWAP3 PUSH2 0xAB0 DUP2 PUSH1 0x20 DUP6 ADD PUSH2 0x466 JUMP JUMPDEST SWAP3 PUSH2 0xABE DUP3 PUSH1 0x40 DUP4 ADD PUSH2 0x466 JUMP JUMPDEST SWAP3 PUSH2 0x362 PUSH2 0xACF DUP5 PUSH1 0x60 DUP6 ADD PUSH2 0xA7F JUMP JUMPDEST SWAP4 PUSH1 0xA0 PUSH2 0x48F DUP3 PUSH1 0x80 DUP8 ADD PUSH2 0x466 JUMP JUMPDEST CALLVALUE PUSH2 0x327 JUMPI PUSH2 0x56B PUSH2 0xAF2 CALLDATASIZE PUSH1 0x4 PUSH2 0xA8C JUMP JUMPDEST SWAP5 SWAP4 SWAP1 SWAP4 SWAP3 SWAP2 SWAP3 PUSH2 0x183E JUMP JUMPDEST CALLVALUE PUSH2 0x327 JUMPI PUSH2 0xB0E CALLDATASIZE PUSH1 0x4 PUSH2 0x39A JUMP JUMPDEST PUSH2 0x396 PUSH32 0xE28434228950B641DBBC0178DE89DAA359A87C6EE0D8399AEACE52A98FE902B9 PUSH2 0x4CD JUMP JUMPDEST CALLVALUE PUSH2 0x327 JUMPI PUSH2 0x396 PUSH2 0x4CD PUSH2 0xB4D CALLDATASIZE PUSH1 0x4 PUSH2 0x654 JUMP JUMPDEST PUSH2 0x18FB JUMP JUMPDEST PUSH1 0xE0 DUP2 DUP4 SUB SLT PUSH2 0x327 JUMPI PUSH2 0xB66 DUP3 DUP3 PUSH2 0x453 JUMP JUMPDEST SWAP3 PUSH2 0xB74 DUP4 PUSH1 0x20 DUP5 ADD PUSH2 0x453 JUMP JUMPDEST SWAP3 PUSH2 0xB82 DUP2 PUSH1 0x40 DUP6 ADD PUSH2 0x466 JUMP JUMPDEST SWAP3 PUSH2 0xB90 DUP3 PUSH1 0x60 DUP4 ADD PUSH2 0x466 JUMP JUMPDEST SWAP3 PUSH2 0x362 PUSH2 0xBA1 DUP5 PUSH1 0x80 DUP6 ADD PUSH2 0xA7F JUMP JUMPDEST SWAP4 PUSH1 0xC0 PUSH2 0x48F DUP3 PUSH1 0xA0 DUP8 ADD PUSH2 0x466 JUMP JUMPDEST CALLVALUE PUSH2 0x327 JUMPI PUSH2 0x56B PUSH2 0xBC4 CALLDATASIZE PUSH1 0x4 PUSH2 0xB52 JUMP JUMPDEST SWAP6 SWAP5 SWAP1 SWAP5 SWAP4 SWAP2 SWAP4 PUSH2 0x1992 JUMP JUMPDEST CALLVALUE PUSH2 0x327 JUMPI PUSH2 0xBE0 CALLDATASIZE PUSH1 0x4 PUSH2 0x39A JUMP JUMPDEST PUSH2 0x396 PUSH32 0x9F2DF0FED2C77648DE5860A4CC508CD0818C85B8B8A1AB4CEEEF8D981C8956A6 PUSH2 0x4CD JUMP JUMPDEST CALLVALUE PUSH2 0x327 JUMPI PUSH2 0x56B PUSH2 0xC1C CALLDATASIZE PUSH1 0x4 PUSH2 0x570 JUMP JUMPDEST SWAP1 PUSH2 0x1A8D JUMP JUMPDEST CALLVALUE PUSH2 0x327 JUMPI PUSH2 0xC32 CALLDATASIZE PUSH1 0x4 PUSH2 0x39A JUMP JUMPDEST PUSH2 0x396 PUSH2 0x4CD PUSH2 0x1A97 JUMP JUMPDEST SWAP2 SWAP1 PUSH1 0x40 DUP4 DUP3 SUB SLT PUSH2 0x327 JUMPI PUSH2 0x362 SWAP1 PUSH1 0x20 PUSH2 0x58C DUP3 DUP7 PUSH2 0x453 JUMP JUMPDEST CALLVALUE PUSH2 0x327 JUMPI PUSH2 0x396 PUSH2 0x4CD PUSH2 0xC6F CALLDATASIZE PUSH1 0x4 PUSH2 0xC3D JUMP JUMPDEST SWAP1 PUSH2 0x1AAA JUMP JUMPDEST CALLVALUE PUSH2 0x327 JUMPI PUSH2 0x396 PUSH2 0x384 PUSH2 0xC8B CALLDATASIZE PUSH1 0x4 PUSH2 0x654 JUMP JUMPDEST PUSH2 0x1ACA JUMP JUMPDEST CALLVALUE PUSH2 0x327 JUMPI PUSH2 0xCA0 CALLDATASIZE PUSH1 0x4 PUSH2 0x39A JUMP JUMPDEST PUSH2 0x396 PUSH32 0x65D7A28E3265B37A6474929F336521B332C1681B933F6CB9F3376673440D862A PUSH2 0x4CD JUMP JUMPDEST PUSH4 0xFFFFFFFF DUP2 AND PUSH2 0x338 JUMP JUMPDEST SWAP1 POP CALLDATALOAD SWAP1 PUSH2 0x34C DUP3 PUSH2 0xCC9 JUMP JUMPDEST SWAP2 SWAP1 PUSH1 0x40 DUP4 DUP3 SUB SLT PUSH2 0x327 JUMPI PUSH2 0x362 SWAP1 PUSH1 0x20 PUSH2 0xCFE DUP3 DUP7 PUSH2 0x453 JUMP JUMPDEST SWAP5 ADD PUSH2 0xCD5 JUMP JUMPDEST PUSH1 0x40 DUP2 ADD SWAP3 SWAP2 PUSH2 0x34C SWAP2 SWAP1 DUP1 MLOAD PUSH6 0xFFFFFFFFFFFF AND DUP3 MSTORE PUSH1 0x20 SWAP1 DUP2 ADD MLOAD PUSH1 0x1 PUSH1 0x1 PUSH1 0xD0 SHL SUB AND SWAP2 ADD MSTORE JUMP JUMPDEST CALLVALUE PUSH2 0x327 JUMPI PUSH2 0x396 PUSH2 0xD4C PUSH2 0xD46 CALLDATASIZE PUSH1 0x4 PUSH2 0xCE2 JUMP JUMPDEST SWAP1 PUSH2 0x1B09 JUMP JUMPDEST PUSH1 0x40 MLOAD SWAP2 DUP3 SWAP2 DUP3 PUSH2 0xD05 JUMP JUMPDEST PUSH4 0x4E487B71 PUSH1 0xE0 SHL PUSH1 0x0 MSTORE PUSH1 0x11 PUSH1 0x4 MSTORE PUSH1 0x24 PUSH1 0x0 REVERT JUMPDEST PUSH2 0xD89 SWAP1 PUSH1 0x1 PUSH1 0x1 PUSH1 0xD0 SHL SUB AND JUMPDEST SWAP2 PUSH1 0x1 PUSH1 0x1 PUSH1 0xD0 SHL SUB AND SWAP1 JUMP JUMPDEST ADD SWAP1 PUSH1 0x1 PUSH1 0x1 PUSH1 0xD0 SHL SUB DUP3 GT PUSH2 0xD9B JUMPI JUMP JUMPDEST PUSH2 0xD58 JUMP JUMPDEST PUSH2 0x362 SWAP2 SWAP1 PUSH2 0xD6E JUMP JUMPDEST PUSH2 0xDBC SWAP1 PUSH1 0x1 PUSH1 0x1 PUSH1 0xD0 SHL SUB AND PUSH2 0xD7C JUMP JUMPDEST SWAP1 SUB SWAP1 PUSH1 0x1 PUSH1 0x1 PUSH1 0xD0 SHL SUB DUP3 GT PUSH2 0xD9B JUMPI JUMP JUMPDEST PUSH2 0x362 SWAP2 SWAP1 PUSH2 0xDAA JUMP JUMPDEST PUSH4 0x7965DB0B PUSH1 0xE0 SHL PUSH1 0x1 PUSH1 0x1 PUSH1 0xE0 SHL SUB NOT DUP3 AND EQ SWAP1 DUP2 ISZERO PUSH2 0xDF8 JUMPI POP SWAP1 JUMP JUMPDEST PUSH2 0x362 SWAP2 POP PUSH1 0x1 PUSH1 0x1 PUSH1 0xE0 SHL SUB NOT AND PUSH4 0x1FFC9A7 PUSH1 0xE0 SHL EQ SWAP1 JUMP JUMPDEST PUSH4 0x4E487B71 PUSH1 0xE0 SHL PUSH1 0x0 MSTORE PUSH1 0x22 PUSH1 0x4 MSTORE PUSH1 0x24 PUSH1 0x0 REVERT JUMPDEST SWAP1 PUSH1 0x1 PUSH1 0x2 DUP4 DIV SWAP3 AND DUP1 ISZERO PUSH2 0xE49 JUMPI JUMPDEST PUSH1 0x20 DUP4 LT EQ PUSH2 0xE44 JUMPI JUMP JUMPDEST PUSH2 0xE13 JUMP JUMPDEST SWAP2 PUSH1 0x7F AND SWAP2 PUSH2 0xE39 JUMP JUMPDEST DUP1 SLOAD PUSH1 0x0 SWAP4 SWAP3 SWAP2 PUSH2 0xE70 PUSH2 0xE66 DUP4 PUSH2 0xE29 JUMP JUMPDEST DUP1 DUP6 MSTORE SWAP4 PUSH1 0x20 ADD SWAP1 JUMP JUMPDEST SWAP2 PUSH1 0x1 DUP2 AND SWAP1 DUP2 ISZERO PUSH2 0xEC2 JUMPI POP PUSH1 0x1 EQ PUSH2 0xE89 JUMPI POP POP POP JUMP JUMPDEST PUSH2 0xE9C SWAP2 SWAP3 SWAP4 SWAP5 POP PUSH1 0x0 MSTORE PUSH1 0x20 PUSH1 0x0 KECCAK256 SWAP1 JUMP JUMPDEST SWAP2 PUSH1 0x0 SWAP3 JUMPDEST DUP2 DUP5 LT PUSH2 0xEAE JUMPI POP POP ADD SWAP1 JUMP JUMPDEST DUP1 SLOAD DUP5 DUP5 ADD MSTORE PUSH1 0x20 SWAP1 SWAP4 ADD SWAP3 PUSH1 0x1 ADD PUSH2 0xEA1 JUMP JUMPDEST SWAP3 SWAP5 SWAP6 POP POP POP PUSH1 0xFF NOT AND DUP3 MSTORE ISZERO ISZERO PUSH1 0x20 MUL ADD SWAP1 JUMP JUMPDEST SWAP1 PUSH2 0x362 SWAP2 PUSH2 0xE53 JUMP JUMPDEST PUSH4 0x4E487B71 PUSH1 0xE0 SHL PUSH1 0x0 MSTORE PUSH1 0x41 PUSH1 0x4 MSTORE PUSH1 0x24 PUSH1 0x0 REVERT JUMPDEST SWAP1 PUSH1 0x1F ADD PUSH1 0x1F NOT AND DUP2 ADD SWAP1 DUP2 LT PUSH8 0xFFFFFFFFFFFFFFFF DUP3 GT OR PUSH2 0xF19 JUMPI PUSH1 0x40 MSTORE JUMP JUMPDEST PUSH2 0xEE1 JUMP JUMPDEST SWAP1 PUSH2 0x34C PUSH2 0xF38 SWAP3 PUSH2 0xF2F PUSH1 0x40 MLOAD SWAP1 JUMP JUMPDEST SWAP4 DUP5 DUP1 SWAP3 PUSH2 0xED7 JUMP JUMPDEST SUB DUP4 PUSH2 0xEF7 JUMP JUMPDEST PUSH2 0x362 SWAP1 PUSH2 0xF1E JUMP JUMPDEST PUSH2 0x362 PUSH1 0x3 PUSH2 0xF3F JUMP JUMPDEST PUSH2 0xF5D SWAP2 SWAP1 CALLER PUSH2 0x1B1C JUMP JUMPDEST PUSH1 0x1 SWAP1 JUMP JUMPDEST PUSH2 0x362 SWAP1 DUP2 JUMP JUMPDEST PUSH2 0x362 SWAP1 SLOAD PUSH2 0xF62 JUMP JUMPDEST PUSH2 0x362 PUSH1 0x2 PUSH2 0xF69 JUMP JUMPDEST PUSH2 0xF5D SWAP3 SWAP2 SWAP1 PUSH2 0xF8F DUP4 CALLER JUMPDEST DUP4 PUSH2 0x1B50 JUMP JUMPDEST PUSH2 0x1BB5 JUMP JUMPDEST SWAP1 JUMPDEST PUSH1 0x0 MSTORE PUSH1 0x20 MSTORE PUSH1 0x40 PUSH1 0x0 KECCAK256 SWAP1 JUMP JUMPDEST PUSH1 0x1 PUSH2 0xFBD PUSH2 0x362 SWAP3 PUSH2 0xFB5 PUSH1 0x0 SWAP1 JUMP JUMPDEST POP PUSH1 0x6 PUSH2 0xF94 JUMP JUMPDEST ADD PUSH2 0xF69 JUMP JUMPDEST SWAP1 PUSH2 0xFD4 PUSH2 0xFD0 CALLER PUSH2 0x1C62 JUMP JUMPDEST ISZERO SWAP1 JUMP JUMPDEST PUSH2 0xFE1 JUMPI PUSH2 0x34C SWAP2 PUSH2 0x1068 JUMP JUMPDEST PUSH1 0x40 MLOAD PUSH4 0xBB4BE5F3 PUSH1 0xE0 SHL DUP2 MSTORE PUSH1 0x4 SWAP1 REVERT JUMPDEST SUB SWAP1 REVERT JUMPDEST PUSH2 0x438 PUSH2 0x362 PUSH2 0x362 SWAP3 SWAP1 JUMP JUMPDEST PUSH2 0x362 SWAP1 PUSH2 0xFF7 JUMP JUMPDEST PUSH2 0x362 SWAP1 PUSH2 0x438 SWAP1 PUSH1 0x1 PUSH1 0x1 PUSH1 0xA0 SHL SUB AND DUP3 JUMP JUMPDEST PUSH2 0x362 SWAP1 PUSH2 0x100D JUMP JUMPDEST PUSH2 0x362 SWAP1 PUSH2 0x1021 JUMP JUMPDEST SWAP1 PUSH2 0xF96 SWAP1 PUSH2 0x102A JUMP JUMPDEST SWAP1 PUSH1 0x0 NOT SWAP1 JUMPDEST SWAP2 DUP2 NOT AND SWAP2 AND OR SWAP1 JUMP JUMPDEST SWAP1 PUSH2 0x105D PUSH2 0x362 PUSH2 0x1064 SWAP3 PUSH2 0x5DB JUMP JUMPDEST DUP3 SLOAD PUSH2 0x103D JUMP JUMPDEST SWAP1 SSTORE JUMP JUMPDEST PUSH2 0x1075 PUSH2 0x438 PUSH1 0x0 PUSH2 0x1004 JUMP JUMPDEST PUSH1 0x1 PUSH1 0x1 PUSH1 0xA0 SHL SUB DUP3 AND EQ PUSH2 0x111E JUMPI PUSH2 0x108D DUP2 PUSH2 0x17E1 JUMP JUMPDEST DUP3 SWAP1 PUSH2 0x1098 JUMP JUMPDEST SWAP2 SWAP1 JUMP JUMPDEST LT PUSH2 0x10ED JUMPI PUSH2 0x10E8 PUSH2 0x10DE DUP3 PUSH2 0x10D9 DUP6 PUSH2 0x10D4 PUSH32 0xA065E63C631C86F1B9F66A4A2F63F2093BF1C2168D23290259DBD969E0222A45 SWAP7 PUSH1 0x8 PUSH2 0x1033 JUMP JUMPDEST PUSH2 0x104D JUMP JUMPDEST PUSH2 0x102A JUMP JUMPDEST SWAP3 PUSH2 0x4D1 PUSH1 0x40 MLOAD SWAP1 JUMP JUMPDEST SUB SWAP1 LOG2 JUMP JUMPDEST PUSH2 0xFF3 SWAP1 PUSH2 0x10FA PUSH1 0x40 MLOAD SWAP1 JUMP JUMPDEST PUSH4 0x14884B49 PUSH1 0xE0 SHL DUP2 MSTORE SWAP2 DUP3 SWAP2 PUSH1 0x4 DUP4 ADD PUSH1 0x1 PUSH1 0x1 PUSH1 0xA0 SHL SUB SWAP1 SWAP2 AND DUP2 MSTORE PUSH1 0x20 ADD SWAP1 JUMP JUMPDEST PUSH1 0x40 MLOAD PUSH4 0x959D408B PUSH1 0xE0 SHL DUP2 MSTORE PUSH1 0x4 SWAP1 REVERT JUMPDEST SWAP1 PUSH2 0x34C SWAP2 PUSH2 0xFC3 JUMP JUMPDEST SWAP1 PUSH2 0x34C SWAP2 PUSH2 0x1150 PUSH2 0x114B DUP3 PUSH2 0xFA4 JUMP JUMPDEST PUSH2 0x1C8C JUMP JUMPDEST SWAP1 PUSH2 0x115A SWAP2 PUSH2 0x1CB7 JUMP JUMPDEST POP JUMP JUMPDEST SWAP1 PUSH2 0x34C SWAP2 PUSH2 0x113A JUMP JUMPDEST PUSH2 0x1174 PUSH2 0x362 PUSH2 0x362 SWAP3 SWAP1 JUMP JUMPDEST PUSH1 0xFF AND SWAP1 JUMP JUMPDEST PUSH2 0x362 PUSH1 0x12 PUSH2 0x1167 JUMP JUMPDEST PUSH2 0x362 PUSH2 0x1D33 JUMP JUMPDEST SWAP1 PUSH2 0x1196 CALLER PUSH2 0x438 JUMP JUMPDEST PUSH1 0x1 PUSH1 0x1 PUSH1 0xA0 SHL SUB DUP3 AND SUB PUSH2 0x11AE JUMPI PUSH2 0x115A SWAP2 PUSH2 0x1DD7 JUMP JUMPDEST PUSH1 0x40 MLOAD PUSH4 0x334BD919 PUSH1 0xE1 SHL DUP2 MSTORE PUSH1 0x4 SWAP1 REVERT JUMPDEST PUSH2 0x34C SWAP1 PUSH2 0x11ED PUSH32 0xF7B34CF87AF24CE01C1AFF9F518B133989851466D994E0016FC14651FA02826C PUSH2 0x1C8C JUMP JUMPDEST PUSH2 0x115A SWAP1 PUSH2 0x1E34 JUMP JUMPDEST PUSH2 0x34C SWAP1 PUSH2 0x11C0 JUMP JUMPDEST PUSH2 0x362 PUSH2 0x362 PUSH2 0x362 SWAP3 PUSH6 0xFFFFFFFFFFFF AND SWAP1 JUMP JUMPDEST PUSH2 0x362 SWAP1 DUP2 SWAP1 PUSH1 0x1 PUSH1 0x1 PUSH1 0xD0 SHL SUB AND DUP2 JUMP JUMPDEST PUSH2 0x122E PUSH2 0x17AD JUMP JUMPDEST PUSH2 0x1237 DUP2 PUSH2 0x11FF JUMP JUMPDEST DUP4 LT ISZERO PUSH2 0x1268 JUMPI POP PUSH2 0x362 SWAP2 PUSH2 0x125D PUSH2 0x1257 PUSH2 0x362 PUSH2 0x1263 SWAP5 PUSH1 0xD PUSH2 0x1033 JUMP JUMPDEST SWAP2 PUSH2 0x1EBD JUMP JUMPDEST SWAP1 PUSH2 0x1F3E JUMP JUMPDEST PUSH2 0x1214 JUMP JUMPDEST DUP3 PUSH2 0xFF3 PUSH2 0x1275 PUSH1 0x40 MLOAD SWAP1 JUMP JUMPDEST PUSH4 0x7669FC0F PUSH1 0xE1 SHL DUP2 MSTORE SWAP3 DUP4 SWAP3 PUSH1 0x4 DUP5 ADD SWAP1 DUP2 MSTORE PUSH6 0xFFFFFFFFFFFF SWAP1 SWAP2 AND PUSH1 0x20 DUP3 ADD MSTORE PUSH1 0x40 ADD SWAP1 JUMP JUMPDEST PUSH2 0x34C SWAP1 PUSH2 0x12CB PUSH32 0xF7B34CF87AF24CE01C1AFF9F518B133989851466D994E0016FC14651FA02826C PUSH2 0x1C8C JUMP JUMPDEST PUSH2 0x115A SWAP1 PUSH2 0x201D JUMP JUMPDEST PUSH2 0x34C SWAP1 PUSH2 0x129E JUMP JUMPDEST PUSH2 0x1306 PUSH32 0x65D7A28E3265B37A6474929F336521B332C1681B933F6CB9F3376673440D862A PUSH2 0x1C8C JUMP JUMPDEST PUSH2 0x34C PUSH2 0x34C PUSH2 0x20B5 JUMP JUMPDEST PUSH2 0x34C PUSH2 0x12DD JUMP JUMPDEST PUSH2 0x34C SWAP2 SWAP1 PUSH2 0x1347 PUSH32 0x9F2DF0FED2C77648DE5860A4CC508CD0818C85B8B8A1AB4CEEEF8D981C8956A6 PUSH2 0x1C8C JUMP JUMPDEST PUSH2 0x13BC JUMP JUMPDEST SWAP2 SWAP1 DUP3 ADD DUP1 SWAP3 GT PUSH2 0xD9B JUMPI JUMP JUMPDEST ISZERO PUSH2 0x1360 JUMPI JUMP JUMPDEST PUSH1 0x40 MLOAD PUSH3 0x461BCD PUSH1 0xE5 SHL DUP2 MSTORE PUSH1 0x20 PUSH1 0x4 DUP3 ADD MSTORE PUSH1 0x19 PUSH1 0x24 DUP3 ADD MSTORE PUSH32 0x555356503A204D617820737570706C7920657863656564656400000000000000 PUSH1 0x44 DUP3 ADD MSTORE PUSH1 0x64 SWAP1 REVERT JUMPDEST SWAP1 DUP2 MSTORE PUSH1 0x40 DUP2 ADD SWAP3 SWAP2 PUSH2 0x34C SWAP2 PUSH1 0x20 ADD MSTORE JUMP JUMPDEST ADD MSTORE JUMP JUMPDEST PUSH32 0x2E8AC5177A616F2AEC08C3048F5021E4E9743ECE034E8D83BA5CAF76688BB475 SWAP1 PUSH2 0x1407 PUSH2 0x13F2 DUP5 PUSH2 0x13ED PUSH2 0xF73 JUMP JUMPDEST PUSH2 0x134C JUMP JUMPDEST PUSH2 0x1400 PUSH2 0x1094 PUSH2 0x362 PUSH2 0x5E8 JUMP JUMPDEST GT ISZERO PUSH2 0x1359 JUMP JUMPDEST PUSH2 0x1411 DUP4 DUP3 PUSH2 0x20BD JUMP JUMPDEST PUSH2 0x1422 PUSH2 0x141C PUSH2 0xF73 JUMP JUMPDEST SWAP2 PUSH2 0x102A JUMP JUMPDEST SWAP3 PUSH2 0x10E8 PUSH2 0x142F PUSH1 0x40 MLOAD SWAP1 JUMP JUMPDEST SWAP3 DUP4 SWAP3 DUP4 PUSH2 0x13A5 JUMP JUMPDEST SWAP1 PUSH2 0x34C SWAP2 PUSH2 0x1319 JUMP JUMPDEST PUSH2 0x34C SWAP1 CALLER PUSH2 0x20FA JUMP JUMPDEST PUSH2 0x20FA JUMP JUMPDEST SWAP1 PUSH2 0x34C PUSH2 0x145E PUSH1 0x40 MLOAD SWAP1 JUMP JUMPDEST SWAP3 DUP4 PUSH2 0xEF7 JUMP JUMPDEST PUSH8 0xFFFFFFFFFFFFFFFF DUP2 GT PUSH2 0xF19 JUMPI PUSH1 0x20 SWAP1 PUSH1 0x1F ADD PUSH1 0x1F NOT AND ADD SWAP1 JUMP JUMPDEST SWAP1 PUSH2 0x1494 PUSH2 0x148F DUP4 PUSH2 0x1465 JUMP JUMPDEST PUSH2 0x1451 JUMP JUMPDEST SWAP2 DUP3 MSTORE JUMP JUMPDEST PUSH2 0x14A3 PUSH1 0x1D PUSH2 0x1482 JUMP JUMPDEST PUSH32 0x6D6F64653D626C6F636B6E756D6265722666726F6D3D64656661756C74000000 PUSH1 0x20 DUP3 ADD MSTORE SWAP1 JUMP JUMPDEST PUSH2 0x362 PUSH2 0x1499 JUMP JUMPDEST PUSH2 0x14DC PUSH2 0x17AD JUMP JUMPDEST PUSH2 0x1501 PUSH2 0x14F5 PUSH2 0x14EA PUSH2 0x2138 JUMP JUMPDEST PUSH6 0xFFFFFFFFFFFF AND SWAP1 JUMP JUMPDEST SWAP2 PUSH6 0xFFFFFFFFFFFF AND SWAP1 JUMP JUMPDEST SUB PUSH2 0x150E JUMPI PUSH2 0x362 PUSH2 0x14CC JUMP JUMPDEST PUSH1 0x40 MLOAD PUSH4 0x1BFC1C5 PUSH1 0xE6 SHL DUP2 MSTORE PUSH1 0x4 SWAP1 REVERT JUMPDEST PUSH2 0x362 SWAP1 PUSH2 0x438 JUMP JUMPDEST PUSH2 0x362 SWAP1 SLOAD PUSH2 0x1520 JUMP JUMPDEST PUSH2 0x154A PUSH2 0x362 SWAP2 PUSH2 0x1542 PUSH1 0x0 SWAP1 JUMP JUMPDEST POP PUSH1 0xC PUSH2 0x1033 JUMP JUMPDEST PUSH2 0x1529 JUMP JUMPDEST PUSH2 0x34C SWAP1 CALLER PUSH2 0x2167 JUMP JUMPDEST PUSH2 0x2167 JUMP JUMPDEST PUSH2 0x362 SWAP1 PUSH2 0x1174 JUMP JUMPDEST PUSH2 0x362 SWAP1 SLOAD PUSH2 0x155E JUMP JUMPDEST PUSH2 0x362 PUSH1 0x5 PUSH2 0x1567 JUMP JUMPDEST PUSH2 0x362 SWAP1 PUSH2 0x21E1 JUMP JUMPDEST PUSH2 0x159B PUSH2 0x362 SWAP2 PUSH2 0x1593 PUSH1 0x0 SWAP1 JUMP JUMPDEST POP PUSH1 0x0 PUSH2 0x1033 JUMP JUMPDEST PUSH2 0xF69 JUMP JUMPDEST PUSH2 0x34C SWAP2 SWAP1 PUSH2 0x144C DUP3 CALLER PUSH2 0xF89 JUMP JUMPDEST SWAP1 PUSH2 0x15BC PUSH2 0xFD0 CALLER PUSH2 0x1C62 JUMP JUMPDEST PUSH2 0xFE1 JUMPI PUSH2 0x34C SWAP2 PUSH2 0x15D6 JUMP JUMPDEST SWAP2 SWAP1 DUP3 SUB SWAP2 DUP3 GT PUSH2 0xD9B JUMPI JUMP JUMPDEST PUSH2 0x15E3 PUSH2 0x438 PUSH1 0x0 PUSH2 0x1004 JUMP JUMPDEST PUSH1 0x1 PUSH1 0x1 PUSH1 0xA0 SHL SUB DUP3 AND EQ PUSH2 0x111E JUMPI PUSH2 0x15FB DUP2 PUSH2 0x18FB JUMP JUMPDEST DUP3 DUP2 LT PUSH2 0x1642 JUMPI PUSH2 0x10DE PUSH32 0x9BED35CB62AD0DBA04F9D5BFEE4B5BC91443E77DA8A65C4C84834C51BB08B0D6 SWAP3 PUSH2 0x10D9 PUSH2 0x1637 DUP7 PUSH2 0x10E8 SWAP6 PUSH2 0x15C9 JUMP JUMPDEST PUSH2 0x10D4 DUP4 PUSH1 0x8 PUSH2 0x1033 JUMP JUMPDEST PUSH2 0xFF3 DUP3 PUSH2 0x164F PUSH1 0x40 MLOAD SWAP1 JUMP JUMPDEST PUSH4 0x168ECF91 PUSH1 0xE3 SHL DUP2 MSTORE SWAP2 DUP3 SWAP2 PUSH1 0x4 DUP4 ADD PUSH1 0x1 PUSH1 0x1 PUSH1 0xA0 SHL SUB SWAP1 SWAP2 AND DUP2 MSTORE PUSH1 0x20 ADD SWAP1 JUMP JUMPDEST SWAP1 PUSH2 0x34C SWAP2 PUSH2 0x15AF JUMP JUMPDEST PUSH2 0x362 SWAP1 PUSH2 0x2200 JUMP JUMPDEST PUSH2 0x16AF PUSH32 0x65D7A28E3265B37A6474929F336521B332C1681B933F6CB9F3376673440D862A PUSH2 0x1C8C JUMP JUMPDEST PUSH2 0x34C PUSH2 0x34C PUSH2 0x224A JUMP JUMPDEST PUSH2 0x34C PUSH2 0x1686 JUMP JUMPDEST PUSH8 0xFFFFFFFFFFFFFFFF DUP2 GT PUSH2 0xF19 JUMPI PUSH1 0x20 DUP1 SWAP2 MUL ADD SWAP1 JUMP JUMPDEST SWAP1 PUSH2 0x1494 PUSH2 0x148F DUP4 PUSH2 0x16C2 JUMP JUMPDEST CALLDATASIZE SWAP1 CALLDATACOPY JUMP JUMPDEST SWAP1 PUSH2 0x34C PUSH2 0x1702 PUSH2 0x16FC DUP5 PUSH2 0x16DA JUMP JUMPDEST SWAP4 PUSH2 0x16C2 JUMP JUMPDEST PUSH1 0x1F NOT ADD PUSH1 0x20 DUP5 ADD PUSH2 0x16E7 JUMP JUMPDEST PUSH2 0x1717 PUSH2 0x2252 JUMP JUMPDEST SWAP1 PUSH2 0x1720 PUSH2 0x227F JUMP JUMPDEST SWAP1 PUSH2 0x172A ADDRESS PUSH2 0x102A JUMP JUMPDEST PUSH2 0x1734 PUSH1 0x0 PUSH2 0x5DB JUMP JUMPDEST PUSH2 0x1746 PUSH2 0x1741 PUSH1 0x0 PUSH2 0x5DB JUMP JUMPDEST PUSH2 0x16EC JUMP JUMPDEST PUSH1 0xF PUSH1 0xF8 SHL SWAP6 SWAP5 SWAP4 CHAINID SWAP4 SWAP3 SWAP2 SWAP1 JUMP JUMPDEST PUSH2 0x175D PUSH2 0x17AD JUMP JUMPDEST PUSH2 0x1766 DUP2 PUSH2 0x11FF JUMP JUMPDEST DUP3 LT ISZERO PUSH2 0x1780 JUMPI POP PUSH2 0x1263 PUSH2 0x362 SWAP2 PUSH2 0x125D PUSH2 0x1257 PUSH1 0xE SWAP1 JUMP JUMPDEST SWAP1 PUSH2 0xFF3 PUSH2 0x1275 PUSH1 0x40 MLOAD SWAP1 JUMP JUMPDEST PUSH2 0x362 SWAP2 PUSH1 0x0 PUSH2 0x17A2 PUSH2 0x17A8 SWAP4 PUSH2 0xFB5 PUSH1 0x0 SWAP1 JUMP JUMPDEST ADD PUSH2 0x1033 JUMP JUMPDEST PUSH2 0x1567 JUMP JUMPDEST PUSH2 0x362 PUSH2 0x2138 JUMP JUMPDEST PUSH2 0x362 PUSH1 0x4 PUSH2 0xF3F JUMP JUMPDEST PUSH2 0x1263 PUSH2 0x17DC PUSH2 0x362 PUSH2 0x362 SWAP4 PUSH2 0x17D4 PUSH1 0x0 SWAP1 JUMP JUMPDEST POP PUSH1 0xD PUSH2 0x1033 JUMP JUMPDEST PUSH2 0x22AA JUMP JUMPDEST PUSH2 0x362 SWAP1 PUSH2 0x17F7 PUSH2 0x17F1 DUP3 PUSH2 0x1584 JUMP JUMPDEST SWAP2 PUSH2 0x18FB JUMP JUMPDEST SWAP1 PUSH2 0x15C9 JUMP JUMPDEST PUSH2 0xF5D SWAP2 SWAP1 CALLER PUSH2 0x1BB5 JUMP JUMPDEST PUSH2 0x13B8 PUSH2 0x34C SWAP5 PUSH2 0x1837 PUSH1 0x60 SWAP5 SWAP9 SWAP8 SWAP6 PUSH2 0x1827 PUSH1 0x80 DUP7 ADD SWAP11 PUSH1 0x0 DUP8 ADD MSTORE JUMP JUMPDEST PUSH1 0x1 PUSH1 0x1 PUSH1 0xA0 SHL SUB AND PUSH1 0x20 DUP6 ADD MSTORE JUMP JUMPDEST PUSH1 0x40 DUP4 ADD MSTORE JUMP JUMPDEST SWAP2 SWAP6 SWAP5 SWAP2 SWAP4 SWAP1 SWAP3 DUP7 TIMESTAMP GT PUSH2 0x18D4 JUMPI SWAP2 PUSH2 0x18CD SWAP2 PUSH2 0x1559 SWAP4 PUSH2 0x18C8 DUP7 PUSH2 0x18B0 DUP10 PUSH2 0x34C SWAP12 SWAP13 PUSH2 0x18A4 PUSH2 0x188C PUSH32 0xE48329057BFD03D55E49B547132E39CFFD9C1820AD7B9D4C5307691425D15ADF SWAP1 JUMP JUMPDEST SWAP2 PUSH2 0x1896 PUSH1 0x40 MLOAD SWAP1 JUMP JUMPDEST SWAP6 DUP7 SWAP5 PUSH1 0x20 DUP7 ADD SWAP5 DUP6 PUSH2 0x1808 JUMP JUMPDEST SWAP1 DUP2 SUB DUP3 MSTORE SUB DUP3 PUSH2 0xEF7 JUMP JUMPDEST PUSH2 0x18C2 PUSH2 0x18BB DUP3 MLOAD SWAP1 JUMP JUMPDEST SWAP2 PUSH1 0x20 ADD SWAP1 JUMP JUMPDEST KECCAK256 PUSH2 0x22E5 JUMP JUMPDEST PUSH2 0x230E JUMP JUMPDEST SWAP2 DUP3 PUSH2 0x234C JUMP JUMPDEST PUSH2 0xFF3 DUP8 PUSH2 0x18E1 PUSH1 0x40 MLOAD SWAP1 JUMP JUMPDEST PUSH4 0x2341D787 PUSH1 0xE1 SHL DUP2 MSTORE SWAP2 DUP3 SWAP2 PUSH1 0x4 DUP4 ADD SWAP1 DUP2 MSTORE PUSH1 0x20 ADD SWAP1 JUMP JUMPDEST PUSH2 0x159B PUSH2 0x362 SWAP2 PUSH2 0x190A PUSH1 0x0 SWAP1 JUMP JUMPDEST POP PUSH1 0x8 PUSH2 0x1033 JUMP JUMPDEST SWAP2 SWAP5 PUSH2 0x1961 PUSH2 0x13B8 SWAP3 SWAP9 SWAP8 SWAP6 PUSH2 0x195A PUSH1 0xA0 SWAP7 PUSH2 0x194A PUSH2 0x34C SWAP11 PUSH2 0x193A PUSH1 0xC0 DUP11 ADD SWAP15 PUSH1 0x0 DUP12 ADD MSTORE JUMP JUMPDEST PUSH1 0x1 PUSH1 0x1 PUSH1 0xA0 SHL SUB AND PUSH1 0x20 DUP10 ADD MSTORE JUMP JUMPDEST PUSH1 0x1 PUSH1 0x1 PUSH1 0xA0 SHL SUB AND PUSH1 0x40 DUP8 ADD MSTORE JUMP JUMPDEST PUSH1 0x60 DUP6 ADD MSTORE JUMP JUMPDEST PUSH1 0x80 DUP4 ADD MSTORE JUMP JUMPDEST PUSH1 0x1 PUSH1 0x1 PUSH1 0xA0 SHL SUB SWAP1 SWAP2 AND DUP2 MSTORE PUSH1 0x40 DUP2 ADD SWAP3 SWAP2 PUSH2 0x34C SWAP2 PUSH1 0x20 SWAP1 JUMPDEST ADD SWAP1 PUSH1 0x1 PUSH1 0x1 PUSH1 0xA0 SHL SUB AND SWAP1 MSTORE JUMP JUMPDEST SWAP7 SWAP6 SWAP3 SWAP5 SWAP2 SWAP5 SWAP4 SWAP1 SWAP4 PUSH2 0x19A2 DUP2 SWAP1 JUMP JUMPDEST TIMESTAMP GT PUSH2 0x1A4B JUMPI SWAP1 PUSH2 0x18C8 DUP6 PUSH2 0x18B0 DUP11 PUSH2 0x1A03 SWAP8 SWAP7 SWAP6 PUSH2 0x18A4 PUSH2 0x19E1 PUSH32 0x6E71EDAE12B1B97F4D1F60370FEF10105FA2FAAE0126114A169C64845D6126C9 SWAP1 JUMP JUMPDEST SWAP2 PUSH2 0x19EB DUP5 PUSH2 0x2383 JUMP JUMPDEST DUP14 PUSH2 0x19F5 PUSH1 0x40 MLOAD SWAP1 JUMP JUMPDEST SWAP8 DUP9 SWAP7 PUSH1 0x20 DUP9 ADD SWAP7 DUP8 PUSH2 0x1912 JUMP JUMPDEST PUSH1 0x1 PUSH1 0x1 PUSH1 0xA0 SHL SUB DUP6 AND PUSH1 0x1 PUSH1 0x1 PUSH1 0xA0 SHL SUB DUP3 AND SUB PUSH2 0x1A27 JUMPI POP PUSH2 0x34C SWAP3 SWAP4 PUSH2 0x1B1C JUMP JUMPDEST DUP5 SWAP1 PUSH2 0xFF3 PUSH2 0x1A35 PUSH1 0x40 MLOAD SWAP1 JUMP JUMPDEST PUSH4 0x25C00723 PUSH1 0xE1 SHL DUP2 MSTORE SWAP3 DUP4 SWAP3 PUSH1 0x4 DUP5 ADD PUSH2 0x1968 JUMP JUMPDEST PUSH2 0xFF3 SWAP1 PUSH2 0x1A58 PUSH1 0x40 MLOAD SWAP1 JUMP JUMPDEST PUSH4 0x313C8981 PUSH1 0xE1 SHL DUP2 MSTORE SWAP2 DUP3 SWAP2 PUSH1 0x4 DUP4 ADD SWAP1 DUP2 MSTORE PUSH1 0x20 ADD SWAP1 JUMP JUMPDEST SWAP1 PUSH2 0x34C SWAP2 PUSH2 0x1A83 PUSH2 0x114B DUP3 PUSH2 0xFA4 JUMP JUMPDEST SWAP1 PUSH2 0x115A SWAP2 PUSH2 0x1DD7 JUMP JUMPDEST SWAP1 PUSH2 0x34C SWAP2 PUSH2 0x1A72 JUMP JUMPDEST PUSH2 0x362 PUSH2 0x1AA2 PUSH2 0x5E8 JUMP JUMPDEST PUSH2 0x17F7 PUSH2 0xF73 JUMP JUMPDEST PUSH2 0x362 SWAP2 PUSH2 0x1AC5 PUSH2 0x159B SWAP3 PUSH2 0x1ABD PUSH1 0x0 SWAP1 JUMP JUMPDEST POP PUSH1 0x1 PUSH2 0x1033 JUMP JUMPDEST PUSH2 0x1033 JUMP JUMPDEST PUSH2 0x17A8 PUSH2 0x362 SWAP2 PUSH2 0x1AD9 PUSH1 0x0 SWAP1 JUMP JUMPDEST POP PUSH1 0x7 PUSH2 0x1033 JUMP JUMPDEST PUSH2 0x362 PUSH1 0x40 PUSH2 0x1451 JUMP JUMPDEST PUSH2 0x1AF3 PUSH2 0x1AE1 JUMP JUMPDEST SWAP1 PUSH1 0x0 DUP3 MSTORE PUSH1 0x0 PUSH1 0x20 DUP4 ADD MSTORE JUMP JUMPDEST PUSH2 0x362 PUSH2 0x1AEB JUMP JUMPDEST SWAP1 PUSH2 0x362 SWAP2 PUSH2 0x1B16 PUSH2 0x1B01 JUMP JUMPDEST POP PUSH2 0x23AA JUMP JUMPDEST SWAP2 PUSH1 0x1 SWAP2 PUSH2 0x34C SWAP4 PUSH2 0x23C2 JUMP JUMPDEST PUSH1 0x1 PUSH1 0x1 PUSH1 0xA0 SHL SUB SWAP1 SWAP2 AND DUP2 MSTORE PUSH1 0x60 DUP2 ADD SWAP4 SWAP3 PUSH2 0x34C SWAP3 SWAP1 SWAP2 PUSH1 0x40 SWAP2 PUSH2 0x13B8 SWAP1 PUSH1 0x20 DUP4 ADD MSTORE JUMP JUMPDEST SWAP2 PUSH2 0x1B5B DUP3 DUP5 PUSH2 0x1AAA JUMP JUMPDEST PUSH1 0x0 NOT DUP2 SUB PUSH2 0x1B6B JUMPI JUMPDEST POP POP POP POP JUMP JUMPDEST DUP2 DUP2 LT PUSH2 0x1B91 JUMPI SWAP2 PUSH2 0x1B82 PUSH2 0x1B88 SWAP5 SWAP3 PUSH1 0x0 SWAP5 SUB SWAP1 JUMP JUMPDEST SWAP2 PUSH2 0x23C2 JUMP JUMPDEST CODESIZE DUP1 DUP1 DUP1 PUSH2 0x1B65 JUMP JUMPDEST DUP3 PUSH2 0xFF3 DUP4 PUSH2 0x1B9F PUSH1 0x40 MLOAD SWAP1 JUMP JUMPDEST PUSH4 0x7DC7A0D9 PUSH1 0xE1 SHL DUP2 MSTORE SWAP4 DUP5 SWAP4 PUSH1 0x4 DUP6 ADD PUSH2 0x1B29 JUMP JUMPDEST SWAP3 SWAP2 SWAP1 PUSH2 0x1BC2 PUSH1 0x0 PUSH2 0x1004 JUMP JUMPDEST SWAP4 PUSH1 0x1 PUSH1 0x1 PUSH1 0xA0 SHL SUB DUP6 AND PUSH1 0x1 PUSH1 0x1 PUSH1 0xA0 SHL SUB DUP3 AND EQ PUSH2 0x1C31 JUMPI PUSH1 0x1 PUSH1 0x1 PUSH1 0xA0 SHL SUB DUP6 AND PUSH1 0x1 PUSH1 0x1 PUSH1 0xA0 SHL SUB DUP4 AND EQ PUSH2 0x1C00 JUMPI PUSH2 0x34C SWAP4 SWAP5 POP PUSH2 0x23CE JUMP JUMPDEST PUSH2 0xFF3 DUP6 PUSH2 0x1C0D PUSH1 0x40 MLOAD SWAP1 JUMP JUMPDEST PUSH4 0xEC442F05 PUSH1 0xE0 SHL DUP2 MSTORE SWAP2 DUP3 SWAP2 PUSH1 0x4 DUP4 ADD PUSH1 0x1 PUSH1 0x1 PUSH1 0xA0 SHL SUB SWAP1 SWAP2 AND DUP2 MSTORE PUSH1 0x20 ADD SWAP1 JUMP JUMPDEST PUSH2 0xFF3 DUP6 PUSH2 0x1C3E PUSH1 0x40 MLOAD SWAP1 JUMP JUMPDEST PUSH4 0x4B637E8F PUSH1 0xE1 SHL DUP2 MSTORE SWAP2 DUP3 SWAP2 PUSH1 0x4 DUP4 ADD PUSH1 0x1 PUSH1 0x1 PUSH1 0xA0 SHL SUB SWAP1 SWAP2 AND DUP2 MSTORE PUSH1 0x20 ADD SWAP1 JUMP JUMPDEST PUSH2 0x362 SWAP1 PUSH32 0xE28434228950B641DBBC0178DE89DAA359A87C6EE0D8399AEACE52A98FE902B9 PUSH2 0x178D JUMP JUMPDEST PUSH2 0x34C SWAP1 CALLER SWAP1 PUSH2 0x23D9 JUMP JUMPDEST SWAP1 PUSH1 0xFF SWAP1 PUSH2 0x1043 JUMP JUMPDEST SWAP1 PUSH2 0x1CB0 PUSH2 0x362 PUSH2 0x1064 SWAP3 ISZERO ISZERO SWAP1 JUMP JUMPDEST DUP3 SLOAD PUSH2 0x1C97 JUMP JUMPDEST PUSH2 0x1CC4 PUSH2 0xFD0 DUP4 DUP4 PUSH2 0x178D JUMP JUMPDEST ISZERO PUSH2 0x1D2C JUMPI PUSH2 0x1CE4 PUSH1 0x1 PUSH2 0x1CDF DUP5 PUSH1 0x0 PUSH2 0x17A2 DUP7 PUSH1 0x6 PUSH2 0xF94 JUMP JUMPDEST PUSH2 0x1CA0 JUMP JUMPDEST PUSH2 0x1CF8 PUSH2 0x141C PUSH2 0x1CF2 CALLER SWAP4 SWAP1 JUMP JUMPDEST SWAP4 PUSH2 0x102A JUMP JUMPDEST SWAP2 PUSH32 0x2F8788117E7EFF1D82E926EC794901D17C78024A50270940304540A733656F0D PUSH2 0x1D23 PUSH1 0x40 MLOAD SWAP1 JUMP JUMPDEST PUSH1 0x0 SWAP1 LOG4 PUSH1 0x1 SWAP1 JUMP JUMPDEST POP POP PUSH1 0x0 SWAP1 JUMP JUMPDEST PUSH2 0x1D3C ADDRESS PUSH2 0x102A JUMP JUMPDEST PUSH2 0x1D76 PUSH1 0x1 PUSH1 0x1 PUSH1 0xA0 SHL SUB PUSH32 0x0 AND SWAP2 PUSH1 0x1 PUSH1 0x1 PUSH1 0xA0 SHL SUB AND SWAP1 JUMP JUMPDEST EQ DUP1 PUSH2 0x1DAE JUMPI JUMPDEST ISZERO PUSH2 0x1DA6 JUMPI PUSH32 0x0 SWAP1 JUMP JUMPDEST PUSH2 0x362 PUSH2 0x244A JUMP JUMPDEST POP PUSH32 0x0 CHAINID EQ PUSH2 0x1D7D JUMP JUMPDEST PUSH2 0x1DE1 DUP3 DUP3 PUSH2 0x178D JUMP JUMPDEST ISZERO PUSH2 0x1D2C JUMPI PUSH2 0x1DFB PUSH1 0x0 PUSH2 0x1CDF DUP5 DUP3 PUSH2 0x17A2 DUP7 PUSH1 0x6 PUSH2 0xF94 JUMP JUMPDEST PUSH2 0x1E09 PUSH2 0x141C PUSH2 0x1CF2 CALLER SWAP4 SWAP1 JUMP JUMPDEST SWAP2 PUSH32 0xF6391F5C32D9C69D2A47EA670B442974B53935D1EDC7FD64EB21E047A839171B PUSH2 0x1D23 PUSH1 0x40 MLOAD SWAP1 JUMP JUMPDEST PUSH2 0x1E3D DUP2 PUSH2 0x1ACA JUMP JUMPDEST SWAP1 DUP2 PUSH2 0x1E47 JUMPI POP SWAP1 JUMP JUMPDEST DUP1 PUSH2 0x10D9 PUSH1 0x0 PUSH2 0x1CDF PUSH2 0x1E5B SWAP5 PUSH1 0x7 PUSH2 0x1033 JUMP JUMPDEST PUSH32 0x798117EC059AB8D319461EF2502B1F9D8A47CD966BFD1F3E23B6F26C30BEBB77 PUSH2 0x1E85 PUSH1 0x40 MLOAD SWAP1 JUMP JUMPDEST PUSH1 0x0 SWAP1 LOG2 SWAP1 JUMP JUMPDEST PUSH2 0x365 SWAP1 PUSH2 0x1167 JUMP JUMPDEST SWAP2 PUSH1 0x20 PUSH2 0x34C SWAP3 SWAP5 SWAP4 PUSH2 0x13B8 PUSH1 0x40 DUP3 ADD SWAP7 PUSH1 0x0 DUP4 ADD SWAP1 PUSH2 0x1E8C JUMP JUMPDEST PUSH2 0x14EA PUSH2 0x362 PUSH2 0x362 SWAP3 SWAP1 JUMP JUMPDEST PUSH2 0x1ECC PUSH6 0xFFFFFFFFFFFF PUSH2 0x11FF JUMP JUMPDEST DUP2 GT PUSH2 0x1EDB JUMPI PUSH2 0x362 SWAP1 PUSH2 0x1EB0 JUMP JUMPDEST PUSH2 0xFF3 SWAP1 PUSH2 0x1EE8 PUSH1 0x40 MLOAD SWAP1 JUMP JUMPDEST PUSH4 0x6DFCC65 PUSH1 0xE4 SHL DUP2 MSTORE SWAP2 DUP3 SWAP2 PUSH1 0x30 PUSH1 0x4 DUP5 ADD PUSH2 0x1E95 JUMP JUMPDEST PUSH2 0x362 SWAP1 PUSH2 0x14EA JUMP JUMPDEST PUSH2 0x362 SWAP1 SLOAD PUSH2 0x1F00 JUMP JUMPDEST PUSH2 0x362 SWAP1 PUSH1 0x30 SHR JUMPDEST PUSH1 0x1 PUSH1 0x1 PUSH1 0xD0 SHL SUB AND SWAP1 JUMP JUMPDEST PUSH2 0x362 SWAP1 SLOAD PUSH2 0x1F13 JUMP JUMPDEST PUSH2 0x1F1B PUSH2 0x362 PUSH2 0x362 SWAP3 SWAP1 JUMP JUMPDEST DUP1 SLOAD PUSH2 0x1F6F SWAP1 PUSH1 0x0 SWAP3 PUSH2 0x1F50 DUP5 PUSH2 0x5DB JUMP JUMPDEST DUP5 DUP4 PUSH2 0x1F5C PUSH1 0x5 PUSH2 0x5DB JUMP JUMPDEST DUP2 GT PUSH2 0x1FB1 JUMPI JUMPDEST POP SWAP1 SWAP2 ADD JUMPDEST SWAP5 DUP6 PUSH2 0x2786 JUMP JUMPDEST PUSH2 0x1F78 DUP3 PUSH2 0x5DB JUMP JUMPDEST DUP2 SUB PUSH2 0x1F89 JUMPI POP PUSH2 0x362 SWAP2 POP PUSH2 0x1F31 JUMP JUMPDEST PUSH2 0x362 SWAP3 PUSH2 0x1F9E PUSH2 0x1FAB SWAP3 PUSH2 0x17F7 PUSH1 0x1 PUSH2 0x5DB JUMP JUMPDEST SWAP1 PUSH1 0x0 MSTORE PUSH1 0x20 PUSH1 0x0 KECCAK256 ADD SWAP1 JUMP JUMPDEST ADD PUSH2 0x1F27 JUMP JUMPDEST DUP1 PUSH2 0x17F7 PUSH2 0x1FBE SWAP3 PUSH2 0x2535 JUMP JUMPDEST PUSH2 0x1FDF PUSH2 0x14EA DUP4 PUSH2 0x1FD9 DUP5 DUP9 DUP4 ADD JUMPDEST PUSH1 0x0 MSTORE PUSH1 0x20 PUSH1 0x0 KECCAK256 ADD SWAP1 JUMP JUMPDEST ADD PUSH2 0x1F09 JUMP JUMPDEST PUSH6 0xFFFFFFFFFFFF DUP10 AND LT ISZERO PUSH2 0x1FFE JUMPI PUSH2 0x1F68 SWAP3 SWAP4 SWAP5 POP SWAP4 JUMPDEST SWAP3 SWAP2 PUSH2 0x1F63 JUMP JUMPDEST PUSH2 0x1F68 SWAP3 POP PUSH2 0x2017 SWAP1 PUSH2 0x2011 PUSH1 0x1 PUSH2 0x5DB JUMP JUMPDEST SWAP1 PUSH2 0x134C JUMP JUMPDEST SWAP3 PUSH2 0x1FF7 JUMP JUMPDEST PUSH2 0x2026 DUP2 PUSH2 0x1ACA JUMP JUMPDEST SWAP1 DUP2 ISZERO PUSH2 0x2031 JUMPI POP SWAP1 JUMP JUMPDEST DUP1 PUSH2 0x10D9 PUSH1 0x1 PUSH2 0x1CDF PUSH2 0x2045 SWAP5 PUSH1 0x7 PUSH2 0x1033 JUMP JUMPDEST PUSH32 0xCA86D8C91CA6D00AFD863578CC633A0901FAD724592F89649629FE65F61410D2 PUSH2 0x1E85 PUSH1 0x40 MLOAD SWAP1 JUMP JUMPDEST PUSH2 0x2077 PUSH2 0x27FC JUMP JUMPDEST PUSH2 0x34C PUSH2 0x2086 PUSH1 0x0 PUSH1 0x5 PUSH2 0x1CA0 JUMP JUMPDEST PUSH32 0x5DB9EE0A495BF2E6FF9C91A7834C1BA4FDD244A5E8AA4E537BD38AEAE4B073AA PUSH2 0x20B0 CALLER PUSH2 0x733 JUMP JUMPDEST SUB SWAP1 LOG1 JUMP JUMPDEST PUSH2 0x34C PUSH2 0x206F JUMP JUMPDEST SWAP2 SWAP1 PUSH2 0x20C9 PUSH1 0x0 PUSH2 0x1004 JUMP JUMPDEST SWAP3 PUSH1 0x1 PUSH1 0x1 PUSH1 0xA0 SHL SUB DUP5 AND PUSH1 0x1 PUSH1 0x1 PUSH1 0xA0 SHL SUB DUP3 AND EQ PUSH2 0x20ED JUMPI PUSH2 0x34C SWAP3 SWAP4 PUSH2 0x23CE JUMP JUMPDEST PUSH2 0xFF3 DUP5 PUSH2 0x1C0D PUSH1 0x40 MLOAD SWAP1 JUMP JUMPDEST SWAP2 SWAP1 PUSH2 0x2106 PUSH1 0x0 PUSH2 0x1004 JUMP JUMPDEST SWAP3 PUSH1 0x1 PUSH1 0x1 PUSH1 0xA0 SHL SUB DUP5 AND PUSH1 0x1 PUSH1 0x1 PUSH1 0xA0 SHL SUB DUP3 AND EQ PUSH2 0x212B JUMPI SWAP3 PUSH2 0x34C SWAP3 SWAP4 PUSH2 0x23CE JUMP JUMPDEST PUSH2 0xFF3 DUP5 PUSH2 0x1C3E PUSH1 0x40 MLOAD SWAP1 JUMP JUMPDEST PUSH2 0x362 NUMBER PUSH2 0x1EBD JUMP JUMPDEST SWAP1 PUSH1 0x1 PUSH1 0x1 PUSH1 0xA0 SHL SUB SWAP1 PUSH2 0x1043 JUMP JUMPDEST SWAP1 PUSH2 0x2160 PUSH2 0x362 PUSH2 0x1064 SWAP3 PUSH2 0x102A JUMP JUMPDEST DUP3 SLOAD PUSH2 0x2141 JUMP JUMPDEST PUSH2 0x34C SWAP2 PUSH2 0x21DB PUSH2 0x2177 DUP4 PUSH2 0x1533 JUMP JUMPDEST SWAP3 PUSH2 0x218C DUP4 PUSH2 0x2187 DUP4 PUSH1 0xC PUSH2 0x1033 JUMP JUMPDEST PUSH2 0x2150 JUMP JUMPDEST PUSH2 0x2195 DUP2 PUSH2 0x102A JUMP JUMPDEST PUSH2 0x219E DUP6 PUSH2 0x102A JUMP JUMPDEST PUSH2 0x21A7 DUP6 PUSH2 0x102A JUMP JUMPDEST SWAP2 PUSH32 0x3134E8A2E6D97E929A7E54011EA5485D7D196DD5F0BA4D4EF95803E8E3FC257F PUSH2 0x21D2 PUSH1 0x40 MLOAD SWAP1 JUMP JUMPDEST PUSH1 0x0 SWAP1 LOG4 PUSH2 0x281F JUMP JUMPDEST SWAP2 PUSH2 0x2828 JUMP JUMPDEST PUSH2 0x21FB PUSH2 0x21F6 PUSH2 0x362 PUSH2 0x362 SWAP4 PUSH2 0x17D4 PUSH1 0x0 SWAP1 JUMP JUMPDEST PUSH2 0x2969 JUMP JUMPDEST PUSH2 0x29A6 JUMP JUMPDEST PUSH2 0x362 SWAP1 PUSH2 0x29E7 JUMP JUMPDEST PUSH2 0x2211 PUSH2 0x29F6 JUMP JUMPDEST PUSH2 0x34C PUSH2 0x2220 PUSH1 0x1 PUSH1 0x5 PUSH2 0x1CA0 JUMP JUMPDEST PUSH32 0x62E78CEA01BEE320CD4E420270B5EA74000D11B0C9F74754EBDBFC544B05A258 PUSH2 0x20B0 CALLER PUSH2 0x733 JUMP JUMPDEST PUSH2 0x34C PUSH2 0x2209 JUMP JUMPDEST PUSH2 0x362 PUSH32 0x0 PUSH1 0x9 JUMPDEST SWAP1 PUSH2 0x2AB2 JUMP JUMPDEST PUSH2 0x362 PUSH32 0x0 PUSH1 0xA PUSH2 0x2279 JUMP JUMPDEST DUP1 SLOAD SWAP1 PUSH1 0x0 SWAP1 PUSH2 0x22B9 DUP3 PUSH2 0x5DB JUMP JUMPDEST DUP4 SUB PUSH2 0x22CA JUMPI POP PUSH2 0x362 SWAP2 POP PUSH2 0x1F31 JUMP JUMPDEST PUSH2 0x362 SWAP3 PUSH2 0x1FCD PUSH2 0x1094 DUP5 PUSH2 0x1FAB SWAP5 ADD SWAP3 PUSH2 0x17F7 PUSH1 0x1 PUSH2 0x5DB JUMP JUMPDEST PUSH2 0x362 SWAP1 PUSH2 0x22F1 PUSH2 0x1D33 JUMP JUMPDEST PUSH1 0x42 SWAP2 PUSH1 0x40 MLOAD SWAP2 PUSH2 0x1901 PUSH1 0xF0 SHL DUP4 MSTORE PUSH1 0x2 DUP4 ADD MSTORE PUSH1 0x22 DUP3 ADD MSTORE KECCAK256 SWAP1 JUMP JUMPDEST SWAP2 PUSH2 0x362 SWAP4 SWAP2 PUSH2 0x2326 SWAP4 PUSH2 0x2320 PUSH1 0x0 SWAP1 JUMP JUMPDEST POP PUSH2 0x2B19 JUMP JUMPDEST SWAP1 SWAP3 SWAP2 SWAP3 PUSH2 0x2C14 JUMP JUMPDEST PUSH1 0x1 PUSH1 0x1 PUSH1 0xA0 SHL SUB SWAP1 SWAP2 AND DUP2 MSTORE PUSH1 0x40 DUP2 ADD SWAP3 SWAP2 PUSH2 0x34C SWAP2 PUSH1 0x20 ADD MSTORE JUMP JUMPDEST PUSH2 0x2355 DUP2 PUSH2 0x2383 JUMP JUMPDEST SWAP2 DUP3 SWAP1 SUB PUSH2 0x2361 JUMPI POP POP JUMP JUMPDEST PUSH2 0xFF3 PUSH2 0x236D PUSH1 0x40 MLOAD SWAP1 JUMP JUMPDEST PUSH4 0x1D4B623 PUSH1 0xE6 SHL DUP2 MSTORE SWAP3 DUP4 SWAP3 PUSH1 0x4 DUP5 ADD PUSH2 0x232F JUMP JUMPDEST PUSH2 0x2392 SWAP1 PUSH1 0x0 JUMPDEST POP PUSH1 0xB PUSH2 0x1033 JUMP JUMPDEST PUSH2 0x362 PUSH2 0x239E DUP3 PUSH2 0xF69 JUMP JUMPDEST SWAP2 PUSH1 0x1 DUP4 ADD JUMPDEST SWAP1 PUSH2 0x104D JUMP JUMPDEST SWAP1 PUSH2 0x23BD PUSH2 0x362 PUSH2 0x362 SWAP4 PUSH2 0x17D4 PUSH2 0x1B01 JUMP JUMPDEST PUSH2 0x2D62 JUMP JUMPDEST SWAP1 PUSH2 0x34C SWAP4 SWAP3 SWAP2 PUSH2 0x2D81 JUMP JUMPDEST SWAP1 PUSH2 0x34C SWAP3 SWAP2 PUSH2 0x2DCD JUMP JUMPDEST SWAP1 PUSH2 0x23E7 PUSH2 0xFD0 DUP3 DUP5 PUSH2 0x178D JUMP JUMPDEST PUSH2 0x23EF JUMPI POP POP JUMP JUMPDEST PUSH2 0xFF3 PUSH2 0x23FB PUSH1 0x40 MLOAD SWAP1 JUMP JUMPDEST PUSH4 0xE2517D3F PUSH1 0xE0 SHL DUP2 MSTORE SWAP3 DUP4 SWAP3 PUSH1 0x4 DUP5 ADD PUSH2 0x232F JUMP JUMPDEST SWAP1 SWAP6 SWAP5 SWAP3 PUSH2 0x34C SWAP5 PUSH2 0x2443 PUSH2 0x1983 SWAP3 PUSH2 0x243C PUSH1 0x80 SWAP7 PUSH2 0x2435 PUSH1 0xA0 DUP9 ADD SWAP13 PUSH1 0x0 DUP10 ADD MSTORE JUMP JUMPDEST PUSH1 0x20 DUP8 ADD MSTORE JUMP JUMPDEST PUSH1 0x40 DUP6 ADD MSTORE JUMP JUMPDEST PUSH1 0x60 DUP4 ADD MSTORE JUMP JUMPDEST PUSH32 0x8B73C3C69BB8FE3D512ECC4CF759CC79239F7B179B0FFACAA9A75D522B39400F PUSH2 0x24CF PUSH32 0x0 PUSH32 0x0 PUSH2 0x18A4 PUSH2 0x24BC ADDRESS PUSH2 0x102A JUMP JUMPDEST PUSH1 0x40 MLOAD SWAP6 DUP7 SWAP5 PUSH1 0x20 DUP7 ADD SWAP5 CHAINID SWAP3 DUP7 PUSH2 0x2411 JUMP JUMPDEST PUSH2 0x24DA PUSH2 0x18BB DUP3 MLOAD SWAP1 JUMP JUMPDEST KECCAK256 SWAP1 JUMP JUMPDEST PUSH2 0x362 SWAP1 PUSH2 0x24F2 PUSH2 0x1094 PUSH2 0x362 SWAP5 PUSH1 0xFF AND SWAP1 JUMP JUMPDEST SWAP1 SHR SWAP1 JUMP JUMPDEST PUSH2 0x362 SWAP1 PUSH2 0x250B PUSH2 0x1094 PUSH2 0x362 SWAP5 PUSH1 0xFF AND SWAP1 JUMP JUMPDEST SWAP1 SHL SWAP1 JUMP JUMPDEST PUSH4 0x4E487B71 PUSH1 0xE0 SHL PUSH1 0x0 MSTORE PUSH1 0x12 PUSH1 0x4 MSTORE PUSH1 0x24 PUSH1 0x0 REVERT JUMPDEST DUP2 ISZERO PUSH2 0x2530 JUMPI DIV SWAP1 JUMP JUMPDEST PUSH2 0x2510 JUMP JUMPDEST PUSH1 0x1 PUSH2 0x2540 DUP2 PUSH2 0x5DB JUMP JUMPDEST DUP3 GT ISZERO PUSH2 0x2782 JUMPI SWAP1 PUSH2 0x268D PUSH2 0x2688 PUSH2 0x362 PUSH2 0x2681 PUSH2 0x264D PUSH2 0x264D PUSH2 0x2677 PUSH2 0x2652 PUSH2 0x264D PUSH2 0x266D PUSH2 0x264D PUSH2 0x264D DUP13 PUSH2 0x3FC PUSH2 0x362 SWAP16 PUSH2 0x2643 PUSH2 0x264D PUSH2 0x265C PUSH2 0x2666 SWAP4 PUSH2 0x2633 PUSH2 0x262D DUP9 PUSH2 0x2591 DUP5 PUSH2 0x5DB JUMP JUMPDEST SWAP1 PUSH2 0x259F PUSH1 0x1 PUSH1 0x80 SHL PUSH2 0x5DB JUMP JUMPDEST DUP12 LT ISZERO PUSH2 0x275A JUMPI JUMPDEST PUSH2 0x25B4 PUSH1 0x1 PUSH1 0x40 SHL PUSH2 0x5DB JUMP JUMPDEST DUP2 LT ISZERO PUSH2 0x2738 JUMPI JUMPDEST PUSH2 0x25CA PUSH5 0x100000000 PUSH2 0x5DB JUMP JUMPDEST DUP2 LT ISZERO PUSH2 0x2716 JUMPI JUMPDEST PUSH2 0x25DE PUSH3 0x10000 PUSH2 0x5DB JUMP JUMPDEST DUP2 LT ISZERO PUSH2 0x26F4 JUMPI JUMPDEST PUSH2 0x25F1 PUSH2 0x100 PUSH2 0x5DB JUMP JUMPDEST DUP2 LT ISZERO PUSH2 0x26D2 JUMPI JUMPDEST PUSH2 0x2603 PUSH1 0x10 PUSH2 0x5DB JUMP JUMPDEST DUP2 LT ISZERO PUSH2 0x26AA JUMPI JUMPDEST PUSH2 0x2618 PUSH2 0x1094 PUSH1 0x4 PUSH2 0x5DB JUMP JUMPDEST LT ISZERO PUSH2 0x2692 JUMPI JUMPDEST PUSH2 0x2629 PUSH1 0x3 PUSH2 0x5DB JUMP JUMPDEST MUL SWAP1 JUMP JUMPDEST SWAP2 PUSH2 0x1167 JUMP JUMPDEST SWAP15 DUP16 SWAP13 DUP14 DUP1 SWAP12 DUP2 SWAP8 DUP3 DUP1 SWAP7 PUSH2 0x24DE JUMP JUMPDEST PUSH2 0x3FC DUP2 DUP14 PUSH2 0x2526 JUMP JUMPDEST PUSH2 0x24DE JUMP JUMPDEST PUSH2 0x3FC DUP2 DUP11 PUSH2 0x2526 JUMP JUMPDEST PUSH2 0x3FC DUP2 DUP8 PUSH2 0x2526 JUMP JUMPDEST DUP1 SWAP3 PUSH2 0x2526 JUMP JUMPDEST PUSH2 0x3FC DUP2 DUP13 PUSH2 0x2526 JUMP JUMPDEST PUSH2 0x3FC DUP2 DUP10 PUSH2 0x2526 JUMP JUMPDEST DUP1 SWAP5 PUSH2 0x2526 JUMP JUMPDEST DUP3 GT SWAP1 JUMP JUMPDEST SWAP1 SUB SWAP1 JUMP JUMPDEST PUSH2 0x26A5 SWAP1 PUSH2 0x269F DUP6 PUSH2 0x1167 JUMP JUMPDEST SWAP1 PUSH2 0x24F7 JUMP JUMPDEST PUSH2 0x261F JUMP JUMPDEST PUSH2 0x26C1 PUSH2 0x26CC SWAP2 PUSH2 0x26BB PUSH1 0x4 PUSH2 0x1167 JUMP JUMPDEST SWAP1 PUSH2 0x24DE JUMP JUMPDEST SWAP2 PUSH2 0x269F PUSH1 0x2 PUSH2 0x1167 JUMP JUMPDEST SWAP1 PUSH2 0x260B JUMP JUMPDEST PUSH2 0x26E3 PUSH2 0x26EE SWAP2 PUSH2 0x26BB PUSH1 0x8 PUSH2 0x1167 JUMP JUMPDEST SWAP2 PUSH2 0x269F PUSH1 0x4 PUSH2 0x1167 JUMP JUMPDEST SWAP1 PUSH2 0x25F9 JUMP JUMPDEST PUSH2 0x2705 PUSH2 0x2710 SWAP2 PUSH2 0x26BB PUSH1 0x10 PUSH2 0x1167 JUMP JUMPDEST SWAP2 PUSH2 0x269F PUSH1 0x8 PUSH2 0x1167 JUMP JUMPDEST SWAP1 PUSH2 0x25E6 JUMP JUMPDEST PUSH2 0x2727 PUSH2 0x2732 SWAP2 PUSH2 0x26BB PUSH1 0x20 PUSH2 0x1167 JUMP JUMPDEST SWAP2 PUSH2 0x269F PUSH1 0x10 PUSH2 0x1167 JUMP JUMPDEST SWAP1 PUSH2 0x25D2 JUMP JUMPDEST PUSH2 0x2749 PUSH2 0x2754 SWAP2 PUSH2 0x26BB PUSH1 0x40 PUSH2 0x1167 JUMP JUMPDEST SWAP2 PUSH2 0x269F PUSH1 0x20 PUSH2 0x1167 JUMP JUMPDEST SWAP1 PUSH2 0x25BC JUMP JUMPDEST POP PUSH2 0x277C PUSH2 0x2771 PUSH2 0x276B PUSH1 0x80 PUSH2 0x1167 JUMP JUMPDEST DUP13 PUSH2 0x24DE JUMP JUMPDEST SWAP2 PUSH2 0x269F PUSH1 0x40 PUSH2 0x1167 JUMP JUMPDEST SWAP1 PUSH2 0x25A7 JUMP JUMPDEST POP SWAP1 JUMP JUMPDEST SWAP4 SWAP2 SWAP1 SWAP3 PUSH2 0x2792 PUSH1 0x0 SWAP1 JUMP JUMPDEST POP JUMPDEST DUP1 DUP3 LT ISZERO PUSH2 0x27F4 JUMPI PUSH2 0x27A6 DUP2 DUP4 PUSH2 0x2E47 JUMP JUMPDEST SWAP1 PUSH2 0x27BD PUSH1 0x0 PUSH2 0x1FD9 DUP5 DUP10 PUSH1 0x0 MSTORE PUSH1 0x20 PUSH1 0x0 KECCAK256 ADD SWAP1 JUMP JUMPDEST PUSH2 0x27CE PUSH6 0xFFFFFFFFFFFF DUP8 AND PUSH2 0x14F5 JUMP JUMPDEST GT ISZERO PUSH2 0x27DD JUMPI POP SWAP2 JUMPDEST SWAP2 PUSH2 0x2794 JUMP JUMPDEST SWAP3 SWAP2 POP PUSH2 0x27EE SWAP1 PUSH2 0x2011 PUSH1 0x1 PUSH2 0x5DB JUMP JUMPDEST SWAP1 PUSH2 0x27D7 JUMP JUMPDEST SWAP3 POP POP SWAP2 POP SWAP1 JUMP JUMPDEST PUSH2 0x2807 PUSH2 0xFD0 PUSH2 0x1571 JUMP JUMPDEST PUSH2 0x280D JUMPI JUMP JUMPDEST PUSH1 0x40 MLOAD PUSH4 0x8DFC202B PUSH1 0xE0 SHL DUP2 MSTORE PUSH1 0x4 SWAP1 REVERT JUMPDEST PUSH2 0x362 SWAP1 PUSH2 0x1584 JUMP JUMPDEST SWAP1 SWAP2 SWAP1 PUSH1 0x1 PUSH1 0x1 PUSH1 0xA0 SHL SUB DUP4 AND PUSH1 0x1 PUSH1 0x1 PUSH1 0xA0 SHL SUB DUP3 AND EQ ISZERO DUP1 PUSH2 0x2957 JUMPI JUMPDEST PUSH2 0x2850 JUMPI POP POP POP JUMP JUMPDEST PUSH2 0x2886 SWAP1 PUSH2 0x285E PUSH1 0x0 PUSH2 0x1004 JUMP JUMPDEST SWAP1 PUSH1 0x1 PUSH1 0x1 PUSH1 0xA0 SHL SUB DUP3 AND PUSH1 0x1 PUSH1 0x1 PUSH1 0xA0 SHL SUB DUP3 AND SUB PUSH2 0x28F5 JUMPI JUMPDEST POP PUSH1 0x1 PUSH1 0x1 PUSH1 0xA0 SHL SUB AND SWAP1 JUMP JUMPDEST PUSH1 0x1 PUSH1 0x1 PUSH1 0xA0 SHL SUB DUP4 AND SUB PUSH2 0x2899 JUMPI POP POP JUMP JUMPDEST DUP2 PUSH2 0x1422 PUSH2 0x141C PUSH2 0x28E8 PUSH32 0xDEC2BACDD2F05B59DE34DA9B523DFF8BE42E5E38E818C82FDB0BAE774387A724 SWAP5 PUSH2 0x28DF PUSH2 0x1094 PUSH2 0x28D9 PUSH2 0x28EF SWAP10 PUSH1 0xD PUSH2 0x1033 JUMP JUMPDEST SWAP3 PUSH2 0x2E6C JUMP JUMPDEST PUSH1 0x1 JUMPDEST SWAP1 PUSH2 0x2EB0 JUMP JUMPDEST SWAP6 SWAP1 PUSH2 0x1214 JUMP JUMPDEST SWAP5 PUSH2 0x1214 JUMP JUMPDEST PUSH32 0xDEC2BACDD2F05B59DE34DA9B523DFF8BE42E5E38E818C82FDB0BAE774387A724 DUP2 PUSH2 0x2941 PUSH2 0x141C PUSH2 0x28E8 PUSH2 0x292E PUSH2 0x28EF SWAP7 PUSH1 0xD PUSH2 0x1033 JUMP JUMPDEST PUSH2 0x293A PUSH2 0x1094 DUP12 PUSH2 0x2E6C JUMP JUMPDEST PUSH1 0x2 PUSH2 0x28E2 JUMP JUMPDEST SWAP3 PUSH2 0x294E PUSH2 0x142F PUSH1 0x40 MLOAD SWAP1 JUMP JUMPDEST SUB SWAP1 LOG2 CODESIZE PUSH2 0x2879 JUMP JUMPDEST POP PUSH2 0x2962 PUSH1 0x0 PUSH2 0x5DB JUMP JUMPDEST DUP3 GT PUSH2 0x2847 JUMP JUMPDEST PUSH1 0x0 PUSH2 0x362 SWAP2 PUSH2 0x2977 PUSH1 0x0 SWAP1 JUMP JUMPDEST POP ADD SLOAD SWAP1 JUMP JUMPDEST PUSH2 0x362 PUSH2 0x362 PUSH2 0x362 SWAP3 PUSH4 0xFFFFFFFF AND SWAP1 JUMP JUMPDEST PUSH2 0x299D PUSH2 0x362 PUSH2 0x362 SWAP3 SWAP1 JUMP JUMPDEST PUSH4 0xFFFFFFFF AND SWAP1 JUMP JUMPDEST PUSH2 0x29B3 PUSH4 0xFFFFFFFF PUSH2 0x297D JUMP JUMPDEST DUP2 GT PUSH2 0x29C2 JUMPI PUSH2 0x362 SWAP1 PUSH2 0x2990 JUMP JUMPDEST PUSH2 0xFF3 SWAP1 PUSH2 0x29CF PUSH1 0x40 MLOAD SWAP1 JUMP JUMPDEST PUSH4 0x6DFCC65 PUSH1 0xE4 SHL DUP2 MSTORE SWAP2 DUP3 SWAP2 PUSH1 0x20 PUSH1 0x4 DUP5 ADD PUSH2 0x1E95 JUMP JUMPDEST PUSH2 0x159B PUSH2 0x362 SWAP2 PUSH2 0x238A PUSH1 0x0 SWAP1 JUMP JUMPDEST PUSH2 0x29FE PUSH2 0x1571 JUMP JUMPDEST PUSH2 0x2A04 JUMPI JUMP JUMPDEST PUSH1 0x40 MLOAD PUSH4 0xD93C0665 PUSH1 0xE0 SHL DUP2 MSTORE PUSH1 0x4 SWAP1 REVERT JUMPDEST PUSH2 0x362 PUSH1 0xFF PUSH2 0x5DB JUMP JUMPDEST DUP1 SLOAD PUSH1 0x0 SWAP4 SWAP3 SWAP2 PUSH2 0x2A33 PUSH2 0xE66 DUP4 PUSH2 0xE29 JUMP JUMPDEST SWAP2 PUSH1 0x1 DUP2 AND SWAP1 DUP2 ISZERO PUSH2 0xEC2 JUMPI POP PUSH1 0x1 EQ PUSH2 0x2A4C JUMPI POP POP POP JUMP JUMPDEST PUSH2 0x2A5F SWAP2 SWAP3 SWAP4 SWAP5 POP PUSH1 0x0 MSTORE PUSH1 0x20 PUSH1 0x0 KECCAK256 SWAP1 JUMP JUMPDEST SWAP2 PUSH1 0x0 SWAP3 JUMPDEST DUP2 DUP5 LT PUSH2 0x2A71 JUMPI POP POP ADD SWAP1 JUMP JUMPDEST DUP1 SLOAD DUP5 DUP5 ADD MSTORE PUSH1 0x20 SWAP1 SWAP4 ADD SWAP3 PUSH1 0x1 ADD PUSH2 0x2A64 JUMP JUMPDEST SWAP1 PUSH2 0x362 SWAP2 PUSH2 0x2A20 JUMP JUMPDEST SWAP1 PUSH2 0x34C PUSH2 0xF38 SWAP3 PUSH2 0x2AA0 PUSH1 0x40 MLOAD SWAP1 JUMP JUMPDEST SWAP4 DUP5 DUP1 SWAP3 PUSH2 0x2A85 JUMP JUMPDEST PUSH2 0x362 SWAP1 PUSH2 0x2A8F JUMP JUMPDEST SWAP1 DUP2 PUSH2 0x2AC2 PUSH2 0x1094 PUSH2 0x362 PUSH2 0x2A16 JUMP JUMPDEST EQ PUSH2 0x2AD1 JUMPI POP PUSH2 0x362 SWAP1 PUSH2 0x2EF9 JUMP JUMPDEST PUSH2 0x362 SWAP2 POP PUSH2 0x2AA9 JUMP JUMPDEST PUSH2 0x362 SWAP1 PUSH2 0x5DB JUMP JUMPDEST PUSH2 0x13B8 PUSH2 0x34C SWAP5 PUSH2 0x1837 PUSH1 0x60 SWAP5 SWAP9 SWAP8 SWAP6 PUSH2 0x2B03 PUSH1 0x80 DUP7 ADD SWAP11 PUSH1 0x0 DUP8 ADD MSTORE JUMP JUMPDEST PUSH1 0xFF AND PUSH1 0x20 DUP6 ADD MSTORE JUMP JUMPDEST PUSH1 0x40 MLOAD RETURNDATASIZE PUSH1 0x0 DUP3 RETURNDATACOPY RETURNDATASIZE SWAP1 REVERT JUMPDEST SWAP1 SWAP2 PUSH2 0x2B24 DUP5 PUSH2 0x2ADB JUMP JUMPDEST PUSH2 0x2B50 PUSH2 0x1094 PUSH32 0x7FFFFFFFFFFFFFFFFFFFFFFFFFFFFFFF5D576E7357A4501DDFE92F46681B20A0 PUSH2 0x5DB JUMP JUMPDEST GT PUSH2 0x2BD1 JUMPI SWAP1 PUSH2 0x2B72 PUSH1 0x20 SWAP5 PUSH1 0x0 SWAP5 SWAP4 PUSH2 0x2B69 PUSH1 0x40 MLOAD SWAP1 JUMP JUMPDEST SWAP5 DUP6 SWAP5 DUP6 PUSH2 0x2AE4 JUMP JUMPDEST DUP4 DUP1 MSTORE SUB SWAP1 PUSH1 0x1 GAS STATICCALL ISZERO PUSH2 0x2BCC JUMPI PUSH1 0x0 MLOAD PUSH1 0x0 SWAP2 PUSH2 0x2B8F DUP4 PUSH2 0x1004 JUMP JUMPDEST PUSH1 0x1 PUSH1 0x1 PUSH1 0xA0 SHL SUB DUP2 AND PUSH1 0x1 PUSH1 0x1 PUSH1 0xA0 SHL SUB DUP5 AND EQ PUSH2 0x2BB8 JUMPI POP PUSH2 0x2BB2 DUP4 PUSH2 0x5DB JUMP JUMPDEST SWAP2 SWAP3 SWAP2 SWAP1 JUMP JUMPDEST SWAP2 POP SWAP2 PUSH2 0x2BC4 SWAP1 PUSH2 0x5DB JUMP JUMPDEST SWAP1 SWAP2 PUSH1 0x1 SWAP2 SWAP1 JUMP JUMPDEST PUSH2 0x2B0D JUMP JUMPDEST POP POP POP PUSH2 0x2BDE PUSH1 0x0 PUSH2 0x1004 JUMP JUMPDEST SWAP2 PUSH1 0x3 SWAP2 SWAP1 JUMP JUMPDEST PUSH4 0x4E487B71 PUSH1 0xE0 SHL PUSH1 0x0 MSTORE PUSH1 0x21 PUSH1 0x4 MSTORE PUSH1 0x24 PUSH1 0x0 REVERT JUMPDEST PUSH1 0x4 GT ISZERO PUSH2 0x2C05 JUMPI JUMP JUMPDEST PUSH2 0x2BE5 JUMP JUMPDEST SWAP1 PUSH2 0x34C DUP3 PUSH2 0x2BFB JUMP JUMPDEST PUSH2 0x2C1E PUSH1 0x0 PUSH2 0x2C0A JUMP JUMPDEST PUSH2 0x2C27 DUP3 PUSH2 0x2C0A JUMP JUMPDEST SUB PUSH2 0x2C30 JUMPI POP POP JUMP JUMPDEST PUSH2 0x2C3A PUSH1 0x1 PUSH2 0x2C0A JUMP JUMPDEST PUSH2 0x2C43 DUP3 PUSH2 0x2C0A JUMP JUMPDEST SUB PUSH2 0x2C5A JUMPI PUSH1 0x40 MLOAD PUSH4 0xF645EEDF PUSH1 0xE0 SHL DUP2 MSTORE PUSH1 0x4 SWAP1 REVERT JUMPDEST PUSH2 0x2C64 PUSH1 0x2 PUSH2 0x2C0A JUMP JUMPDEST PUSH2 0x2C6D DUP3 PUSH2 0x2C0A JUMP JUMPDEST SUB PUSH2 0x2C9B JUMPI PUSH2 0xFF3 PUSH2 0x2C7E DUP4 PUSH2 0x2ADB JUMP JUMPDEST PUSH1 0x40 MLOAD PUSH4 0xFCE698F7 PUSH1 0xE0 SHL DUP2 MSTORE SWAP2 DUP3 SWAP2 PUSH1 0x4 DUP4 ADD SWAP1 DUP2 MSTORE PUSH1 0x20 ADD SWAP1 JUMP JUMPDEST PUSH2 0x2CAE PUSH2 0x2CA8 PUSH1 0x3 PUSH2 0x2C0A JUMP JUMPDEST SWAP2 PUSH2 0x2C0A JUMP JUMPDEST EQ PUSH2 0x2CB6 JUMPI POP JUMP JUMPDEST PUSH2 0xFF3 SWAP1 PUSH2 0x2CC3 PUSH1 0x40 MLOAD SWAP1 JUMP JUMPDEST PUSH4 0x35E2F383 PUSH1 0xE2 SHL DUP2 MSTORE SWAP2 DUP3 SWAP2 PUSH1 0x4 DUP4 ADD SWAP1 DUP2 MSTORE PUSH1 0x20 ADD SWAP1 JUMP JUMPDEST PUSH4 0x4E487B71 PUSH1 0xE0 SHL PUSH1 0x0 MSTORE PUSH1 0x32 PUSH1 0x4 MSTORE PUSH1 0x24 PUSH1 0x0 REVERT JUMPDEST DUP1 SLOAD DUP3 LT ISZERO PUSH2 0x2D16 JUMPI PUSH2 0x2D0D PUSH1 0x1 SWAP2 PUSH1 0x0 MSTORE PUSH1 0x20 PUSH1 0x0 KECCAK256 SWAP1 JUMP JUMPDEST SWAP2 MUL ADD SWAP1 PUSH1 0x0 SWAP1 JUMP JUMPDEST PUSH2 0x2CDD JUMP JUMPDEST SWAP1 PUSH2 0x34C PUSH2 0x2D49 PUSH1 0x0 PUSH2 0x2D2C PUSH2 0x1AE1 JUMP JUMPDEST SWAP5 PUSH2 0x1FAB PUSH2 0x2D3B DUP4 DUP4 ADD PUSH2 0x1F09 JUMP JUMPDEST PUSH6 0xFFFFFFFFFFFF AND DUP8 DUP5 ADD MSTORE JUMP JUMPDEST PUSH1 0x1 PUSH1 0x1 PUSH1 0xD0 SHL SUB AND PUSH1 0x20 DUP5 ADD MSTORE JUMP JUMPDEST PUSH2 0x362 SWAP1 PUSH2 0x2D1B JUMP JUMPDEST PUSH2 0x362 SWAP2 PUSH1 0x0 PUSH2 0x2D7B SWAP3 PUSH2 0x2D74 PUSH2 0x1B01 JUMP JUMPDEST POP ADD PUSH2 0x2CF3 JUMP JUMPDEST POP PUSH2 0x2D59 JUMP JUMPDEST SWAP4 SWAP3 SWAP2 SWAP1 PUSH2 0x2D8E DUP6 PUSH2 0x1ACA JUMP JUMPDEST PUSH2 0x2D9C JUMPI PUSH2 0x34C SWAP4 SWAP5 PUSH2 0x2F20 JUMP JUMPDEST PUSH2 0xFF3 DUP6 PUSH2 0x2DA9 PUSH1 0x40 MLOAD SWAP1 JUMP JUMPDEST PUSH4 0x5FF1C9B9 PUSH1 0xE1 SHL DUP2 MSTORE SWAP2 DUP3 SWAP2 PUSH1 0x4 DUP4 ADD PUSH1 0x1 PUSH1 0x1 PUSH1 0xA0 SHL SUB SWAP1 SWAP2 AND DUP2 MSTORE PUSH1 0x20 ADD SWAP1 JUMP JUMPDEST SWAP3 SWAP2 SWAP1 PUSH2 0x2DDB DUP3 DUP3 DUP7 PUSH2 0x301D JUMP JUMPDEST PUSH2 0x2DE8 PUSH2 0x438 PUSH1 0x0 PUSH2 0x1004 JUMP JUMPDEST PUSH1 0x1 PUSH1 0x1 PUSH1 0xA0 SHL SUB DUP6 AND EQ PUSH2 0x2E02 JUMPI JUMPDEST PUSH2 0x34C SWAP3 SWAP4 PUSH2 0x307B JUMP JUMPDEST PUSH2 0x2E0A PUSH2 0xF73 JUMP JUMPDEST SWAP4 PUSH2 0x2E13 PUSH2 0x306B JUMP JUMPDEST SWAP5 DUP6 DUP2 GT PUSH2 0x2E23 JUMPI POP SWAP4 POP PUSH2 0x2DF8 JUMP JUMPDEST DUP6 SWAP1 PUSH2 0xFF3 PUSH2 0x2E31 PUSH1 0x40 MLOAD SWAP1 JUMP JUMPDEST PUSH4 0xE58AE93 PUSH1 0xE1 SHL DUP2 MSTORE SWAP3 DUP4 SWAP3 PUSH1 0x4 DUP5 ADD PUSH2 0x13A5 JUMP JUMPDEST PUSH2 0x2011 PUSH2 0x362 SWAP3 PUSH2 0x2E56 PUSH1 0x0 SWAP1 JUMP JUMPDEST POP DUP1 DUP4 AND SWAP3 XOR PUSH2 0x2E66 PUSH1 0x2 PUSH2 0x5DB JUMP JUMPDEST SWAP1 PUSH2 0x2526 JUMP JUMPDEST PUSH2 0x2E7C PUSH1 0x1 PUSH1 0x1 PUSH1 0xD0 SHL SUB PUSH2 0x1214 JUMP JUMPDEST DUP2 GT PUSH2 0x2E8B JUMPI PUSH2 0x362 SWAP1 PUSH2 0x1F31 JUMP JUMPDEST PUSH2 0xFF3 SWAP1 PUSH2 0x2E98 PUSH1 0x40 MLOAD SWAP1 JUMP JUMPDEST PUSH4 0x6DFCC65 PUSH1 0xE4 SHL DUP2 MSTORE SWAP2 DUP3 SWAP2 PUSH1 0xD0 PUSH1 0x4 DUP5 ADD PUSH2 0x1E95 JUMP JUMPDEST SWAP1 PUSH2 0x2ED9 PUSH2 0x2EDF SWAP4 PUSH2 0x2EC0 PUSH1 0x0 SWAP1 JUMP JUMPDEST POP PUSH2 0x2EC9 PUSH2 0x17AD JUMP JUMPDEST SWAP3 PUSH2 0x2ED3 DUP6 PUSH2 0x22AA JUMP JUMPDEST SWAP1 PUSH2 0x3533 JUMP JUMPDEST SWAP2 PUSH2 0x3114 JUMP JUMPDEST SWAP1 SWAP2 JUMP JUMPDEST SWAP1 PUSH2 0x34C PUSH2 0x1702 PUSH2 0x2EF3 DUP5 PUSH2 0x1482 JUMP JUMPDEST SWAP4 PUSH2 0x1465 JUMP JUMPDEST PUSH2 0x2F02 DUP2 PUSH2 0x3131 JUMP JUMPDEST SWAP1 PUSH2 0x2F15 PUSH2 0x2F10 PUSH1 0x20 PUSH2 0x5DB JUMP JUMPDEST PUSH2 0x2EE3 JUMP JUMPDEST SWAP2 DUP3 MSTORE PUSH1 0x20 DUP3 ADD MSTORE SWAP1 JUMP JUMPDEST SWAP1 SWAP2 SWAP3 PUSH2 0x2F2D PUSH1 0x0 PUSH2 0x1004 JUMP JUMPDEST PUSH1 0x1 PUSH1 0x1 PUSH1 0xA0 SHL SUB DUP2 AND PUSH1 0x1 PUSH1 0x1 PUSH1 0xA0 SHL SUB DUP5 AND EQ PUSH2 0x2FEC JUMPI PUSH1 0x1 PUSH1 0x1 PUSH1 0xA0 SHL SUB DUP2 AND PUSH1 0x1 PUSH1 0x1 PUSH1 0xA0 SHL SUB DUP6 AND EQ PUSH2 0x2FBB JUMPI POP PUSH2 0x2F73 DUP5 PUSH2 0x10D4 DUP6 PUSH2 0x1AC5 DUP7 PUSH1 0x1 PUSH2 0x1033 JUMP JUMPDEST PUSH2 0x2F7C JUMPI POP POP POP JUMP JUMPDEST PUSH2 0x2FB6 PUSH2 0x2FAC PUSH2 0x1CF2 PUSH32 0x8C5BE1E5EBEC7D5BD14F71427D1E84F3DD0314C0F7B2291E5B200AC8C7C3B925 SWAP4 PUSH2 0x102A JUMP JUMPDEST SWAP4 PUSH2 0x4D1 PUSH1 0x40 MLOAD SWAP1 JUMP JUMPDEST SUB SWAP1 LOG3 JUMP JUMPDEST PUSH2 0xFF3 SWAP1 PUSH2 0x2FC8 PUSH1 0x40 MLOAD SWAP1 JUMP JUMPDEST PUSH4 0x4A1406B1 PUSH1 0xE1 SHL DUP2 MSTORE SWAP2 DUP3 SWAP2 PUSH1 0x4 DUP4 ADD PUSH1 0x1 PUSH1 0x1 PUSH1 0xA0 SHL SUB SWAP1 SWAP2 AND DUP2 MSTORE PUSH1 0x20 ADD SWAP1 JUMP JUMPDEST PUSH2 0xFF3 SWAP1 PUSH2 0x2FF9 PUSH1 0x40 MLOAD SWAP1 JUMP JUMPDEST PUSH4 0xE602DF05 PUSH1 0xE0 SHL DUP2 MSTORE SWAP2 DUP3 SWAP2 PUSH1 0x4 DUP4 ADD PUSH1 0x1 PUSH1 0x1 PUSH1 0xA0 SHL SUB SWAP1 SWAP2 AND DUP2 MSTORE PUSH1 0x20 ADD SWAP1 JUMP JUMPDEST SWAP3 SWAP2 SWAP1 PUSH2 0x302D PUSH2 0x438 PUSH1 0x0 PUSH2 0x1004 JUMP JUMPDEST PUSH1 0x1 PUSH1 0x1 PUSH1 0xA0 SHL SUB DUP6 AND EQ ISZERO DUP1 PUSH2 0x305A JUMPI JUMPDEST PUSH2 0x304D JUMPI PUSH2 0x34C SWAP3 SWAP4 PUSH2 0x3175 JUMP JUMPDEST PUSH2 0xFF3 DUP5 PUSH2 0x10FA PUSH1 0x40 MLOAD SWAP1 JUMP JUMPDEST POP PUSH2 0x3064 DUP5 PUSH2 0x17E1 JUMP JUMPDEST DUP3 GT PUSH2 0x303F JUMP JUMPDEST PUSH2 0x362 PUSH1 0x1 PUSH1 0x1 PUSH1 0xD0 SHL SUB PUSH2 0x1214 JUMP JUMPDEST SWAP1 PUSH2 0x30D3 PUSH2 0x30CD PUSH2 0x34C SWAP5 SWAP4 PUSH2 0x30B9 PUSH2 0x3094 PUSH1 0x0 PUSH2 0x1004 JUMP JUMPDEST PUSH1 0x1 PUSH1 0x1 PUSH1 0xA0 SHL SUB DUP2 AND PUSH1 0x1 PUSH1 0x1 PUSH1 0xA0 SHL SUB DUP5 AND EQ PUSH2 0x30F3 JUMPI PUSH1 0x1 PUSH1 0x1 PUSH1 0xA0 SHL SUB AND SWAP1 JUMP JUMPDEST PUSH1 0x1 PUSH1 0x1 PUSH1 0xA0 SHL SUB DUP6 AND EQ PUSH2 0x30D9 JUMPI PUSH2 0x1533 JUMP JUMPDEST SWAP2 PUSH2 0x1533 JUMP JUMPDEST SWAP1 PUSH2 0x2828 JUMP JUMPDEST PUSH2 0x30EC PUSH2 0x30E5 DUP7 PUSH2 0x2E6C JUMP JUMPDEST PUSH1 0xE PUSH2 0x293A JUMP JUMPDEST POP POP PUSH2 0x1533 JUMP JUMPDEST PUSH2 0x3106 PUSH2 0x30FF DUP9 PUSH2 0x2E6C JUMP JUMPDEST PUSH1 0xE PUSH2 0x28DF JUMP JUMPDEST POP POP PUSH1 0x1 PUSH1 0x1 PUSH1 0xA0 SHL SUB AND SWAP1 JUMP JUMPDEST SWAP1 PUSH2 0x312C PUSH1 0x0 PUSH2 0x2EDF SWAP5 SWAP4 PUSH2 0x3127 PUSH1 0x0 SWAP1 JUMP JUMPDEST POP ADD SWAP1 JUMP JUMPDEST PUSH2 0x32BA JUMP JUMPDEST PUSH2 0x3140 PUSH2 0x3145 SWAP2 PUSH2 0x2782 PUSH1 0x0 SWAP1 JUMP JUMPDEST PUSH2 0x2ADB JUMP JUMPDEST PUSH2 0x314F PUSH1 0xFF PUSH2 0x5DB JUMP JUMPDEST AND PUSH2 0x315A PUSH1 0x1F PUSH2 0x5DB JUMP JUMPDEST DUP2 GT PUSH2 0x3163 JUMPI SWAP1 JUMP JUMPDEST PUSH1 0x40 MLOAD PUSH4 0x2CD44AC3 PUSH1 0xE2 SHL DUP2 MSTORE PUSH1 0x4 SWAP1 REVERT JUMPDEST SWAP3 SWAP2 SWAP1 SWAP3 PUSH2 0x3182 DUP2 PUSH2 0x1ACA JUMP JUMPDEST PUSH2 0x31AB JUMPI PUSH2 0x318F DUP5 PUSH2 0x1ACA JUMP JUMPDEST PUSH2 0x319E JUMPI SWAP3 PUSH2 0x34C SWAP3 SWAP4 PUSH2 0x33E2 JUMP JUMPDEST PUSH2 0xFF3 DUP5 PUSH2 0x2DA9 PUSH1 0x40 MLOAD SWAP1 JUMP JUMPDEST PUSH2 0xFF3 SWAP1 PUSH2 0x2DA9 PUSH1 0x40 MLOAD SWAP1 JUMP JUMPDEST PUSH4 0x4E487B71 PUSH1 0xE0 SHL PUSH1 0x0 MSTORE PUSH1 0x0 PUSH1 0x4 MSTORE PUSH1 0x24 PUSH1 0x0 REVERT JUMPDEST SWAP1 PUSH6 0xFFFFFFFFFFFF SWAP1 PUSH2 0x1043 JUMP JUMPDEST PUSH2 0x14EA PUSH2 0x362 PUSH2 0x362 SWAP3 PUSH6 0xFFFFFFFFFFFF AND SWAP1 JUMP JUMPDEST SWAP1 PUSH2 0x3201 PUSH2 0x362 PUSH2 0x1064 SWAP3 PUSH2 0x31DC JUMP JUMPDEST DUP3 SLOAD PUSH2 0x31CE JUMP JUMPDEST SWAP1 PUSH6 0xFFFFFFFFFFFF NOT SWAP1 PUSH1 0x30 SHL PUSH2 0x1043 JUMP JUMPDEST PUSH2 0x362 SWAP1 PUSH2 0x1F1B SWAP1 PUSH1 0x1 PUSH1 0x1 PUSH1 0xD0 SHL SUB AND DUP3 JUMP JUMPDEST SWAP1 PUSH2 0x323E PUSH2 0x362 PUSH2 0x1064 SWAP3 PUSH2 0x321A JUMP JUMPDEST DUP3 SLOAD PUSH2 0x3208 JUMP JUMPDEST PUSH2 0x34C SWAP2 PUSH2 0x3277 SWAP1 PUSH1 0x20 SWAP1 PUSH2 0x3269 PUSH2 0x3263 DUP3 MLOAD PUSH6 0xFFFFFFFFFFFF AND SWAP1 JUMP JUMPDEST DUP6 PUSH2 0x31F1 JUMP JUMPDEST ADD MLOAD PUSH1 0x1 PUSH1 0x1 PUSH1 0xD0 SHL SUB AND SWAP1 JUMP JUMPDEST SWAP1 PUSH2 0x322E JUMP JUMPDEST SWAP2 SWAP1 PUSH2 0x328C JUMPI PUSH2 0x34C SWAP2 PUSH2 0x3245 JUMP JUMPDEST PUSH2 0x31B8 JUMP JUMPDEST SWAP1 DUP2 SLOAD SWAP2 PUSH1 0x1 PUSH1 0x40 SHL DUP4 LT ISZERO PUSH2 0xF19 JUMPI DUP3 PUSH2 0x32B4 SWAP2 PUSH1 0x1 PUSH2 0x34C SWAP6 ADD DUP2 SSTORE PUSH2 0x2CF3 JUMP JUMPDEST SWAP1 PUSH2 0x327D JUMP JUMPDEST SWAP2 SWAP3 SWAP2 SWAP1 DUP2 SLOAD PUSH1 0x0 SWAP1 PUSH2 0x32CC DUP3 PUSH2 0x5DB JUMP JUMPDEST DUP2 GT ISZERO PUSH2 0x338B JUMPI PUSH2 0x32F2 PUSH2 0x32E5 DUP4 SWAP3 PUSH2 0x17F7 PUSH1 0x1 PUSH2 0x5DB JUMP JUMPDEST DUP6 PUSH1 0x0 MSTORE PUSH1 0x20 PUSH1 0x0 KECCAK256 ADD SWAP1 JUMP JUMPDEST ADD PUSH2 0x32FC DUP2 PUSH2 0x1F09 JUMP JUMPDEST SWAP2 PUSH2 0x3306 DUP3 PUSH2 0x1F27 JUMP JUMPDEST SWAP5 PUSH6 0xFFFFFFFFFFFF DUP6 AND PUSH6 0xFFFFFFFFFFFF DUP6 AND GT PUSH2 0x3379 JUMPI DUP8 SWAP4 PUSH2 0x3331 PUSH6 0xFFFFFFFFFFFF DUP8 AND PUSH2 0x14F5 JUMP JUMPDEST SUB PUSH2 0x3342 JUMPI POP POP PUSH2 0x1094 SWAP3 POP PUSH2 0x322E JUMP JUMPDEST SWAP2 POP SWAP2 POP PUSH2 0x3365 PUSH2 0x1094 SWAP4 PUSH2 0x3355 PUSH2 0x1AE1 JUMP JUMPDEST SWAP4 DUP5 ADD SWAP1 PUSH6 0xFFFFFFFFFFFF AND SWAP1 MSTORE JUMP JUMPDEST PUSH1 0x1 PUSH1 0x1 PUSH1 0xD0 SHL SUB DUP7 AND PUSH1 0x20 DUP4 ADD MSTORE PUSH2 0x3291 JUMP JUMPDEST PUSH1 0x40 MLOAD PUSH4 0x2520601D PUSH1 0xE0 SHL DUP2 MSTORE PUSH1 0x4 SWAP1 REVERT JUMPDEST POP SWAP1 PUSH2 0x33C4 SWAP1 PUSH2 0x1094 SWAP4 PUSH2 0x33B0 PUSH2 0x33A0 PUSH2 0x1AE1 JUMP JUMPDEST PUSH6 0xFFFFFFFFFFFF SWAP1 SWAP4 AND DUP6 DUP5 ADD MSTORE JUMP JUMPDEST PUSH1 0x1 PUSH1 0x1 PUSH1 0xD0 SHL SUB DUP8 AND PUSH1 0x20 DUP4 ADD MSTORE PUSH2 0x3291 JUMP JUMPDEST PUSH2 0x1F31 JUMP JUMPDEST SWAP1 PUSH2 0x34C SWAP3 SWAP2 PUSH2 0x33D7 PUSH2 0x29F6 JUMP JUMPDEST SWAP1 PUSH2 0x34C SWAP3 SWAP2 PUSH2 0x33ED JUMP JUMPDEST SWAP1 PUSH2 0x34C SWAP3 SWAP2 PUSH2 0x33C9 JUMP JUMPDEST DUP2 PUSH1 0x0 PUSH2 0x33F9 DUP2 PUSH2 0x1004 JUMP JUMPDEST PUSH1 0x1 PUSH1 0x1 PUSH1 0xA0 SHL SUB DUP2 AND PUSH1 0x1 PUSH1 0x1 PUSH1 0xA0 SHL SUB DUP6 AND SUB PUSH2 0x349B JUMPI PUSH32 0xDDF252AD1BE2C89B69C2B068FC378DAA952BA7F163C4A11628F55A4DF523B3EF SWAP4 PUSH2 0x2FB6 SWAP4 PUSH2 0x2FAC SWAP4 PUSH2 0x345B PUSH2 0x1CF2 SWAP5 PUSH2 0x438 PUSH2 0x3454 DUP13 PUSH2 0x13ED PUSH1 0x2 PUSH2 0xF69 JUMP JUMPDEST PUSH1 0x2 PUSH2 0x104D JUMP JUMPDEST PUSH1 0x1 PUSH1 0x1 PUSH1 0xA0 SHL SUB DUP4 AND SUB PUSH2 0x3481 JUMPI POP POP PUSH2 0x10D9 PUSH2 0x3454 DUP9 PUSH2 0x347D PUSH1 0x2 PUSH2 0xF69 JUMP JUMPDEST SUB SWAP1 JUMP JUMPDEST PUSH2 0x10D9 SWAP2 PUSH2 0x348E SWAP2 PUSH2 0x1033 JUMP JUMPDEST PUSH2 0x23A4 DUP10 PUSH2 0x3FC DUP4 PUSH2 0xF69 JUMP JUMPDEST SWAP1 SWAP2 POP PUSH2 0x34AB PUSH2 0x159B DUP5 DUP5 PUSH2 0x1033 JUMP JUMPDEST DUP6 DUP2 LT PUSH2 0x34F9 JUMPI PUSH32 0xDDF252AD1BE2C89B69C2B068FC378DAA952BA7F163C4A11628F55A4DF523B3EF SWAP4 DUP6 PUSH2 0x2FB6 SWAP5 PUSH2 0x345B PUSH2 0x2FAC SWAP6 PUSH2 0x438 PUSH2 0x34EF DUP13 PUSH2 0x1CF2 SWAP9 SUB SWAP1 JUMP JUMPDEST PUSH2 0x10D4 DUP8 DUP7 PUSH2 0x1033 JUMP JUMPDEST DUP4 PUSH2 0xFF3 DUP8 PUSH2 0x3507 PUSH1 0x40 MLOAD SWAP1 JUMP JUMPDEST PUSH4 0x391434E3 PUSH1 0xE2 SHL DUP2 MSTORE SWAP4 DUP5 SWAP4 PUSH1 0x4 DUP6 ADD PUSH2 0x1B29 JUMP JUMPDEST PUSH4 0x4E487B71 PUSH1 0xE0 SHL PUSH1 0x0 MSTORE PUSH1 0x51 PUSH1 0x4 MSTORE PUSH1 0x24 PUSH1 0x0 REVERT JUMPDEST SWAP2 SWAP1 SWAP2 DUP1 PUSH1 0x1 EQ PUSH2 0x354E JUMPI PUSH1 0x2 SUB PUSH2 0x351D JUMPI PUSH2 0x362 SWAP2 PUSH2 0xDCF JUMP JUMPDEST POP PUSH2 0x362 SWAP2 PUSH2 0xDA0 JUMP INVALID LOG2 PUSH5 0x6970667358 0x22 SLT KECCAK256 DUP4 DUP7 0xD9 0xED SWAP11 0xDF ADDRESS 0xE6 PUSH12 0xCDFC5BF711CBD409E21B8C87 PUSH23 0x8B3ABB1F2E5F07A7E65464736F6C63430008160033DDF2 MSTORE 0xAD SHL 0xE2 0xC8 SWAP12 PUSH10 0xC2B068FC378DAA952BA7 CALL PUSH4 0xC4A11628 CREATE2 GAS 0x4D CREATE2 0x23 0xB3 0xEF 0xDE 0xC2 0xBA 0xCD 0xD2 CREATE JUMPDEST MSIZE 0xDE CALLVALUE 0xDA SWAP12 MSTORE RETURNDATASIZE SELFDESTRUCT DUP12 0xE4 0x2E 0x5E CODESIZE 0xE8 XOR 0xC8 0x2F 0xDB SIGNEXTEND 0xAE PUSH24 0x4387A7240000000000000000000000000000000000000000 "},"methodIdentifiers":{"CLOCK_MODE()":"4bf5d7e9","CUSTODIAN_ROLE()":"c79445d0","DEFAULT_ADMIN_ROLE()":"a217fddf","DOMAIN_SEPARATOR()":"3644e515","LIMITER_ROLE()":"b3de4214","MAX_SUPPLY()":"32cb6b0c","MINTER_ROLE()":"d5391393","PAUSER_ROLE()":"e63ab1e9","allowance(address,address)":"dd62ed3e","approve(address,uint256)":"095ea7b3","availableBalance(address)":"a0821be3","balanceOf(address)":"70a08231","blockUser(address)":"3da01325","blocked(address)":"e5962195","burn(uint256)":"42966c68","burnFrom(address,uint256)":"79cc6790","checkpoints(address,uint32)":"f1127ed8","clock()":"91ddadf4","decimals()":"313ce567","delegate(address)":"5c19a95c","delegateBySig(address,uint256,uint256,uint8,bytes32,bytes32)":"c3cda520","delegates(address)":"587cde1e","eip712Domain()":"84b0196e","freeze(address,uint256)":"24bce60c","frozen(address)":"d0516650","getPastTotalSupply(uint256)":"8e539e8c","getPastVotes(address,uint256)":"3a46b1a8","getRoleAdmin(bytes32)":"248a9ca3","getVotes(address)":"9ab24eb0","grantRole(bytes32,address)":"2f2ff15d","hasRole(bytes32,address)":"91d14854","mint(address,uint256)":"40c10f19","name()":"06fdde03","nonces(address)":"7ecebe00","numCheckpoints(address)":"6fcfff45","pause()":"8456cb59","paused()":"5c975abb","permit(address,address,uint256,uint256,uint8,bytes32,bytes32)":"d505accf","remainingSupply()":"da0239a6","renounceRole(bytes32,address)":"36568abe","revokeRole(bytes32,address)":"d547741f","supportsInterface(bytes4)":"01ffc9a7","symbol()":"95d89b41","totalSupply()":"18160ddd","transfer(address,uint256)":"a9059cbb","transferFrom(address,address,uint256)":"23b872dd","unblockUser(address)":"39d319e5","unfreeze(address,uint256)":"7b46b80b","unpause()":"3f4ba83a"}}}}}